{
  "contractName": "JsmnSolLib",
  "abi": [
    {
      "constant": false,
      "inputs": [
        {
          "name": "_a",
          "type": "string"
        }
      ],
      "name": "parseBool",
      "outputs": [
        {
          "name": "",
          "type": "bool"
        }
      ],
      "payable": false,
      "stateMutability": "nonpayable",
      "type": "function"
    }
  ],
  "bytecode": "0x6060604052341561000f57600080fd5b61040f8061001e6000396000f300606060405260043610610041576000357c0100000000000000000000000000000000000000000000000000000000900463ffffffff168063974ef92414610046575b600080fd5b610096600480803590602001908201803590602001908080601f016020809104026020016040519081016040528093929190818152602001838380828437820191505050505050919050506100b0565b604051808215151515815260200191505060405180910390f35b6000806100f2836040805190810160405280600481526020017f747275650000000000000000000000000000000000000000000000000000000081525061010b565b14156101015760019050610106565b600090505b919050565b60006101156103cf565b61011d6103cf565b60008086935085925083519150818351101561013857825191505b600090505b8181101561037b57828181518110151561015357fe5b9060200101517f010000000000000000000000000000000000000000000000000000000000000090047f0100000000000000000000000000000000000000000000000000000000000000027effffffffffffffffffffffffffffffffffffffffffffffffffffffffffffff191684828151811015156101ce57fe5b9060200101517f010000000000000000000000000000000000000000000000000000000000000090047f0100000000000000000000000000000000000000000000000000000000000000027effffffffffffffffffffffffffffffffffffffffffffffffffffffffffffff19161015610269577fffffffffffffffffffffffffffffffffffffffffffffffffffffffffffffffff94506103c5565b828181518110151561027757fe5b9060200101517f010000000000000000000000000000000000000000000000000000000000000090047f0100000000000000000000000000000000000000000000000000000000000000027effffffffffffffffffffffffffffffffffffffffffffffffffffffffffffff191684828151811015156102f257fe5b9060200101517f010000000000000000000000000000000000000000000000000000000000000090047f0100000000000000000000000000000000000000000000000000000000000000027effffffffffffffffffffffffffffffffffffffffffffffffffffffffffffff1916111561036e57600194506103c5565b808060010191505061013d565b8251845110156103ad577fffffffffffffffffffffffffffffffffffffffffffffffffffffffffffffffff94506103c5565b8251845111156103c057600194506103c5565b600094505b5050505092915050565b6020604051908101604052806000815250905600a165627a7a72305820228b6a95a6ab00c2942a4101b19686e2719e418b64aaf755a85b6df65ef06f710029",
  "source": "/*\nCopyright (c) 2017 Christoph Niemann\nPermission is hereby granted, free of charge, to any person obtaining a copy of\nthis software and associated documentation files (the \"Software\"), to deal in\nthe Software without restriction, including without limitation the rights to\nuse, copy, modify, merge, publish, distribute, sublicense, and/or sell copies\nof the Software, and to permit persons to whom the Software is furnished to do\nso, subject to the following conditions:\n\nThe above copyright notice and this permission notice shall be included in all\ncopies or substantial portions of the Software.\n\nTHE SOFTWARE IS PROVIDED \"AS IS\", WITHOUT WARRANTY OF ANY KIND, EXPRESS OR\nIMPLIED, INCLUDING BUT NOT LIMITED TO THE WARRANTIES OF MERCHANTABILITY,\nFITNESS FOR A PARTICULAR PURPOSE AND NONINFRINGEMENT. IN NO EVENT SHALL THE\nAUTHORS OR COPYRIGHT HOLDERS BE LIABLE FOR ANY CLAIM, DAMAGES OR OTHER\nLIABILITY, WHETHER IN AN ACTION OF CONTRACT, TORT OR OTHERWISE, ARISING FROM,\nOUT OF OR IN CONNECTION WITH THE SOFTWARE OR THE USE OR OTHER DEALINGS IN THE\nSOFTWARE.\n*/\n\npragma solidity ^0.4.2;\n\nlibrary JsmnSolLib {\n\n    enum JsmnType { UNDEFINED, OBJECT, ARRAY, STRING, PRIMITIVE }\n\n    uint constant RETURN_SUCCESS = 0;\n    uint constant RETURN_ERROR_INVALID_JSON = 1;\n    uint constant RETURN_ERROR_PART = 2;\n    uint constant RETURN_ERROR_NO_MEM = 3;\n\n    struct Token {\n        JsmnType jsmnType;\n        uint start;\n        bool startSet;\n        uint end;\n        bool endSet;\n        uint8 size;\n    }\n\n    struct Parser {\n        uint pos;\n        uint toknext;\n        int toksuper;\n    }\n\n    function init(uint length) internal returns (Parser, Token[]) {\n        Parser memory p = Parser(0, 0, -1);\n        Token[] memory t = new Token[](length);\n        return (p, t);\n    }\n\n    function allocateToken(Parser parser, Token[] tokens) internal returns (bool, Token) {\n        if (parser.toknext >= tokens.length) {\n            // no more space in tokens\n            return (false, tokens[tokens.length-1]);\n        }\n        Token memory token = Token(JsmnType.UNDEFINED, 0, false, 0, false, 0);\n        tokens[parser.toknext] = token;\n        parser.toknext++;\n        return (true, token);\n    }\n\n    function fillToken(Token token, JsmnType jsmnType, uint start, uint end) internal {\n        token.jsmnType = jsmnType;\n        token.start = start;\n        token.startSet = true;\n        token.end = end;\n        token.endSet = true;\n        token.size = 0;\n    }\n\n    function parseString(Parser parser, Token[] tokens, bytes s) internal returns (uint) {\n        uint start = parser.pos;\n        parser.pos++;\n\n        for (; parser.pos<s.length; parser.pos++) {\n            bytes1 c = s[parser.pos];\n\n            // Quote -> end of string\n            if (c == '\"') {\n                var (success, token) = allocateToken(parser, tokens);\n                if (!success) {\n                    parser.pos = start;\n                    return RETURN_ERROR_NO_MEM;\n                }\n                fillToken(token, JsmnType.STRING, start+1, parser.pos);\n                return RETURN_SUCCESS;\n            }\n\n            if (c == 92 && parser.pos + 1 < s.length) {\n                // handle escaped characters: skip over it\n                parser.pos++;\n                if (s[parser.pos] == '\\\"' || s[parser.pos] == '/' || s[parser.pos] == '\\\\'\n                    || s[parser.pos] == 'f' || s[parser.pos] == 'r' || s[parser.pos] == 'n'\n                    || s[parser.pos] == 'b' || s[parser.pos] == 't') {\n                        continue;\n                        } else {\n                            // all other values are INVALID\n                            parser.pos = start;\n                            return(RETURN_ERROR_INVALID_JSON);\n                        }\n                    }\n            }\n        parser.pos = start;\n        return RETURN_ERROR_PART;\n    }\n\n    function parsePrimitive(Parser parser, Token[] tokens, bytes s) internal returns (uint) {\n        bool found = false;\n        uint start = parser.pos;\n        byte c;\n        for (; parser.pos < s.length; parser.pos++) {\n            c = s[parser.pos];\n            if (c == ' ' || c == '\\t' || c == '\\n' || c == '\\r' || c == ','\n                || c == 0x7d || c == 0x5d) {\n                    found = true;\n                    break;\n            }\n            if (c < 32 || c > 127) {\n                parser.pos = start;\n                return RETURN_ERROR_INVALID_JSON;\n            }\n        }\n        if (!found) {\n            parser.pos = start;\n            return RETURN_ERROR_PART;\n        }\n\n        // found the end\n        var (success, token) = allocateToken(parser, tokens);\n        if (!success) {\n            parser.pos = start;\n            return RETURN_ERROR_NO_MEM;\n        }\n        fillToken(token, JsmnType.PRIMITIVE, start, parser.pos);\n        parser.pos--;\n        return RETURN_SUCCESS;\n    }\n\n    function parse(string json, uint numberElements) internal returns (uint, Token[], uint) {\n        bytes memory s = bytes(json);\n        var (parser, tokens) = init(numberElements);\n\n        // Token memory token;\n        uint r;\n        uint count = parser.toknext;\n        uint i;\n\n        for (; parser.pos<s.length; parser.pos++) {\n            bytes1 c = s[parser.pos];\n\n            // 0x7b, 0x5b opening curly parentheses or brackets\n            if (c == 0x7b || c == 0x5b) {\n                count++;\n                var (success, token)= allocateToken(parser, tokens);\n                if (!success) {\n                    return (RETURN_ERROR_NO_MEM, tokens, 0);\n                }\n                if (parser.toksuper != -1) {\n                    tokens[uint(parser.toksuper)].size++;\n                }\n                token.jsmnType = (c == 0x7b ? JsmnType.OBJECT : JsmnType.ARRAY);\n                token.start = parser.pos;\n                token.startSet = true;\n                parser.toksuper = int(parser.toknext - 1);\n                continue;\n            }\n\n            // closing curly parentheses or brackets\n            if (c == 0x7d || c == 0x5d) {\n                JsmnType tokenType = (c == 0x7d ? JsmnType.OBJECT : JsmnType.ARRAY);\n                bool isUpdated = false;\n                for (i=parser.toknext-1; i>=0; i--) {\n                    token = tokens[i];\n                    if (token.startSet && !token.endSet) {\n                        if (token.jsmnType != tokenType) {\n                            // found a token that hasn't been closed but from a different type\n                            return (RETURN_ERROR_INVALID_JSON, tokens, 0);\n                        }\n                        parser.toksuper = -1;\n                        tokens[i].end = parser.pos + 1;\n                        tokens[i].endSet = true;\n                        isUpdated = true;\n                        break;\n                    }\n                }\n                if (!isUpdated) {\n                    return (RETURN_ERROR_INVALID_JSON, tokens, 0);\n                }\n                for (; i>0; i--) {\n                    token = tokens[i];\n                    if (token.startSet && !token.endSet) {\n                        parser.toksuper = int(i);\n                        break;\n                    }\n                }\n\n                if (i==0) {\n                    token = tokens[i];\n                    if (token.startSet && !token.endSet) {\n                        parser.toksuper = uint128(i);\n                    }\n                }\n                continue;\n            }\n\n            // 0x42\n            if (c == '\"') {\n                r = parseString(parser, tokens, s);\n\n                if (r != RETURN_SUCCESS) {\n                    return (r, tokens, 0);\n                }\n                //JsmnError.INVALID;\n                count++;\n\t\t\t\tif (parser.toksuper != -1)\n\t\t\t\t\ttokens[uint(parser.toksuper)].size++;\n                continue;\n            }\n\n            // ' ', \\r, \\t, \\n\n            if (c == ' ' || c == 0x11 || c == 0x12 || c == 0x14) {\n                continue;\n            }\n\n            // 0x3a\n            if (c == ':') {\n                parser.toksuper = int(parser.toknext -1);\n                continue;\n            }\n\n            if (c == ',') {\n                if (parser.toksuper != -1\n                    && tokens[uint(parser.toksuper)].jsmnType != JsmnType.ARRAY\n                    && tokens[uint(parser.toksuper)].jsmnType != JsmnType.OBJECT) {\n                        for(i = parser.toknext-1; i>=0; i--) {\n                            if (tokens[i].jsmnType == JsmnType.ARRAY || tokens[i].jsmnType == JsmnType.OBJECT) {\n                                if (tokens[i].startSet && !tokens[i].endSet) {\n                                    parser.toksuper = int(i);\n                                    break;\n                                }\n                            }\n                        }\n                    }\n                continue;\n            }\n\n            // Primitive\n            if ((c >= '0' && c <= '9') || c == '-' || c == 'f' || c == 't' || c == 'n') {\n                if (parser.toksuper != -1) {\n                    token = tokens[uint(parser.toksuper)];\n                    if (token.jsmnType == JsmnType.OBJECT\n                        || (token.jsmnType == JsmnType.STRING && token.size != 0)) {\n                            return (RETURN_ERROR_INVALID_JSON, tokens, 0);\n                        }\n                }\n\n                r = parsePrimitive(parser, tokens, s);\n                if (r != RETURN_SUCCESS) {\n                    return (r, tokens, 0);\n                }\n                count++;\n                if (parser.toksuper != -1) {\n                    tokens[uint(parser.toksuper)].size++;\n                }\n                continue;\n            }\n\n            // printable char\n            if (c >= 0x20 && c <= 0x7e) {\n                return (RETURN_ERROR_INVALID_JSON, tokens, 0);\n            }\n        }\n\n        return (RETURN_SUCCESS, tokens, parser.toknext);\n    }\n\n    function getBytes(string json, uint start, uint end) internal returns (string) {\n        bytes memory s = bytes(json);\n        bytes memory result = new bytes(end-start);\n        for (uint i=start; i<end; i++) {\n            result[i-start] = s[i];\n        }\n        return string(result);\n    }\n\n    // parseInt\n    function parseInt(string _a) internal returns (int) {\n        return parseInt(_a, 0);\n    }\n\n    // parseInt(parseFloat*10^_b)\n    function parseInt(string _a, uint _b) internal returns (int) {\n        bytes memory bresult = bytes(_a);\n        int mint = 0;\n        bool decimals = false;\n        bool negative = false;\n        for (uint i=0; i<bresult.length; i++){\n            if ((i == 0) && (bresult[i] == '-')) {\n                negative = true;\n            }\n            if ((bresult[i] >= 48) && (bresult[i] <= 57)) {\n                if (decimals){\n                   if (_b == 0) break;\n                    else _b--;\n                }\n                mint *= 10;\n                mint += int(bresult[i]) - 48;\n            } else if (bresult[i] == 46) decimals = true;\n        }\n        if (_b > 0) mint *= int(10**_b);\n        if (negative) mint *= -1;\n        return mint;\n    }\n\n    function uint2str(uint i) internal returns (string){\n        if (i == 0) return \"0\";\n        uint j = i;\n        uint len;\n        while (j != 0){\n            len++;\n            j /= 10;\n        }\n        bytes memory bstr = new bytes(len);\n        uint k = len - 1;\n        while (i != 0){\n            bstr[k--] = byte(48 + i % 10);\n            i /= 10;\n        }\n        return string(bstr);\n    }\n\n    function parseBool(string _a) returns (bool) {\n        if (strCompare(_a, 'true') == 0) {\n            return true;\n        } else {\n            return false;\n        }\n    }\n\n    function strCompare(string _a, string _b) internal returns (int) {\n        bytes memory a = bytes(_a);\n        bytes memory b = bytes(_b);\n        uint minLength = a.length;\n        if (b.length < minLength) minLength = b.length;\n        for (uint i = 0; i < minLength; i ++)\n            if (a[i] < b[i])\n                return -1;\n            else if (a[i] > b[i])\n                return 1;\n        if (a.length < b.length)\n            return -1;\n        else if (a.length > b.length)\n            return 1;\n        else\n            return 0;\n    }\n\n}\n",
  "sourcePath": "/home/vincent/Documents/imperial/group project/Lending-With-Smart-Contracts/installed_contracts/jsmnsol-lib/contracts/JsmnSolLib.sol",
  "compiler": {
    "name": "solc",
    "version": "0.4.19+commit.c4cbbb05.Emscripten.clang"
  },
  "schemaVersion": "1.0.1",
  "updatedAt": "2018-05-09T14:07:51.817Z"
}