{
  "contractName": "Lending",
  "abi": [
    {
      "constant": false,
      "inputs": [
        {
          "name": "_recipient",
          "type": "address"
        },
        {
          "name": "_assetID",
          "type": "uint256"
        }
      ],
      "name": "transferOwnership",
      "outputs": [],
      "payable": false,
      "stateMutability": "nonpayable",
      "type": "function"
    },
    {
      "constant": true,
      "inputs": [],
      "name": "getLendingIds",
      "outputs": [
        {
          "name": "",
          "type": "uint256[]"
        }
      ],
      "payable": false,
      "stateMutability": "view",
      "type": "function"
    },
    {
      "constant": false,
      "inputs": [
        {
          "name": "_lendingID",
          "type": "uint256"
        }
      ],
      "name": "reportLatePayment",
      "outputs": [],
      "payable": true,
      "stateMutability": "payable",
      "type": "function"
    },
    {
      "constant": false,
      "inputs": [
        {
          "name": "_assetID",
          "type": "uint256"
        },
        {
          "name": "_borrowAmount",
          "type": "uint256"
        },
        {
          "name": "_lending_period",
          "type": "uint256"
        },
        {
          "name": "_hex_proof",
          "type": "bytes"
        }
      ],
      "name": "borrowFunds",
      "outputs": [],
      "payable": true,
      "stateMutability": "payable",
      "type": "function"
    },
    {
      "constant": true,
      "inputs": [
        {
          "name": "",
          "type": "uint256"
        }
      ],
      "name": "allAssets",
      "outputs": [
        {
          "name": "assetID",
          "type": "uint256"
        },
        {
          "name": "owner",
          "type": "address"
        },
        {
          "name": "value",
          "type": "uint256"
        },
        {
          "name": "borrowedAgainst",
          "type": "bool"
        }
      ],
      "payable": false,
      "stateMutability": "view",
      "type": "function"
    },
    {
      "constant": false,
      "inputs": [
        {
          "name": "_owner",
          "type": "address"
        },
        {
          "name": "_value",
          "type": "uint256"
        }
      ],
      "name": "addAsset",
      "outputs": [],
      "payable": false,
      "stateMutability": "nonpayable",
      "type": "function"
    },
    {
      "constant": false,
      "inputs": [
        {
          "name": "_assetID",
          "type": "uint256"
        },
        {
          "name": "_new_value",
          "type": "uint256"
        }
      ],
      "name": "changeValue",
      "outputs": [],
      "payable": false,
      "stateMutability": "nonpayable",
      "type": "function"
    },
    {
      "constant": true,
      "inputs": [],
      "name": "getAssetCount",
      "outputs": [
        {
          "name": "",
          "type": "uint256"
        }
      ],
      "payable": false,
      "stateMutability": "view",
      "type": "function"
    },
    {
      "constant": false,
      "inputs": [
        {
          "name": "_lendingID",
          "type": "uint256"
        }
      ],
      "name": "lendFunds",
      "outputs": [],
      "payable": true,
      "stateMutability": "payable",
      "type": "function"
    },
    {
      "constant": true,
      "inputs": [],
      "name": "getLendingContractCount",
      "outputs": [
        {
          "name": "",
          "type": "uint256"
        }
      ],
      "payable": false,
      "stateMutability": "view",
      "type": "function"
    },
    {
      "constant": false,
      "inputs": [
        {
          "name": "_lendingID",
          "type": "uint256"
        }
      ],
      "name": "payFundsBack",
      "outputs": [],
      "payable": true,
      "stateMutability": "payable",
      "type": "function"
    },
    {
      "constant": false,
      "inputs": [
        {
          "name": "_lendingID",
          "type": "uint256"
        }
      ],
      "name": "cancelLoan",
      "outputs": [],
      "payable": true,
      "stateMutability": "payable",
      "type": "function"
    },
    {
      "constant": true,
      "inputs": [
        {
          "name": "",
          "type": "uint256"
        }
      ],
      "name": "allLendingContracts",
      "outputs": [
        {
          "name": "lendingID",
          "type": "uint256"
        },
        {
          "name": "proposer",
          "type": "address"
        },
        {
          "name": "acceptor",
          "type": "address"
        },
        {
          "name": "borrowedAmount",
          "type": "uint256"
        },
        {
          "name": "startTime",
          "type": "uint256"
        },
        {
          "name": "endTime",
          "type": "uint256"
        },
        {
          "name": "lendingTimePeriod",
          "type": "uint256"
        },
        {
          "name": "collateralAssetID",
          "type": "uint256"
        },
        {
          "name": "filled",
          "type": "bool"
        },
        {
          "name": "deleted",
          "type": "bool"
        },
        {
          "name": "totalPremium",
          "type": "uint256"
        }
      ],
      "payable": false,
      "stateMutability": "view",
      "type": "function"
    },
    {
      "constant": true,
      "inputs": [],
      "name": "getAssetIds",
      "outputs": [
        {
          "name": "",
          "type": "uint256[]"
        }
      ],
      "payable": false,
      "stateMutability": "view",
      "type": "function"
    },
    {
      "constant": true,
      "inputs": [],
      "name": "master",
      "outputs": [
        {
          "name": "",
          "type": "address"
        }
      ],
      "payable": false,
      "stateMutability": "view",
      "type": "function"
    },
    {
      "inputs": [],
      "payable": false,
      "stateMutability": "nonpayable",
      "type": "constructor"
    },
    {
      "anonymous": false,
      "inputs": [
        {
          "indexed": false,
          "name": "assetID",
          "type": "uint256"
        }
      ],
      "name": "AssetChange",
      "type": "event"
    },
    {
      "anonymous": false,
      "inputs": [
        {
          "indexed": false,
          "name": "lendingID",
          "type": "uint256"
        }
      ],
      "name": "LendingContractChange",
      "type": "event"
    },
    {
      "anonymous": false,
      "inputs": [
        {
          "indexed": false,
          "name": "a",
          "type": "uint256"
        }
      ],
      "name": "Status",
      "type": "event"
    }
  ],
  "bytecode": "0x6060604052341561000f57600080fd5b336000806101000a81548173ffffffffffffffffffffffffffffffffffffffff021916908373ffffffffffffffffffffffffffffffffffffffff160217905550600060028190555060006005819055506142ba8061006e6000396000f3006060604052600436106100db576000357c0100000000000000000000000000000000000000000000000000000000900463ffffffff1680630a276680146100e0578063179fd7631461012257806333a10c9f1461018c57806334b44db2146101a4578063578e5c221461021157806366a6a4bd1461028d5780638709b2e7146102cf578063a0aead4d146102fb578063aa2d572114610324578063b0ffd2401461033c578063b3798b9414610365578063bdbfa3de1461037d578063c172da6014610395578063e47e1c0b14610472578063ee97f7f3146104dc575b600080fd5b34156100eb57600080fd5b610120600480803573ffffffffffffffffffffffffffffffffffffffff16906020019091908035906020019091905050610531565b005b341561012d57600080fd5b610135610688565b6040518080602001828103825283818151815260200191508051906020019060200280838360005b8381101561017857808201518184015260208101905061015d565b505050509050019250505060405180910390f35b6101a260048080359060200190919050506106e6565b005b61020f600480803590602001909190803590602001909190803590602001909190803590602001908201803590602001908080601f016020809104026020016040519081016040528093929190818152602001838380828437820191505050505050919050506108f8565b005b341561021c57600080fd5b6102326004808035906020019091905050610cd8565b604051808581526020018473ffffffffffffffffffffffffffffffffffffffff1673ffffffffffffffffffffffffffffffffffffffff1681526020018381526020018215151515815260200194505050505060405180910390f35b341561029857600080fd5b6102cd600480803573ffffffffffffffffffffffffffffffffffffffff16906020019091908035906020019091905050610d35565b005b34156102da57600080fd5b6102f96004808035906020019091908035906020019091905050610eda565b005b341561030657600080fd5b61030e610f8b565b6040518082815260200191505060405180910390f35b61033a6004808035906020019091905050610f95565b005b341561034757600080fd5b61034f6111c6565b6040518082815260200191505060405180910390f35b61037b60048080359060200190919050506111d0565b005b61039360048080359060200190919050506113db565b005b34156103a057600080fd5b6103b6600480803590602001909190505061156a565b604051808c81526020018b73ffffffffffffffffffffffffffffffffffffffff1673ffffffffffffffffffffffffffffffffffffffff1681526020018a73ffffffffffffffffffffffffffffffffffffffff1673ffffffffffffffffffffffffffffffffffffffff16815260200189815260200188815260200187815260200186815260200185815260200184151515158152602001831515151581526020018281526020019b50505050505050505050505060405180910390f35b341561047d57600080fd5b61048561161e565b6040518080602001828103825283818151815260200191508051906020019060200280838360005b838110156104c85780820151818401526020810190506104ad565b505050509050019250505060405180910390f35b34156104e757600080fd5b6104ef61167c565b604051808273ffffffffffffffffffffffffffffffffffffffff1673ffffffffffffffffffffffffffffffffffffffff16815260200191505060405180910390f35b3373ffffffffffffffffffffffffffffffffffffffff166006600083815260200190815260200160002060010160009054906101000a900473ffffffffffffffffffffffffffffffffffffffff1673ffffffffffffffffffffffffffffffffffffffff1614806105ed57506000809054906101000a900473ffffffffffffffffffffffffffffffffffffffff1673ffffffffffffffffffffffffffffffffffffffff163373ffffffffffffffffffffffffffffffffffffffff16145b15156105f857600080fd5b816006600083815260200190815260200160002060010160006101000a81548173ffffffffffffffffffffffffffffffffffffffff021916908373ffffffffffffffffffffffffffffffffffffffff1602179055507ff24d0c253be88f9850e777d838abb7174903d76b1516519f6789aa2910489b9c816040518082815260200191505060405180910390a15050565b61069061411f565b60018054806020026020016040519081016040528092919081815260200182805480156106dc57602002820191906000526020600020905b8154815260200190600101908083116106c8575b5050505050905090565b60004290503373ffffffffffffffffffffffffffffffffffffffff166003600084815260200190815260200160002060020160009054906101000a900473ffffffffffffffffffffffffffffffffffffffff1673ffffffffffffffffffffffffffffffffffffffff1614151561075b57600080fd5b6003600083815260200190815260200160002060080160009054906101000a900460ff16151561078a57600080fd5b6003600083815260200190815260200160002060080160019054906101000a900460ff161515156107ba57600080fd5b6003600083815260200190815260200160002060050154811115156107de57600080fd5b33600660006003600086815260200190815260200160002060070154815260200190815260200160002060010160006101000a81548173ffffffffffffffffffffffffffffffffffffffff021916908373ffffffffffffffffffffffffffffffffffffffff1602179055506000600660006003600086815260200190815260200160002060070154815260200190815260200160002060030160006101000a81548160ff02191690831515021790555060016003600084815260200190815260200160002060080160016101000a81548160ff0219169083151502179055507f218e83f0def1a3bd30ad9959bf2f3aba63bdba681cf9c513544b04e2a7b9841b826040518082815260200191505060405180910390a15050565b610900614133565b610908614147565b600080610913614133565b6000806000600660008d815260200190815260200160002060030160009054906101000a900460ff1615151561094857600080fd5b8a600660008e8152602001908152602001600020600201541015151561096d57600080fd5b3373ffffffffffffffffffffffffffffffffffffffff16600660008e815260200190815260200160002060010160009054906101000a900473ffffffffffffffffffffffffffffffffffffffff1673ffffffffffffffffffffffffffffffffffffffff161415156109dd57600080fd5b60018a101515156109ed57600080fd5b6109f6896116a1565b1515610a0157600080fd5b610a0a89611809565b9750610a1788606461192f565b809750819950829850505050610a668888602b815181101515610a3657fe5b906020019060200201516020015189602b815181101515610a5357fe5b9060200190602002015160600151612705565b9350610a73846004612808565b92508a8a6034620186a0340202811515610a8957fe5b04811515610a9357fe5b0491508282111515610aa457600080fd5b6103e8600260008154809291906001019190505501905060018054806001018281610acf919061415b565b916000526020600020900160008390919091505550610160604051908101604052808281526020013373ffffffffffffffffffffffffffffffffffffffff168152602001600073ffffffffffffffffffffffffffffffffffffffff1681526020018c815260200160008152602001600081526020018b81526020018d815260200160001515815260200160001515815260200134815250600360008381526020019081526020016000206000820151816000015560208201518160010160006101000a81548173ffffffffffffffffffffffffffffffffffffffff021916908373ffffffffffffffffffffffffffffffffffffffff16021790555060408201518160020160006101000a81548173ffffffffffffffffffffffffffffffffffffffff021916908373ffffffffffffffffffffffffffffffffffffffff160217905550606082015181600301556080820151816004015560a0820151816005015560c0820151816006015560e082015181600701556101008201518160080160006101000a81548160ff0219169083151502179055506101208201518160080160016101000a81548160ff02191690831515021790555061014082015181600901559050507f218e83f0def1a3bd30ad9959bf2f3aba63bdba681cf9c513544b04e2a7b9841b816040518082815260200191505060405180910390a1505050505050505050505050565b60066020528060005260406000206000915090508060000154908060010160009054906101000a900473ffffffffffffffffffffffffffffffffffffffff16908060020154908060030160009054906101000a900460ff16905084565b60008060009054906101000a900473ffffffffffffffffffffffffffffffffffffffff1673ffffffffffffffffffffffffffffffffffffffff163373ffffffffffffffffffffffffffffffffffffffff16141515610d9257600080fd5b6103e8600560008154809291906001019190505501905060048054806001018281610dbd919061415b565b9160005260206000209001600083909190915055506080604051908101604052808281526020018473ffffffffffffffffffffffffffffffffffffffff16815260200183815260200160001515815250600660008381526020019081526020016000206000820151816000015560208201518160010160006101000a81548173ffffffffffffffffffffffffffffffffffffffff021916908373ffffffffffffffffffffffffffffffffffffffff1602179055506040820151816002015560608201518160030160006101000a81548160ff0219169083151502179055509050507ff24d0c253be88f9850e777d838abb7174903d76b1516519f6789aa2910489b9c816040518082815260200191505060405180910390a1505050565b6000809054906101000a900473ffffffffffffffffffffffffffffffffffffffff1673ffffffffffffffffffffffffffffffffffffffff163373ffffffffffffffffffffffffffffffffffffffff16141515610f3557600080fd5b8060066000848152602001908152602001600020600201819055507ff24d0c253be88f9850e777d838abb7174903d76b1516519f6789aa2910489b9c826040518082815260200191505060405180910390a15050565b6000600554905090565b600360008281526020019081526020016000206003015434141515610fb957600080fd5b6003600082815260200190815260200160002060080160009054906101000a900460ff16151515610fe957600080fd5b6003600082815260200190815260200160002060010160009054906101000a900473ffffffffffffffffffffffffffffffffffffffff1673ffffffffffffffffffffffffffffffffffffffff166108fc349081150290604051600060405180830381858888f19350505050151561105f57600080fd5b3373ffffffffffffffffffffffffffffffffffffffff166108fc60036000848152602001908152602001600020600901549081150290604051600060405180830381858888f1935050505015156110b557600080fd5b60016003600083815260200190815260200160002060080160006101000a81548160ff021916908315150217905550336003600083815260200190815260200160002060020160006101000a81548173ffffffffffffffffffffffffffffffffffffffff021916908373ffffffffffffffffffffffffffffffffffffffff16021790555042600360008381526020019081526020016000206004018190555062093a80600360008381526020019081526020016000206006015402420160036000838152602001908152602001600020600501819055507f218e83f0def1a3bd30ad9959bf2f3aba63bdba681cf9c513544b04e2a7b9841b816040518082815260200191505060405180910390a150565b6000600254905090565b3373ffffffffffffffffffffffffffffffffffffffff166003600083815260200190815260200160002060010160009054906101000a900473ffffffffffffffffffffffffffffffffffffffff1673ffffffffffffffffffffffffffffffffffffffff1614151561124057600080fd5b34600360008381526020019081526020016000206003015414151561126457600080fd5b6003600082815260200190815260200160002060080160009054906101000a900460ff16151561129357600080fd5b6003600082815260200190815260200160002060050154421015156112b757600080fd5b6003600082815260200190815260200160002060020160009054906101000a900473ffffffffffffffffffffffffffffffffffffffff1673ffffffffffffffffffffffffffffffffffffffff166108fc349081150290604051600060405180830381858888f19350505050151561132d57600080fd5b60016003600083815260200190815260200160002060080160016101000a81548160ff0219169083151502179055506000600660006003600085815260200190815260200160002060070154815260200190815260200160002060030160006101000a81548160ff0219169083151502179055507f218e83f0def1a3bd30ad9959bf2f3aba63bdba681cf9c513544b04e2a7b9841b816040518082815260200191505060405180910390a150565b6003600082815260200190815260200160002060010160009054906101000a900473ffffffffffffffffffffffffffffffffffffffff1673ffffffffffffffffffffffffffffffffffffffff163373ffffffffffffffffffffffffffffffffffffffff1614151561144b57600080fd5b6003600082815260200190815260200160002060080160009054906101000a900460ff1615151561147b57600080fd5b6003600082815260200190815260200160002060080160019054906101000a900460ff161515156114ab57600080fd5b60016003600083815260200190815260200160002060080160016101000a81548160ff0219169083151502179055503373ffffffffffffffffffffffffffffffffffffffff166108fc60036000848152602001908152602001600020600901549081150290604051600060405180830381858888f19350505050151561153057600080fd5b7f218e83f0def1a3bd30ad9959bf2f3aba63bdba681cf9c513544b04e2a7b9841b816040518082815260200191505060405180910390a150565b60036020528060005260406000206000915090508060000154908060010160009054906101000a900473ffffffffffffffffffffffffffffffffffffffff16908060020160009054906101000a900473ffffffffffffffffffffffffffffffffffffffff16908060030154908060040154908060050154908060060154908060070154908060080160009054906101000a900460ff16908060080160019054906101000a900460ff1690806009015490508b565b61162661411f565b600480548060200260200160405190810160405280929190818152602001828054801561167257602002820191906000526020600020905b81548152602001906001019080831161165e575b5050505050905090565b6000809054906101000a900473ffffffffffffffffffffffffffffffffffffffff1681565b60008060007fe0a5793d275a533d50421b201c2c9a909abb58b1a9c0f9eb9b7963e5c8bc229591507ff34d47cb92b6474562675127677d4e446418498884c101aeb38f3afb0cab997e905073__tlsnutils_____________________________635569909f8584846000604051602001526040518463ffffffff167c01000000000000000000000000000000000000000000000000000000000281526004018080602001848152602001838152602001828103825285818151815260200191508051906020019080838360005b8381101561178957808201518184015260208101905061176e565b50505050905090810190601f1680156117b65780820380516001836020036101000a031916815260200191505b5094505050505060206040518083038186803b15156117d457600080fd5b6102c65a03f415156117e557600080fd5b50505060405180519050156117fd5760019250611802565b600092505b5050919050565b611811614187565b611819614187565b61182161419b565b61182961419b565b61183285612be7565b9250611850600f61184285612c23565b612c5190919063ffffffff16565b91506118a26118936040805190810160405280600f81526020017f485454502f312e3120323030204f4b0000000000000000000000000000000000815250612c23565b83612c7990919063ffffffff16565b15156118ad57600080fd5b6119056118ee6040805190810160405280600481526020017f0d0a0d0a00000000000000000000000000000000000000000000000000000000815250612c23565b6118f785612c23565b612c8f90919063ffffffff16565b905061191b600482612ce190919063ffffffff16565b5061192581612d37565b9350505050919050565b6000611939614147565b6000611943614187565b61194b6141b5565b611953614147565b60008060008060006119636141d7565b6000808f9a506119728f612d95565b99509950896020015196505b8a518a6000015110156126e4578a8a6000015181518110151561199d57fe5b9060200101517f010000000000000000000000000000000000000000000000000000000000000090047f0100000000000000000000000000000000000000000000000000000000000000029450607b7f010000000000000000000000000000000000000000000000000000000000000002857effffffffffffffffffffffffffffffffffffffffffffffffffffffffffffff19161480611a815750605b7f010000000000000000000000000000000000000000000000000000000000000002857effffffffffffffffffffffffffffffffffffffffffffffffffffffffffffff1916145b15611bc1578680600101975050611a988a8a612e49565b93509350831515611ab65760038960008090509d509d509d506126f3565b7fffffffffffffffffffffffffffffffffffffffffffffffffffffffffffffffff8a60400151141515611b1557888a60400151815181101515611af557fe5b9060200190602002015160a001805180919060010160ff1660ff16815250505b607b7f010000000000000000000000000000000000000000000000000000000000000002857effffffffffffffffffffffffffffffffffffffffffffffffffffffffffffff191614611b68576002611b6b565b60015b83600001906004811115611b7b57fe5b90816004811115611b8857fe5b815250508960000151836020018181525050600183604001901515908115158152505060018a60200151038a60400181815250506126cf565b607d7f010000000000000000000000000000000000000000000000000000000000000002857effffffffffffffffffffffffffffffffffffffffffffffffffffffffffffff19161480611c585750605d7f010000000000000000000000000000000000000000000000000000000000000002857effffffffffffffffffffffffffffffffffffffffffffffffffffffffffffff1916145b15611e9857607d7f010000000000000000000000000000000000000000000000000000000000000002857effffffffffffffffffffffffffffffffffffffffffffffffffffffffffffff191614611cb0576002611cb3565b60015b91506000905060018a602001510395505b600086101515611dc7578886815181101515611cdc57fe5b90602001906020020151925082604001518015611cfb57508260800151155b15611db957816004811115611d0c57fe5b83600001516004811115611d1c57fe5b141515611d365760018960008090509d509d509d506126f3565b7fffffffffffffffffffffffffffffffffffffffffffffffffffffffffffffffff8a604001818152505060018a60000151018987815181101515611d7657fe5b90602001906020020151606001818152505060018987815181101515611d9857fe5b90602001906020020151608001901515908115158152505060019050611dc7565b858060019003965050611cc4565b801515611de15760018960008090509d509d509d506126f3565b5b6000861115611e3a578886815181101515611df957fe5b90602001906020020151925082604001518015611e1857508260800151155b15611e2c57858a6040018181525050611e3a565b858060019003965050611de2565b6000861415611e93578886815181101515611e5157fe5b90602001906020020151925082604001518015611e7057508260800151155b15611e9257856fffffffffffffffffffffffffffffffff168a60400181815250505b5b6126cf565b7f2200000000000000000000000000000000000000000000000000000000000000857effffffffffffffffffffffffffffffffffffffffffffffffffffffffffffff19161415611f7757611eed8a8a8d612f1b565b9750600088141515611f0b57878960008090509d509d509d506126f3565b86806001019750507fffffffffffffffffffffffffffffffffffffffffffffffffffffffffffffffff8a60400151141515611f7257888a60400151815181101515611f5257fe5b9060200190602002015160a001805180919060010160ff1660ff16815250505b6126cf565b7f2000000000000000000000000000000000000000000000000000000000000000857effffffffffffffffffffffffffffffffffffffffffffffffffffffffffffff1916148061200b575060117f010000000000000000000000000000000000000000000000000000000000000002857effffffffffffffffffffffffffffffffffffffffffffffffffffffffffffff1916145b8061205a575060127f010000000000000000000000000000000000000000000000000000000000000002857effffffffffffffffffffffffffffffffffffffffffffffffffffffffffffff1916145b806120a9575060147f010000000000000000000000000000000000000000000000000000000000000002857effffffffffffffffffffffffffffffffffffffffffffffffffffffffffffff1916145b156120b3576126cf565b7f3a00000000000000000000000000000000000000000000000000000000000000857effffffffffffffffffffffffffffffffffffffffffffffffffffffffffffff191614156121135760018a60200151038a60400181815250506126cf565b7f2c00000000000000000000000000000000000000000000000000000000000000857effffffffffffffffffffffffffffffffffffffffffffffffffffffffffffff19161415612303577fffffffffffffffffffffffffffffffffffffffffffffffffffffffffffffffff8a60400151141580156121c757506002600481111561219957fe5b898b604001518151811015156121ab57fe5b906020019060200201516000015160048111156121c457fe5b14155b80156122095750600160048111156121db57fe5b898b604001518151811015156121ed57fe5b9060200190602002015160000151600481111561220657fe5b14155b156122fe5760018a602001510395505b6000861015156122fd576002600481111561223057fe5b898781518110151561223e57fe5b9060200190602002015160000151600481111561225757fe5b148061229457506001600481111561226b57fe5b898781518110151561227957fe5b9060200190602002015160000151600481111561229257fe5b145b156122ef5788868151811015156122a757fe5b906020019060200201516040015180156122da575088868151811015156122ca57fe5b9060200190602002015160800151155b156122ee57858a60400181815250506122fd565b5b858060019003965050612219565b5b6126cf565b7f3000000000000000000000000000000000000000000000000000000000000000857effffffffffffffffffffffffffffffffffffffffffffffffffffffffffffff19161015801561239757507f3900000000000000000000000000000000000000000000000000000000000000857effffffffffffffffffffffffffffffffffffffffffffffffffffffffffffff191611155b806123e357507f2d00000000000000000000000000000000000000000000000000000000000000857effffffffffffffffffffffffffffffffffffffffffffffffffffffffffffff1916145b8061242f57507f6600000000000000000000000000000000000000000000000000000000000000857effffffffffffffffffffffffffffffffffffffffffffffffffffffffffffff1916145b8061247b57507f7400000000000000000000000000000000000000000000000000000000000000857effffffffffffffffffffffffffffffffffffffffffffffffffffffffffffff1916145b806124c757507f6e00000000000000000000000000000000000000000000000000000000000000857effffffffffffffffffffffffffffffffffffffffffffffffffffffffffffff1916145b1561261c577fffffffffffffffffffffffffffffffffffffffffffffffffffffffffffffffff8a6040015114151561258757888a6040015181518110151561250b57fe5b9060200190602002015192506001600481111561252457fe5b8360000151600481111561253457fe5b148061256e57506003600481111561254857fe5b8360000151600481111561255857fe5b14801561256d575060008360a0015160ff1614155b5b156125865760018960008090509d509d509d506126f3565b5b6125928a8a8d613632565b97506000881415156125b057878960008090509d509d509d506126f3565b86806001019750507fffffffffffffffffffffffffffffffffffffffffffffffffffffffffffffffff8a6040015114151561261757888a604001518151811015156125f757fe5b9060200190602002015160a001805180919060010160ff1660ff16815250505b6126cf565b60207f010000000000000000000000000000000000000000000000000000000000000002857effffffffffffffffffffffffffffffffffffffffffffffffffffffffffffff1916101580156126b65750607e7f010000000000000000000000000000000000000000000000000000000000000002857effffffffffffffffffffffffffffffffffffffffffffffffffffffffffffff191611155b156126ce5760018960008090509d509d509d506126f3565b5b8960000180518091906001018152505061197e565b6000898b602001519d509d509d505b50505050505050505050509250925092565b61270d614133565b612715614187565b61271d614187565b60008692508585036040518059106127325750595b9080825280601f01601f191660200182016040525091508590505b848110156127fb57828181518110151561276357fe5b9060200101517f010000000000000000000000000000000000000000000000000000000000000090047f010000000000000000000000000000000000000000000000000000000000000002828783038151811015156127be57fe5b9060200101907effffffffffffffffffffffffffffffffffffffffffffffffffffffffffffff1916908160001a905350808060010191505061274d565b8193505050509392505050565b6000612812614187565b600080600080879450600093506000925060009150600090505b8451811015612b9b576000811480156128de57507f2d00000000000000000000000000000000000000000000000000000000000000858281518110151561286f57fe5b9060200101517f010000000000000000000000000000000000000000000000000000000000000090047f0100000000000000000000000000000000000000000000000000000000000000027effffffffffffffffffffffffffffffffffffffffffffffffffffffffffffff1916145b156128e857600191505b60307f010000000000000000000000000000000000000000000000000000000000000002858281518110151561291a57fe5b9060200101517f010000000000000000000000000000000000000000000000000000000000000090047f0100000000000000000000000000000000000000000000000000000000000000027effffffffffffffffffffffffffffffffffffffffffffffffffffffffffffff191610158015612a32575060397f01000000000000000000000000000000000000000000000000000000000000000285828151811015156129c257fe5b9060200101517f010000000000000000000000000000000000000000000000000000000000000090047f0100000000000000000000000000000000000000000000000000000000000000027effffffffffffffffffffffffffffffffffffffffffffffffffffffffffffff191611155b15612ae3578215612a55576000871415612a4b57612b9b565b8680600190039750505b600a8402935060308582815181101515612a6b57fe5b9060200101517f010000000000000000000000000000000000000000000000000000000000000090047f0100000000000000000000000000000000000000000000000000000000000000027f010000000000000000000000000000000000000000000000000000000000000090040384019350612b8e565b602e7f0100000000000000000000000000000000000000000000000000000000000000028582815181101515612b1557fe5b9060200101517f010000000000000000000000000000000000000000000000000000000000000090047f0100000000000000000000000000000000000000000000000000000000000000027effffffffffffffffffffffffffffffffffffffffffffffffffffffffffffff19161415612b8d57600192505b5b808060010191505061282c565b6000871115612bad5786600a0a840293505b8115612bd9577fffffffffffffffffffffffffffffffffffffffffffffffffffffffffffffffff840293505b839550505050505092915050565b612bef614187565b612c1c8260017f010000000000000000000000000000000000000000000000000000000000000002613a14565b9050919050565b612c2b61419b565b600060208301905060408051908101604052808451815260200182815250915050919050565b612c5961419b565b8183600001511115612c7057818360000181815250505b82905092915050565b600080612c868484613e41565b14905092915050565b612c9761419b565b6000612cb58460000151856020015185600001518660200151613efb565b905083602001518103846000018181510391508181525050808460200181815250508391505092915050565b612ce961419b565b82600001518263ffffffff1611151515612d0257600080fd5b8163ffffffff168360200181815101915081815250508163ffffffff1683600001818151039150818152505082905092915050565b612d3f614187565b612d47614187565b60008360000151604051805910612d5b5750595b9080825280601f01601f19166020018201604052509150602082019050612d8b8185602001518660000151613fb7565b8192505050919050565b612d9d6141b5565b612da5614147565b612dad6141b5565b612db5614147565b60606040519081016040528060008152602001600081526020017fffffffffffffffffffffffffffffffffffffffffffffffffffffffffffffffff815250915084604051805910612e035750595b908082528060200260200182016040528015612e3957816020015b612e26614220565b815260200190600190039081612e1e5790505b5090508181935093505050915091565b6000612e536141d7565b612e5b6141d7565b83518560200151101515612e93576000846001865103815181101515612e7d57fe5b9060200190602002015180905092509250612f13565b60c06040519081016040528060006004811115612eac57fe5b81526020016000815260200160001515815260200160008152602001600015158152602001600060ff16815250905080848660200151815181101515612eee57fe5b9060200190602002018190525084602001805180919060010181525050600181925092505b509250929050565b600080600080612f296141d7565b87600001519350876000018051809190600101815250505b85518860000151101561361857858860000151815181101515612f6057fe5b9060200101517f010000000000000000000000000000000000000000000000000000000000000090047f01000000000000000000000000000000000000000000000000000000000000000292507f2200000000000000000000000000000000000000000000000000000000000000837effffffffffffffffffffffffffffffffffffffffffffffffffffffffffffff1916141561303c576130018888612e49565b9150915081151561301f578388600001818152505060039450613627565b613033816003600187018b60000151614002565b60009450613627565b605c7f010000000000000000000000000000000000000000000000000000000000000002837effffffffffffffffffffffffffffffffffffffffffffffffffffffffffffff1916148015613097575085516001896000015101105b1561360257876000018051809190600101815250507f22000000000000000000000000000000000000000000000000000000000000008689600001518151811015156130df57fe5b9060200101517f010000000000000000000000000000000000000000000000000000000000000090047f0100000000000000000000000000000000000000000000000000000000000000027effffffffffffffffffffffffffffffffffffffffffffffffffffffffffffff191614806131f557507f2f0000000000000000000000000000000000000000000000000000000000000086896000015181518110151561318657fe5b9060200101517f010000000000000000000000000000000000000000000000000000000000000090047f0100000000000000000000000000000000000000000000000000000000000000027effffffffffffffffffffffffffffffffffffffffffffffffffffffffffffff1916145b8061329d57507f5c0000000000000000000000000000000000000000000000000000000000000086896000015181518110151561322e57fe5b9060200101517f010000000000000000000000000000000000000000000000000000000000000090047f0100000000000000000000000000000000000000000000000000000000000000027effffffffffffffffffffffffffffffffffffffffffffffffffffffffffffff1916145b8061334557507f66000000000000000000000000000000000000000000000000000000000000008689600001518151811015156132d657fe5b9060200101517f010000000000000000000000000000000000000000000000000000000000000090047f0100000000000000000000000000000000000000000000000000000000000000027effffffffffffffffffffffffffffffffffffffffffffffffffffffffffffff1916145b806133ed57507f720000000000000000000000000000000000000000000000000000000000000086896000015181518110151561337e57fe5b9060200101517f010000000000000000000000000000000000000000000000000000000000000090047f0100000000000000000000000000000000000000000000000000000000000000027effffffffffffffffffffffffffffffffffffffffffffffffffffffffffffff1916145b8061349557507f6e0000000000000000000000000000000000000000000000000000000000000086896000015181518110151561342657fe5b9060200101517f010000000000000000000000000000000000000000000000000000000000000090047f0100000000000000000000000000000000000000000000000000000000000000027effffffffffffffffffffffffffffffffffffffffffffffffffffffffffffff1916145b8061353d57507f62000000000000000000000000000000000000000000000000000000000000008689600001518151811015156134ce57fe5b9060200101517f010000000000000000000000000000000000000000000000000000000000000090047f0100000000000000000000000000000000000000000000000000000000000000027effffffffffffffffffffffffffffffffffffffffffffffffffffffffffffff1916145b806135e557507f740000000000000000000000000000000000000000000000000000000000000086896000015181518110151561357657fe5b9060200101517f010000000000000000000000000000000000000000000000000000000000000090047f0100000000000000000000000000000000000000000000000000000000000000027effffffffffffffffffffffffffffffffffffffffffffffffffffffffffffff1916145b156135ef57613603565b8388600001818152505060019450613627565b5b87600001805180919060010181525050612f41565b83886000018181525050600294505b505050509392505050565b60008060008060006136426141d7565b60009450886000015193505b86518960000151101561399f5786896000015181518110151561366d57fe5b9060200101517f010000000000000000000000000000000000000000000000000000000000000090047f01000000000000000000000000000000000000000000000000000000000000000292507f2000000000000000000000000000000000000000000000000000000000000000837effffffffffffffffffffffffffffffffffffffffffffffffffffffffffffff1916148061374b57507f0900000000000000000000000000000000000000000000000000000000000000837effffffffffffffffffffffffffffffffffffffffffffffffffffffffffffff1916145b8061379757507f0a00000000000000000000000000000000000000000000000000000000000000837effffffffffffffffffffffffffffffffffffffffffffffffffffffffffffff1916145b806137e357507f0d00000000000000000000000000000000000000000000000000000000000000837effffffffffffffffffffffffffffffffffffffffffffffffffffffffffffff1916145b8061382f57507f2c00000000000000000000000000000000000000000000000000000000000000837effffffffffffffffffffffffffffffffffffffffffffffffffffffffffffff1916145b8061387e5750607d7f010000000000000000000000000000000000000000000000000000000000000002837effffffffffffffffffffffffffffffffffffffffffffffffffffffffffffff1916145b806138cd5750605d7f010000000000000000000000000000000000000000000000000000000000000002837effffffffffffffffffffffffffffffffffffffffffffffffffffffffffffff1916145b156138db576001945061399f565b60207f010000000000000000000000000000000000000000000000000000000000000002837effffffffffffffffffffffffffffffffffffffffffffffffffffffffffffff191610806139725750607f7f010000000000000000000000000000000000000000000000000000000000000002837effffffffffffffffffffffffffffffffffffffffffffffffffffffffffffff1916115b1561398a578389600001818152505060019550613a08565b8860000180518091906001018152505061364e565b8415156139b9578389600001818152505060029550613a08565b6139c38989612e49565b915091508115156139e1578389600001818152505060039550613a08565b6139f2816004868c60000151614002565b8860000180518091906001900381525050600095505b50505050509392505050565b613a1c614187565b613a24614187565b6000806000806000613a3461419b565b602060405190810160405280600081525096506060955089601b815181101515613a5a57fe5b9060200101517f010000000000000000000000000000000000000000000000000000000000000090047f0100000000000000000000000000000000000000000000000000000000000000027f01000000000000000000000000000000000000000000000000000000000000009004610100028a601a815181101515613adb57fe5b9060200101517f010000000000000000000000000000000000000000000000000000000000000090047f0100000000000000000000000000000000000000000000000000000000000000027f010000000000000000000000000000000000000000000000000000000000000090040186019550600093505b896007815181101515613b6257fe5b9060200101517f010000000000000000000000000000000000000000000000000000000000000090047f0100000000000000000000000000000000000000000000000000000000000000027f01000000000000000000000000000000000000000000000000000000000000009004610100028a6006815181101515613be357fe5b9060200101517f010000000000000000000000000000000000000000000000000000000000000090047f0100000000000000000000000000000000000000000000000000000000000000027f010000000000000000000000000000000000000000000000000000000000000090040161ffff168461ffff161015613e3157602186018a01519250826001600281101515613c7957fe5b1a7f0100000000000000000000000000000000000000000000000000000000000000027f0100000000000000000000000000000000000000000000000000000000000000900461010002836000600281101515613cd257fe5b1a7f0100000000000000000000000000000000000000000000000000000000000000027f01000000000000000000000000000000000000000000000000000000000000009004019150896003870161ffff16815181101515613d3057fe5b9060200101517f010000000000000000000000000000000000000000000000000000000000000090047f0100000000000000000000000000000000000000000000000000000000000000029450600486019550887effffffffffffffffffffffffffffffffffffffffffffffffffffffffffffff1916857effffffffffffffffffffffffffffffffffffffffffffffffffffffffffffff19161415613e1c57613dfc8261ffff16613dee8861ffff168d61407390919063ffffffff16565b612c5190919063ffffffff16565b9050613e1981613e0b89612c23565b6140a190919063ffffffff16565b96505b60108201860195508380600101945050613b53565b8697505050505050505092915050565b60008060008060008060008060008a6000015197508a600001518a600001511015613e6e57896000015197505b8a60200151965089602001519550600094505b87851015613edf5786519350855192508284141515613ec857600185896020030160080260020a03199150818316828516039050600081141515613ec757809850613eed565b5b602087019650602086019550602085019450613e81565b89600001518b600001510398505b505050505050505092915050565b60008060008060008887111515613fa557602087111515613f5c5760018760200360080260020a031980875116888b038a018a96505b818388511614613f5157600187019650806001880310613f31578b8b0196505b505050839450613fab565b8686209150879350600092505b86890383111515613fa4578684209050806000191682600019161415613f9157839450613fab565b6001840193508280600101935050613f69565b5b88880194505b50505050949350505050565b60005b602082101515613fdf5782518452602084019350602083019250602082039150613fba565b6001826020036101000a0390508019835116818551168181178652505050505050565b828460000190600481111561401357fe5b9081600481111561402057fe5b8152505081846020018181525050600184604001901515908115158152505080846060018181525050600184608001901515908115158152505060008460a0019060ff16908160ff168152505050505050565b61407b61419b565b61408361419b565b61408c84612c23565b90506140988184612ce1565b91505092915050565b6140a9614187565b6140b1614187565b600083600001518560000151016040518059106140cb5750595b9080825280601f01601f191660200182016040525091506020820190506140fb8186602001518760000151613fb7565b6141148560000151820185602001518660000151613fb7565b819250505092915050565b602060405190810160405280600081525090565b602060405190810160405280600081525090565b602060405190810160405280600081525090565b815481835581811511614182578183600052602060002091820191016141819190614269565b5b505050565b602060405190810160405280600081525090565b604080519081016040528060008152602001600081525090565b6060604051908101604052806000815260200160008152602001600081525090565b60c060405190810160405280600060048111156141f057fe5b81526020016000815260200160001515815260200160008152602001600015158152602001600060ff1681525090565b60c0604051908101604052806000600481111561423957fe5b81526020016000815260200160001515815260200160008152602001600015158152602001600060ff1681525090565b61428b91905b8082111561428757600081600090555060010161426f565b5090565b905600a165627a7a72305820bb0550a7792afd35d3665d0ec42c133fe17aba1d5c44d8865b61a2dacaf79ace0029",
  "source": "pragma solidity ^0.4.18;\nimport \"../installed_contracts/jsmnsol-lib/contracts/JsmnSolLib.sol\";\nimport \"../installed_contracts/bytesutils.sol\";\nimport \"../installed_contracts/tlsnutils.sol\";\n\ncontract Lending {\n\n  /***********************************/\n  /******* CONTRACT ATTRIBUTES *******/\n  /***********************************/\n\n  struct LendingContract {\n    uint lendingID;\n    address proposer;\n    address acceptor;\n    uint borrowedAmount;\n    uint startTime;\n    uint endTime;\n    uint lendingTimePeriod;\n    uint collateralAssetID;\n    bool filled;\n    bool deleted;\n    uint totalPremium;\n  }\n\n  struct AssetOwnership {\n    uint assetID;\n    address owner;\n    uint value;\n    bool borrowedAgainst;\n  }\n\n  address public master;\n\n  uint[] lendingIDs;\n  uint lendingContractCount;\n  mapping(uint => LendingContract) public allLendingContracts;\n\n  uint[] assetIDs;\n  uint assetCount;\n  mapping(uint => AssetOwnership) public allAssets;\n\n  /***********************************/\n  /************* MODIFIERS ***********/\n  /***********************************/\n\n  modifier isOwner() {\n    require(msg.sender == master);\n    _; // continue executing rest of method body\n  }\n\n  /***********************************/\n  /************** EVENTS *************/\n  /***********************************/\n\n  event AssetChange(uint assetID);\n  event LendingContractChange(uint lendingID);\n  event Status(uint a);\n\n  /***********************************/\n  /********* PUBLIC FUNCTIONS ********/\n  /***********************************/\n\n  /// @dev      Lending contract constructor sets initial lending contract count to 0\n  function Lending() public {\n    master = msg.sender;\n    lendingContractCount = 0;\n    assetCount = 0;\n  }\n\n  /// @dev                      Allows a user with an asset to request a loan\n  /// @param  _assetID          The json file passing the interest rate\n  /// @param  _borrowAmount     The amount wanted to be borrowed by the user\n  /// @param  _lending_period   The number of weeks the user wants to borrow the money for\n  /// @param  _hex_proof        The number of weeks the user wants to borrow the money for\n  function borrowFunds(uint _assetID, uint _borrowAmount, uint _lending_period, bytes memory _hex_proof) public payable {\n    require(!allAssets[_assetID].borrowedAgainst);\n    require(allAssets[_assetID].value >= _borrowAmount);\n    require(allAssets[_assetID].owner == msg.sender);\n    require(_lending_period >= 1);\n\n    // Verify the TLS-N Proof\n    require(verifyProof(_hex_proof));\n\n    // Parse the response body of the TLS-N proof\n    string memory body = string(tlsnutils.getHTTPBody(_hex_proof));\n    JsmnSolLib.Token[] memory tokens;\n    uint returnValue;\n    uint actualNum;\n    (returnValue, tokens, actualNum) = JsmnSolLib.parse(body, 100);\n\n    // Get the interest rate\n    string memory interest_string = JsmnSolLib.getBytes(body, tokens[43].start, tokens[43].end);\n    int interest_int = JsmnSolLib.parseInt(interest_string,4);\n\n    // Check the user has passed in the right premium to match the interest rate\n    uint yearly_premium = ((msg.value * 100000 * 52) / _lending_period)/_borrowAmount;\n    require(yearly_premium > uint(interest_int));\n\n    // Setup Contract\n    uint lendingID = (lendingContractCount++)+1000;\n    lendingIDs.push(lendingID);\n    allLendingContracts[lendingID] = LendingContract(lendingID, msg.sender, 0, _borrowAmount, 0, 0, _lending_period, _assetID, false, false, msg.value);\n    LendingContractChange(lendingID);\n  }\n\n  /// @dev                  Allows a user to lend funds to another user\n  /// @param  _lendingID    The ID of the lending contract to be fulfilled\n  function lendFunds(uint _lendingID) public payable {\n    require(msg.value == allLendingContracts[_lendingID].borrowedAmount);\n    require(!allLendingContracts[_lendingID].filled);\n    allLendingContracts[_lendingID].proposer.transfer(msg.value);\n    msg.sender.transfer(allLendingContracts[_lendingID].totalPremium);\n    allLendingContracts[_lendingID].filled = true;\n    allLendingContracts[_lendingID].acceptor = msg.sender;\n    allLendingContracts[_lendingID].startTime = now;\n    allLendingContracts[_lendingID].endTime = now + (allLendingContracts[_lendingID].lendingTimePeriod * 1 weeks);\n    LendingContractChange(_lendingID);\n  }\n\n  /// @dev                  Allows a user to cancel a loan if it has not been funded\n  /// @param  _lendingID    The ID of the lending contract to be cancelled\n  function cancelLoan(uint _lendingID) public payable {\n    require(msg.sender == allLendingContracts[_lendingID].proposer);\n    require(!allLendingContracts[_lendingID].filled);\n    require(!allLendingContracts[_lendingID].deleted);\n\n    allLendingContracts[_lendingID].deleted = true;\n    msg.sender.transfer(allLendingContracts[_lendingID].totalPremium);\n    LendingContractChange(_lendingID);\n  }\n\n  /// @dev                  Allows the original user who borrowed funds to pay the money back\n  /// @param  _lendingID    The ID of the lending contract to be paid back\n  function payFundsBack(uint _lendingID) public payable {\n    require(allLendingContracts[_lendingID].proposer == msg.sender);\n    require(allLendingContracts[_lendingID].borrowedAmount == msg.value);\n    require(allLendingContracts[_lendingID].filled);\n    require(now < allLendingContracts[_lendingID].endTime);\n\n    allLendingContracts[_lendingID].acceptor.transfer(msg.value);\n    allLendingContracts[_lendingID].deleted = true;\n    allAssets[allLendingContracts[_lendingID].collateralAssetID].borrowedAgainst = false;\n    LendingContractChange(_lendingID);\n  }\n\n  /// @dev                  Allows a lender to report a late payment\n  /// @param  _lendingID    The ID of the lending contract that has not been paid\n  function reportLatePayment(uint _lendingID) public payable {\n    uint time = now;\n    require(allLendingContracts[_lendingID].acceptor == msg.sender);\n    require(allLendingContracts[_lendingID].filled);\n    require(!allLendingContracts[_lendingID].deleted);\n    require(time > allLendingContracts[_lendingID].endTime);\n\n    allAssets[allLendingContracts[_lendingID].collateralAssetID].owner = msg.sender;\n    allAssets[allLendingContracts[_lendingID].collateralAssetID].borrowedAgainst = false;\n    allLendingContracts[_lendingID].deleted = true;\n    LendingContractChange(_lendingID);\n  }\n\n  /// @dev                  Allows the owner of the contract to add assets\n  /// @param  _owner        The address of the owner of the asset\n  /// @param  _value        The value of the asset being added\n  function addAsset(address _owner, uint _value) public isOwner {\n    uint assetID = (assetCount++)+1000;\n    assetIDs.push(assetID);\n    allAssets[assetID] = AssetOwnership(assetID, _owner, _value, false);\n    AssetChange(assetID);\n  }\n\n  /// @dev                  Allows the owner of the contract or the owner of the asset to transfer ownership\n  /// @param  _recipient    The address of the recipient of the asset\n  /// @param  _assetID      The ID of the asset to be transferred\n  function transferOwnership(address _recipient, uint _assetID) public {\n    require(allAssets[_assetID].owner == msg.sender || msg.sender == master);\n    allAssets[_assetID].owner = _recipient;\n    AssetChange(_assetID);\n  }\n\n  /// @dev                  Allows the owner of the contract to change the value of an asset\n  /// @param  _assetID      The ID of the asset to be re-valued\n  /// @param  _new_value    The new value of the asset\n  function changeValue(uint _assetID, uint _new_value) public isOwner {\n    allAssets[_assetID].value = _new_value;\n    AssetChange(_assetID);\n  }\n\n  /// @dev       Allows requestor to return all lending IDs\n  /// @return    Returns the lending IDs of every outstanding lending contract\n  function getLendingIds() public constant returns (uint[]) {\n    return lendingIDs;\n  }\n\n  /// @dev       Allows requestor to return all asset IDs\n  /// @return    Returns the asset IDs of every asset in the contract\n  function getAssetIds() public constant returns (uint[]) {\n    return assetIDs;\n  }\n\n  /// @dev       Allows requestor to return the number of outstanding lending contracts\n  /// @return    Returns the number of lending contracts outstanding\n  function getLendingContractCount() public constant returns (uint) {\n    return lendingContractCount;\n  }\n\n  /// @dev       Allows requestor to return the number of assets\n  /// @return    Returns the number of assets in the contract\n  function getAssetCount() public constant returns (uint) {\n    return assetCount;\n  }\n\n  /***********************************/\n  /******** PRIVATE FUNCTIONS ********/\n  /***********************************/\n\n  /// @dev       Allows requestor to return whether a proof verifies or not\n  /// @return    Returns a boolean value if the proof passes or not\n  function verifyProof(bytes memory proof) private returns (bool){\n    uint qx = 0xe0a5793d275a533d50421b201c2c9a909abb58b1a9c0f9eb9b7963e5c8bc2295;\n    uint qy = 0xf34d47cb92b6474562675127677d4e446418498884c101aeb38f3afb0cab997e;\n    if(tlsnutils.verifyProof(proof, qx, qy)){\n      return true;\n    }\n    return false;\n  }\n}\n",
  "sourcePath": "/home/mohammed/dev/imperial/Lending-With-Smart-Contracts/contracts/Lending.sol",
  "compiler": {
    "name": "solc",
    "version": "0.4.18+commit.9cf6e910.Emscripten.clang"
  },
  "schemaVersion": "1.0.1",
  "updatedAt": "2018-05-16T10:39:20.383Z"
}