{
  "contractName": "Lending",
  "abi": [
    {
      "constant": true,
      "inputs": [
        {
          "name": "",
          "type": "uint256"
        }
      ],
      "name": "allAssets",
      "outputs": [
        {
          "name": "assetID",
          "type": "uint256"
        },
        {
          "name": "owner",
          "type": "address"
        },
        {
          "name": "value",
          "type": "uint256"
        },
        {
          "name": "borrowedAgainst",
          "type": "bool"
        }
      ],
      "payable": false,
      "stateMutability": "view",
      "type": "function"
    },
    {
      "constant": true,
      "inputs": [
        {
          "name": "",
          "type": "uint256"
        }
      ],
      "name": "allLendingContracts",
      "outputs": [
        {
          "name": "lendingID",
          "type": "uint256"
        },
        {
          "name": "proposer",
          "type": "address"
        },
        {
          "name": "acceptor",
          "type": "address"
        },
        {
          "name": "borrowedAmount",
          "type": "uint256"
        },
        {
          "name": "startTime",
          "type": "uint256"
        },
        {
          "name": "endTime",
          "type": "uint256"
        },
        {
          "name": "lendingTimePeriod",
          "type": "uint256"
        },
        {
          "name": "collateralAssetID",
          "type": "uint256"
        },
        {
          "name": "filled",
          "type": "bool"
        },
        {
          "name": "deleted",
          "type": "bool"
        },
        {
          "name": "totalPremium",
          "type": "uint256"
        }
      ],
      "payable": false,
      "stateMutability": "view",
      "type": "function"
    },
    {
      "constant": true,
      "inputs": [],
      "name": "master",
      "outputs": [
        {
          "name": "",
          "type": "address"
        }
      ],
      "payable": false,
      "stateMutability": "view",
      "type": "function"
    },
    {
      "inputs": [],
      "payable": false,
      "stateMutability": "nonpayable",
      "type": "constructor"
    },
    {
      "anonymous": false,
      "inputs": [
        {
          "indexed": false,
          "name": "assetID",
          "type": "uint256"
        }
      ],
      "name": "AssetChange",
      "type": "event"
    },
    {
      "anonymous": false,
      "inputs": [
        {
          "indexed": false,
          "name": "lendingID",
          "type": "uint256"
        }
      ],
      "name": "LendingContractChange",
      "type": "event"
    },
    {
      "anonymous": false,
      "inputs": [
        {
          "indexed": false,
          "name": "premiumAmount",
          "type": "uint256"
        }
      ],
      "name": "Premium",
      "type": "event"
    },
    {
      "constant": false,
      "inputs": [
        {
          "name": "_assetID",
          "type": "uint256"
        },
        {
          "name": "_borrowAmount",
          "type": "uint256"
        },
        {
          "name": "_lending_period",
          "type": "uint256"
        },
        {
          "name": "_hex_proof",
          "type": "bytes"
        }
      ],
      "name": "borrowFunds",
      "outputs": [],
      "payable": true,
      "stateMutability": "payable",
      "type": "function"
    },
    {
      "constant": false,
      "inputs": [
        {
          "name": "_lendingID",
          "type": "uint256"
        }
      ],
      "name": "lendFunds",
      "outputs": [],
      "payable": true,
      "stateMutability": "payable",
      "type": "function"
    },
    {
      "constant": false,
      "inputs": [
        {
          "name": "_lendingID",
          "type": "uint256"
        }
      ],
      "name": "payFundsBack",
      "outputs": [],
      "payable": true,
      "stateMutability": "payable",
      "type": "function"
    },
    {
      "constant": false,
      "inputs": [
        {
          "name": "_lendingID",
          "type": "uint256"
        }
      ],
      "name": "reportLatePayment",
      "outputs": [],
      "payable": true,
      "stateMutability": "payable",
      "type": "function"
    },
    {
      "constant": false,
      "inputs": [
        {
          "name": "_owner",
          "type": "address"
        },
        {
          "name": "_value",
          "type": "uint256"
        }
      ],
      "name": "addAsset",
      "outputs": [],
      "payable": false,
      "stateMutability": "nonpayable",
      "type": "function"
    },
    {
      "constant": false,
      "inputs": [
        {
          "name": "_recipient",
          "type": "address"
        },
        {
          "name": "_assetID",
          "type": "uint256"
        }
      ],
      "name": "transferOwnership",
      "outputs": [],
      "payable": false,
      "stateMutability": "nonpayable",
      "type": "function"
    },
    {
      "constant": false,
      "inputs": [
        {
          "name": "_assetID",
          "type": "uint256"
        },
        {
          "name": "_new_value",
          "type": "uint256"
        }
      ],
      "name": "changeValue",
      "outputs": [],
      "payable": false,
      "stateMutability": "nonpayable",
      "type": "function"
    },
    {
      "constant": true,
      "inputs": [],
      "name": "getLendingIds",
      "outputs": [
        {
          "name": "",
          "type": "uint256[]"
        }
      ],
      "payable": false,
      "stateMutability": "view",
      "type": "function"
    },
    {
      "constant": true,
      "inputs": [],
      "name": "getAssetIds",
      "outputs": [
        {
          "name": "",
          "type": "uint256[]"
        }
      ],
      "payable": false,
      "stateMutability": "view",
      "type": "function"
    },
    {
      "constant": true,
      "inputs": [],
      "name": "getLendingContractCount",
      "outputs": [
        {
          "name": "",
          "type": "uint256"
        }
      ],
      "payable": false,
      "stateMutability": "view",
      "type": "function"
    },
    {
      "constant": true,
      "inputs": [],
      "name": "getAssetCount",
      "outputs": [
        {
          "name": "",
          "type": "uint256"
        }
      ],
      "payable": false,
      "stateMutability": "view",
      "type": "function"
    }
  ],
  "bytecode": "0x6060604052341561000f57600080fd5b336000806101000a81548173ffffffffffffffffffffffffffffffffffffffff021916908373ffffffffffffffffffffffffffffffffffffffff1602179055506000600281905550600060058190555061403f8061006e6000396000f3006060604052600436106100d0576000357c0100000000000000000000000000000000000000000000000000000000900463ffffffff1680630a276680146100d5578063179fd7631461011757806333a10c9f1461018157806334b44db214610199578063578e5c221461020657806366a6a4bd146102825780638709b2e7146102c4578063a0aead4d146102f0578063aa2d572114610319578063b0ffd24014610331578063b3798b941461035a578063c172da6014610372578063e47e1c0b1461044f578063ee97f7f3146104b9575b600080fd5b34156100e057600080fd5b610115600480803573ffffffffffffffffffffffffffffffffffffffff1690602001909190803590602001909190505061050e565b005b341561012257600080fd5b61012a61062e565b6040518080602001828103825283818151815260200191508051906020019060200280838360005b8381101561016d578082015181840152602081019050610152565b505050509050019250505060405180910390f35b610197600480803590602001909190505061068c565b005b610204600480803590602001909190803590602001909190803590602001909190803590602001908201803590602001908080601f01602080910402602001604051908101604052809392919081815260200183838082843782019150505050505091905050610867565b005b341561021157600080fd5b6102276004808035906020019091905050610c6a565b604051808581526020018473ffffffffffffffffffffffffffffffffffffffff1673ffffffffffffffffffffffffffffffffffffffff1681526020018381526020018215151515815260200194505050505060405180910390f35b341561028d57600080fd5b6102c2600480803573ffffffffffffffffffffffffffffffffffffffff16906020019091908035906020019091905050610cc7565b005b34156102cf57600080fd5b6102ee6004808035906020019091908035906020019091905050610e6c565b005b34156102fb57600080fd5b610303610ee6565b6040518082815260200191505060405180910390f35b61032f6004808035906020019091905050610ef0565b005b341561033c57600080fd5b6103446110ea565b6040518082815260200191505060405180910390f35b61037060048080359060200190919050506110f4565b005b341561037d57600080fd5b61039360048080359060200190919050506112db565b604051808c81526020018b73ffffffffffffffffffffffffffffffffffffffff1673ffffffffffffffffffffffffffffffffffffffff1681526020018a73ffffffffffffffffffffffffffffffffffffffff1673ffffffffffffffffffffffffffffffffffffffff16815260200189815260200188815260200187815260200186815260200185815260200184151515158152602001831515151581526020018281526020019b50505050505050505050505060405180910390f35b341561045a57600080fd5b61046261138f565b6040518080602001828103825283818151815260200191508051906020019060200280838360005b838110156104a557808201518184015260208101905061048a565b505050509050019250505060405180910390f35b34156104c457600080fd5b6104cc6113ed565b604051808273ffffffffffffffffffffffffffffffffffffffff1673ffffffffffffffffffffffffffffffffffffffff16815260200191505060405180910390f35b3373ffffffffffffffffffffffffffffffffffffffff166006600083815260200190815260200160002060010160009054906101000a900473ffffffffffffffffffffffffffffffffffffffff1673ffffffffffffffffffffffffffffffffffffffff1614806105ca57506000809054906101000a900473ffffffffffffffffffffffffffffffffffffffff1673ffffffffffffffffffffffffffffffffffffffff163373ffffffffffffffffffffffffffffffffffffffff16145b15156105d557600080fd5b816006600083815260200190815260200160002060010160006101000a81548173ffffffffffffffffffffffffffffffffffffffff021916908373ffffffffffffffffffffffffffffffffffffffff1602179055505050565b610636613ea4565b600180548060200260200160405190810160405280929190818152602001828054801561068257602002820191906000526020600020905b81548152602001906001019080831161066e575b5050505050905090565b60004290503373ffffffffffffffffffffffffffffffffffffffff166003600084815260200190815260200160002060020160009054906101000a900473ffffffffffffffffffffffffffffffffffffffff1673ffffffffffffffffffffffffffffffffffffffff1614151561070157600080fd5b6003600083815260200190815260200160002060080160009054906101000a900460ff16151561073057600080fd5b6003600083815260200190815260200160002060080160019054906101000a900460ff1615151561076057600080fd5b60036000838152602001908152602001600020600501548111151561078457600080fd5b33600660006003600086815260200190815260200160002060070154815260200190815260200160002060010160006101000a81548173ffffffffffffffffffffffffffffffffffffffff021916908373ffffffffffffffffffffffffffffffffffffffff1602179055506000600660006003600086815260200190815260200160002060070154815260200190815260200160002060030160006101000a81548160ff02191690831515021790555060016003600084815260200190815260200160002060080160016101000a81548160ff0219169083151502179055505050565b61086f613eb8565b610877613ecc565b600080610882613eb8565b6000806000600660008d815260200190815260200160002060030160009054906101000a900460ff161515156108b757600080fd5b8a600660008e815260200190815260200160002060020154101515156108dc57600080fd5b3373ffffffffffffffffffffffffffffffffffffffff16600660008e815260200190815260200160002060010160009054906101000a900473ffffffffffffffffffffffffffffffffffffffff1673ffffffffffffffffffffffffffffffffffffffff1614151561094c57600080fd5b61095589611412565b151561096057600080fd5b6109698961157a565b97506109768860646116a0565b8097508199508298505050506109c58888602b81518110151561099557fe5b906020019060200201516020015189602b8151811015156109b257fe5b9060200190602002015160600151612476565b93506109d084612579565b92508a8a603460643402028115156109e457fe5b048115156109ee57fe5b0491507f9e91d029d367c9c2046fa6df2190768ce774eb09c9c64e16109731e29089a35f826040518082815260200191505060405180910390a18282141515610a3657600080fd5b6103e8600260008154809291906001019190505501905060018054806001018281610a619190613ee0565b916000526020600020900160008390919091505550610160604051908101604052808281526020013373ffffffffffffffffffffffffffffffffffffffff168152602001600073ffffffffffffffffffffffffffffffffffffffff1681526020018c815260200160008152602001600081526020018b81526020018d815260200160001515815260200160001515815260200134815250600360008381526020019081526020016000206000820151816000015560208201518160010160006101000a81548173ffffffffffffffffffffffffffffffffffffffff021916908373ffffffffffffffffffffffffffffffffffffffff16021790555060408201518160020160006101000a81548173ffffffffffffffffffffffffffffffffffffffff021916908373ffffffffffffffffffffffffffffffffffffffff160217905550606082015181600301556080820151816004015560a0820151816005015560c0820151816006015560e082015181600701556101008201518160080160006101000a81548160ff0219169083151502179055506101208201518160080160016101000a81548160ff02191690831515021790555061014082015181600901559050507f218e83f0def1a3bd30ad9959bf2f3aba63bdba681cf9c513544b04e2a7b9841b816040518082815260200191505060405180910390a1505050505050505050505050565b60066020528060005260406000206000915090508060000154908060010160009054906101000a900473ffffffffffffffffffffffffffffffffffffffff16908060020154908060030160009054906101000a900460ff16905084565b60008060009054906101000a900473ffffffffffffffffffffffffffffffffffffffff1673ffffffffffffffffffffffffffffffffffffffff163373ffffffffffffffffffffffffffffffffffffffff16141515610d2457600080fd5b6103e8600560008154809291906001019190505501905060048054806001018281610d4f9190613ee0565b9160005260206000209001600083909190915055506080604051908101604052808281526020018473ffffffffffffffffffffffffffffffffffffffff16815260200183815260200160001515815250600660008381526020019081526020016000206000820151816000015560208201518160010160006101000a81548173ffffffffffffffffffffffffffffffffffffffff021916908373ffffffffffffffffffffffffffffffffffffffff1602179055506040820151816002015560608201518160030160006101000a81548160ff0219169083151502179055509050507ff24d0c253be88f9850e777d838abb7174903d76b1516519f6789aa2910489b9c816040518082815260200191505060405180910390a1505050565b6000809054906101000a900473ffffffffffffffffffffffffffffffffffffffff1673ffffffffffffffffffffffffffffffffffffffff163373ffffffffffffffffffffffffffffffffffffffff16141515610ec757600080fd5b8060066000848152602001908152602001600020600201819055505050565b6000600554905090565b600360008281526020019081526020016000206003015434141515610f1457600080fd5b6003600082815260200190815260200160002060080160009054906101000a900460ff16151515610f4457600080fd5b6003600082815260200190815260200160002060010160009054906101000a900473ffffffffffffffffffffffffffffffffffffffff1673ffffffffffffffffffffffffffffffffffffffff166108fc349081150290604051600060405180830381858888f193505050501515610fba57600080fd5b3373ffffffffffffffffffffffffffffffffffffffff166108fc60036000848152602001908152602001600020600901549081150290604051600060405180830381858888f19350505050151561101057600080fd5b60016003600083815260200190815260200160002060080160006101000a81548160ff021916908315150217905550336003600083815260200190815260200160002060020160006101000a81548173ffffffffffffffffffffffffffffffffffffffff021916908373ffffffffffffffffffffffffffffffffffffffff16021790555042600360008381526020019081526020016000206004018190555062093a806003600083815260200190815260200160002060060154024201600360008381526020019081526020016000206005018190555050565b6000600254905090565b3373ffffffffffffffffffffffffffffffffffffffff166003600083815260200190815260200160002060010160009054906101000a900473ffffffffffffffffffffffffffffffffffffffff1673ffffffffffffffffffffffffffffffffffffffff1614151561116457600080fd5b34600360008381526020019081526020016000206003015414151561118857600080fd5b6003600082815260200190815260200160002060080160009054906101000a900460ff1615156111b757600080fd5b6003600082815260200190815260200160002060050154421015156111db57600080fd5b6003600082815260200190815260200160002060020160009054906101000a900473ffffffffffffffffffffffffffffffffffffffff1673ffffffffffffffffffffffffffffffffffffffff166108fc349081150290604051600060405180830381858888f19350505050151561125157600080fd5b60016003600083815260200190815260200160002060080160016101000a81548160ff0219169083151502179055506000600660006003600085815260200190815260200160002060070154815260200190815260200160002060030160006101000a81548160ff0219169083151502179055506002600081548092919060019003919050555050565b60036020528060005260406000206000915090508060000154908060010160009054906101000a900473ffffffffffffffffffffffffffffffffffffffff16908060020160009054906101000a900473ffffffffffffffffffffffffffffffffffffffff16908060030154908060040154908060050154908060060154908060070154908060080160009054906101000a900460ff16908060080160019054906101000a900460ff1690806009015490508b565b611397613ea4565b60048054806020026020016040519081016040528092919081815260200182805480156113e357602002820191906000526020600020905b8154815260200190600101908083116113cf575b5050505050905090565b6000809054906101000a900473ffffffffffffffffffffffffffffffffffffffff1681565b60008060007fe0a5793d275a533d50421b201c2c9a909abb58b1a9c0f9eb9b7963e5c8bc229591507ff34d47cb92b6474562675127677d4e446418498884c101aeb38f3afb0cab997e905073__tlsnutils_____________________________635569909f8584846000604051602001526040518463ffffffff167c01000000000000000000000000000000000000000000000000000000000281526004018080602001848152602001838152602001828103825285818151815260200191508051906020019080838360005b838110156114fa5780820151818401526020810190506114df565b50505050905090810190601f1680156115275780820380516001836020036101000a031916815260200191505b5094505050505060206040518083038186803b151561154557600080fd5b6102c65a03f4151561155657600080fd5b505050604051805190501561156e5760019250611573565b600092505b5050919050565b611582613f0c565b61158a613f0c565b611592613f20565b61159a613f20565b6115a38561258d565b92506115c1600f6115b3856125c9565b6125f790919063ffffffff16565b91506116136116046040805190810160405280600f81526020017f485454502f312e3120323030204f4b00000000000000000000000000000000008152506125c9565b8361261f90919063ffffffff16565b151561161e57600080fd5b61167661165f6040805190810160405280600481526020017f0d0a0d0a000000000000000000000000000000000000000000000000000000008152506125c9565b611668856125c9565b61263590919063ffffffff16565b905061168c60048261268790919063ffffffff16565b50611696816126dd565b9350505050919050565b60006116aa613ecc565b60006116b4613f0c565b6116bc613f3a565b6116c4613ecc565b60008060008060006116d4613f5c565b6000808f9a506116e38f61273b565b99509950896020015196505b8a518a600001511015612455578a8a6000015181518110151561170e57fe5b9060200101517f010000000000000000000000000000000000000000000000000000000000000090047f0100000000000000000000000000000000000000000000000000000000000000029450607b7f010000000000000000000000000000000000000000000000000000000000000002857effffffffffffffffffffffffffffffffffffffffffffffffffffffffffffff191614806117f25750605b7f010000000000000000000000000000000000000000000000000000000000000002857effffffffffffffffffffffffffffffffffffffffffffffffffffffffffffff1916145b156119325786806001019750506118098a8a6127ef565b935093508315156118275760038960008090509d509d509d50612464565b7fffffffffffffffffffffffffffffffffffffffffffffffffffffffffffffffff8a6040015114151561188657888a6040015181518110151561186657fe5b9060200190602002015160a001805180919060010160ff1660ff16815250505b607b7f010000000000000000000000000000000000000000000000000000000000000002857effffffffffffffffffffffffffffffffffffffffffffffffffffffffffffff1916146118d95760026118dc565b60015b836000019060048111156118ec57fe5b908160048111156118f957fe5b815250508960000151836020018181525050600183604001901515908115158152505060018a60200151038a6040018181525050612440565b607d7f010000000000000000000000000000000000000000000000000000000000000002857effffffffffffffffffffffffffffffffffffffffffffffffffffffffffffff191614806119c95750605d7f010000000000000000000000000000000000000000000000000000000000000002857effffffffffffffffffffffffffffffffffffffffffffffffffffffffffffff1916145b15611c0957607d7f010000000000000000000000000000000000000000000000000000000000000002857effffffffffffffffffffffffffffffffffffffffffffffffffffffffffffff191614611a21576002611a24565b60015b91506000905060018a602001510395505b600086101515611b38578886815181101515611a4d57fe5b90602001906020020151925082604001518015611a6c57508260800151155b15611b2a57816004811115611a7d57fe5b83600001516004811115611a8d57fe5b141515611aa75760018960008090509d509d509d50612464565b7fffffffffffffffffffffffffffffffffffffffffffffffffffffffffffffffff8a604001818152505060018a60000151018987815181101515611ae757fe5b90602001906020020151606001818152505060018987815181101515611b0957fe5b90602001906020020151608001901515908115158152505060019050611b38565b858060019003965050611a35565b801515611b525760018960008090509d509d509d50612464565b5b6000861115611bab578886815181101515611b6a57fe5b90602001906020020151925082604001518015611b8957508260800151155b15611b9d57858a6040018181525050611bab565b858060019003965050611b53565b6000861415611c04578886815181101515611bc257fe5b90602001906020020151925082604001518015611be157508260800151155b15611c0357856fffffffffffffffffffffffffffffffff168a60400181815250505b5b612440565b7f2200000000000000000000000000000000000000000000000000000000000000857effffffffffffffffffffffffffffffffffffffffffffffffffffffffffffff19161415611ce857611c5e8a8a8d6128c1565b9750600088141515611c7c57878960008090509d509d509d50612464565b86806001019750507fffffffffffffffffffffffffffffffffffffffffffffffffffffffffffffffff8a60400151141515611ce357888a60400151815181101515611cc357fe5b9060200190602002015160a001805180919060010160ff1660ff16815250505b612440565b7f2000000000000000000000000000000000000000000000000000000000000000857effffffffffffffffffffffffffffffffffffffffffffffffffffffffffffff19161480611d7c575060117f010000000000000000000000000000000000000000000000000000000000000002857effffffffffffffffffffffffffffffffffffffffffffffffffffffffffffff1916145b80611dcb575060127f010000000000000000000000000000000000000000000000000000000000000002857effffffffffffffffffffffffffffffffffffffffffffffffffffffffffffff1916145b80611e1a575060147f010000000000000000000000000000000000000000000000000000000000000002857effffffffffffffffffffffffffffffffffffffffffffffffffffffffffffff1916145b15611e2457612440565b7f3a00000000000000000000000000000000000000000000000000000000000000857effffffffffffffffffffffffffffffffffffffffffffffffffffffffffffff19161415611e845760018a60200151038a6040018181525050612440565b7f2c00000000000000000000000000000000000000000000000000000000000000857effffffffffffffffffffffffffffffffffffffffffffffffffffffffffffff19161415612074577fffffffffffffffffffffffffffffffffffffffffffffffffffffffffffffffff8a6040015114158015611f38575060026004811115611f0a57fe5b898b60400151815181101515611f1c57fe5b90602001906020020151600001516004811115611f3557fe5b14155b8015611f7a575060016004811115611f4c57fe5b898b60400151815181101515611f5e57fe5b90602001906020020151600001516004811115611f7757fe5b14155b1561206f5760018a602001510395505b60008610151561206e5760026004811115611fa157fe5b8987815181101515611faf57fe5b90602001906020020151600001516004811115611fc857fe5b1480612005575060016004811115611fdc57fe5b8987815181101515611fea57fe5b9060200190602002015160000151600481111561200357fe5b145b1561206057888681518110151561201857fe5b9060200190602002015160400151801561204b5750888681518110151561203b57fe5b9060200190602002015160800151155b1561205f57858a604001818152505061206e565b5b858060019003965050611f8a565b5b612440565b7f3000000000000000000000000000000000000000000000000000000000000000857effffffffffffffffffffffffffffffffffffffffffffffffffffffffffffff19161015801561210857507f3900000000000000000000000000000000000000000000000000000000000000857effffffffffffffffffffffffffffffffffffffffffffffffffffffffffffff191611155b8061215457507f2d00000000000000000000000000000000000000000000000000000000000000857effffffffffffffffffffffffffffffffffffffffffffffffffffffffffffff1916145b806121a057507f6600000000000000000000000000000000000000000000000000000000000000857effffffffffffffffffffffffffffffffffffffffffffffffffffffffffffff1916145b806121ec57507f7400000000000000000000000000000000000000000000000000000000000000857effffffffffffffffffffffffffffffffffffffffffffffffffffffffffffff1916145b8061223857507f6e00000000000000000000000000000000000000000000000000000000000000857effffffffffffffffffffffffffffffffffffffffffffffffffffffffffffff1916145b1561238d577fffffffffffffffffffffffffffffffffffffffffffffffffffffffffffffffff8a604001511415156122f857888a6040015181518110151561227c57fe5b9060200190602002015192506001600481111561229557fe5b836000015160048111156122a557fe5b14806122df5750600360048111156122b957fe5b836000015160048111156122c957fe5b1480156122de575060008360a0015160ff1614155b5b156122f75760018960008090509d509d509d50612464565b5b6123038a8a8d612fd8565b975060008814151561232157878960008090509d509d509d50612464565b86806001019750507fffffffffffffffffffffffffffffffffffffffffffffffffffffffffffffffff8a6040015114151561238857888a6040015181518110151561236857fe5b9060200190602002015160a001805180919060010160ff1660ff16815250505b612440565b60207f010000000000000000000000000000000000000000000000000000000000000002857effffffffffffffffffffffffffffffffffffffffffffffffffffffffffffff1916101580156124275750607e7f010000000000000000000000000000000000000000000000000000000000000002857effffffffffffffffffffffffffffffffffffffffffffffffffffffffffffff191611155b1561243f5760018960008090509d509d509d50612464565b5b896000018051809190600101815250506116ef565b6000898b602001519d509d509d505b50505050505050505050509250925092565b61247e613eb8565b612486613f0c565b61248e613f0c565b60008692508585036040518059106124a35750595b9080825280601f01601f191660200182016040525091508590505b8481101561256c5782818151811015156124d457fe5b9060200101517f010000000000000000000000000000000000000000000000000000000000000090047f0100000000000000000000000000000000000000000000000000000000000000028287830381518110151561252f57fe5b9060200101907effffffffffffffffffffffffffffffffffffffffffffffffffffffffffffff1916908160001a90535080806001019150506124be565b8193505050509392505050565b60006125868260006133ba565b9050919050565b612595613f0c565b6125c28260017f010000000000000000000000000000000000000000000000000000000000000002613799565b9050919050565b6125d1613f20565b600060208301905060408051908101604052808451815260200182815250915050919050565b6125ff613f20565b818360000151111561261657818360000181815250505b82905092915050565b60008061262c8484613bc6565b14905092915050565b61263d613f20565b600061265b8460000151856020015185600001518660200151613c80565b905083602001518103846000018181510391508181525050808460200181815250508391505092915050565b61268f613f20565b82600001518263ffffffff16111515156126a857600080fd5b8163ffffffff168360200181815101915081815250508163ffffffff1683600001818151039150818152505082905092915050565b6126e5613f0c565b6126ed613f0c565b600083600001516040518059106127015750595b9080825280601f01601f191660200182016040525091506020820190506127318185602001518660000151613d3c565b8192505050919050565b612743613f3a565b61274b613ecc565b612753613f3a565b61275b613ecc565b60606040519081016040528060008152602001600081526020017fffffffffffffffffffffffffffffffffffffffffffffffffffffffffffffffff8152509150846040518059106127a95750595b9080825280602002602001820160405280156127df57816020015b6127cc613fa5565b8152602001906001900390816127c45790505b5090508181935093505050915091565b60006127f9613f5c565b612801613f5c565b8351856020015110151561283957600084600186510381518110151561282357fe5b90602001906020020151809050925092506128b9565b60c0604051908101604052806000600481111561285257fe5b81526020016000815260200160001515815260200160008152602001600015158152602001600060ff1681525090508084866020015181518110151561289457fe5b9060200190602002018190525084602001805180919060010181525050600181925092505b509250929050565b6000806000806128cf613f5c565b87600001519350876000018051809190600101815250505b855188600001511015612fbe5785886000015181518110151561290657fe5b9060200101517f010000000000000000000000000000000000000000000000000000000000000090047f01000000000000000000000000000000000000000000000000000000000000000292507f2200000000000000000000000000000000000000000000000000000000000000837effffffffffffffffffffffffffffffffffffffffffffffffffffffffffffff191614156129e2576129a788886127ef565b915091508115156129c5578388600001818152505060039450612fcd565b6129d9816003600187018b60000151613d87565b60009450612fcd565b605c7f010000000000000000000000000000000000000000000000000000000000000002837effffffffffffffffffffffffffffffffffffffffffffffffffffffffffffff1916148015612a3d575085516001896000015101105b15612fa857876000018051809190600101815250507f2200000000000000000000000000000000000000000000000000000000000000868960000151815181101515612a8557fe5b9060200101517f010000000000000000000000000000000000000000000000000000000000000090047f0100000000000000000000000000000000000000000000000000000000000000027effffffffffffffffffffffffffffffffffffffffffffffffffffffffffffff19161480612b9b57507f2f00000000000000000000000000000000000000000000000000000000000000868960000151815181101515612b2c57fe5b9060200101517f010000000000000000000000000000000000000000000000000000000000000090047f0100000000000000000000000000000000000000000000000000000000000000027effffffffffffffffffffffffffffffffffffffffffffffffffffffffffffff1916145b80612c4357507f5c00000000000000000000000000000000000000000000000000000000000000868960000151815181101515612bd457fe5b9060200101517f010000000000000000000000000000000000000000000000000000000000000090047f0100000000000000000000000000000000000000000000000000000000000000027effffffffffffffffffffffffffffffffffffffffffffffffffffffffffffff1916145b80612ceb57507f6600000000000000000000000000000000000000000000000000000000000000868960000151815181101515612c7c57fe5b9060200101517f010000000000000000000000000000000000000000000000000000000000000090047f0100000000000000000000000000000000000000000000000000000000000000027effffffffffffffffffffffffffffffffffffffffffffffffffffffffffffff1916145b80612d9357507f7200000000000000000000000000000000000000000000000000000000000000868960000151815181101515612d2457fe5b9060200101517f010000000000000000000000000000000000000000000000000000000000000090047f0100000000000000000000000000000000000000000000000000000000000000027effffffffffffffffffffffffffffffffffffffffffffffffffffffffffffff1916145b80612e3b57507f6e00000000000000000000000000000000000000000000000000000000000000868960000151815181101515612dcc57fe5b9060200101517f010000000000000000000000000000000000000000000000000000000000000090047f0100000000000000000000000000000000000000000000000000000000000000027effffffffffffffffffffffffffffffffffffffffffffffffffffffffffffff1916145b80612ee357507f6200000000000000000000000000000000000000000000000000000000000000868960000151815181101515612e7457fe5b9060200101517f010000000000000000000000000000000000000000000000000000000000000090047f0100000000000000000000000000000000000000000000000000000000000000027effffffffffffffffffffffffffffffffffffffffffffffffffffffffffffff1916145b80612f8b57507f7400000000000000000000000000000000000000000000000000000000000000868960000151815181101515612f1c57fe5b9060200101517f010000000000000000000000000000000000000000000000000000000000000090047f0100000000000000000000000000000000000000000000000000000000000000027effffffffffffffffffffffffffffffffffffffffffffffffffffffffffffff1916145b15612f9557612fa9565b8388600001818152505060019450612fcd565b5b876000018051809190600101815250506128e7565b83886000018181525050600294505b505050509392505050565b6000806000806000612fe8613f5c565b60009450886000015193505b8651896000015110156133455786896000015181518110151561301357fe5b9060200101517f010000000000000000000000000000000000000000000000000000000000000090047f01000000000000000000000000000000000000000000000000000000000000000292507f2000000000000000000000000000000000000000000000000000000000000000837effffffffffffffffffffffffffffffffffffffffffffffffffffffffffffff191614806130f157507f0900000000000000000000000000000000000000000000000000000000000000837effffffffffffffffffffffffffffffffffffffffffffffffffffffffffffff1916145b8061313d57507f0a00000000000000000000000000000000000000000000000000000000000000837effffffffffffffffffffffffffffffffffffffffffffffffffffffffffffff1916145b8061318957507f0d00000000000000000000000000000000000000000000000000000000000000837effffffffffffffffffffffffffffffffffffffffffffffffffffffffffffff1916145b806131d557507f2c00000000000000000000000000000000000000000000000000000000000000837effffffffffffffffffffffffffffffffffffffffffffffffffffffffffffff1916145b806132245750607d7f010000000000000000000000000000000000000000000000000000000000000002837effffffffffffffffffffffffffffffffffffffffffffffffffffffffffffff1916145b806132735750605d7f010000000000000000000000000000000000000000000000000000000000000002837effffffffffffffffffffffffffffffffffffffffffffffffffffffffffffff1916145b156132815760019450613345565b60207f010000000000000000000000000000000000000000000000000000000000000002837effffffffffffffffffffffffffffffffffffffffffffffffffffffffffffff191610806133185750607f7f010000000000000000000000000000000000000000000000000000000000000002837effffffffffffffffffffffffffffffffffffffffffffffffffffffffffffff1916115b156133305783896000018181525050600195506133ae565b88600001805180919060010181525050612ff4565b84151561335f5783896000018181525050600295506133ae565b61336989896127ef565b915091508115156133875783896000018181525050600395506133ae565b613398816004868c60000151613d87565b8860000180518091906001900381525050600095505b50505050509392505050565b60006133c4613f0c565b600080600080879450600093506000925060009150600090505b845181101561374d5760008114801561349057507f2d00000000000000000000000000000000000000000000000000000000000000858281518110151561342157fe5b9060200101517f010000000000000000000000000000000000000000000000000000000000000090047f0100000000000000000000000000000000000000000000000000000000000000027effffffffffffffffffffffffffffffffffffffffffffffffffffffffffffff1916145b1561349a57600191505b60307f01000000000000000000000000000000000000000000000000000000000000000285828151811015156134cc57fe5b9060200101517f010000000000000000000000000000000000000000000000000000000000000090047f0100000000000000000000000000000000000000000000000000000000000000027effffffffffffffffffffffffffffffffffffffffffffffffffffffffffffff1916101580156135e4575060397f010000000000000000000000000000000000000000000000000000000000000002858281518110151561357457fe5b9060200101517f010000000000000000000000000000000000000000000000000000000000000090047f0100000000000000000000000000000000000000000000000000000000000000027effffffffffffffffffffffffffffffffffffffffffffffffffffffffffffff191611155b156136955782156136075760008714156135fd5761374d565b8680600190039750505b600a840293506030858281518110151561361d57fe5b9060200101517f010000000000000000000000000000000000000000000000000000000000000090047f0100000000000000000000000000000000000000000000000000000000000000027f010000000000000000000000000000000000000000000000000000000000000090040384019350613740565b602e7f01000000000000000000000000000000000000000000000000000000000000000285828151811015156136c757fe5b9060200101517f010000000000000000000000000000000000000000000000000000000000000090047f0100000000000000000000000000000000000000000000000000000000000000027effffffffffffffffffffffffffffffffffffffffffffffffffffffffffffff1916141561373f57600192505b5b80806001019150506133de565b600087111561375f5786600a0a840293505b811561378b577fffffffffffffffffffffffffffffffffffffffffffffffffffffffffffffffff840293505b839550505050505092915050565b6137a1613f0c565b6137a9613f0c565b60008060008060006137b9613f20565b602060405190810160405280600081525096506060955089601b8151811015156137df57fe5b9060200101517f010000000000000000000000000000000000000000000000000000000000000090047f0100000000000000000000000000000000000000000000000000000000000000027f01000000000000000000000000000000000000000000000000000000000000009004610100028a601a81518110151561386057fe5b9060200101517f010000000000000000000000000000000000000000000000000000000000000090047f0100000000000000000000000000000000000000000000000000000000000000027f010000000000000000000000000000000000000000000000000000000000000090040186019550600093505b8960078151811015156138e757fe5b9060200101517f010000000000000000000000000000000000000000000000000000000000000090047f0100000000000000000000000000000000000000000000000000000000000000027f01000000000000000000000000000000000000000000000000000000000000009004610100028a600681518110151561396857fe5b9060200101517f010000000000000000000000000000000000000000000000000000000000000090047f0100000000000000000000000000000000000000000000000000000000000000027f010000000000000000000000000000000000000000000000000000000000000090040161ffff168461ffff161015613bb657602186018a015192508260016002811015156139fe57fe5b1a7f0100000000000000000000000000000000000000000000000000000000000000027f0100000000000000000000000000000000000000000000000000000000000000900461010002836000600281101515613a5757fe5b1a7f0100000000000000000000000000000000000000000000000000000000000000027f01000000000000000000000000000000000000000000000000000000000000009004019150896003870161ffff16815181101515613ab557fe5b9060200101517f010000000000000000000000000000000000000000000000000000000000000090047f0100000000000000000000000000000000000000000000000000000000000000029450600486019550887effffffffffffffffffffffffffffffffffffffffffffffffffffffffffffff1916857effffffffffffffffffffffffffffffffffffffffffffffffffffffffffffff19161415613ba157613b818261ffff16613b738861ffff168d613df890919063ffffffff16565b6125f790919063ffffffff16565b9050613b9e81613b90896125c9565b613e2690919063ffffffff16565b96505b601082018601955083806001019450506138d8565b8697505050505050505092915050565b60008060008060008060008060008a6000015197508a600001518a600001511015613bf357896000015197505b8a60200151965089602001519550600094505b87851015613c645786519350855192508284141515613c4d57600185896020030160080260020a03199150818316828516039050600081141515613c4c57809850613c72565b5b602087019650602086019550602085019450613c06565b89600001518b600001510398505b505050505050505092915050565b60008060008060008887111515613d2a57602087111515613ce15760018760200360080260020a031980875116888b038a018a96505b818388511614613cd657600187019650806001880310613cb6578b8b0196505b505050839450613d30565b8686209150879350600092505b86890383111515613d29578684209050806000191682600019161415613d1657839450613d30565b6001840193508280600101935050613cee565b5b88880194505b50505050949350505050565b60005b602082101515613d645782518452602084019350602083019250602082039150613d3f565b6001826020036101000a0390508019835116818551168181178652505050505050565b8284600001906004811115613d9857fe5b90816004811115613da557fe5b8152505081846020018181525050600184604001901515908115158152505080846060018181525050600184608001901515908115158152505060008460a0019060ff16908160ff168152505050505050565b613e00613f20565b613e08613f20565b613e11846125c9565b9050613e1d8184612687565b91505092915050565b613e2e613f0c565b613e36613f0c565b60008360000151856000015101604051805910613e505750595b9080825280601f01601f19166020018201604052509150602082019050613e808186602001518760000151613d3c565b613e998560000151820185602001518660000151613d3c565b819250505092915050565b602060405190810160405280600081525090565b602060405190810160405280600081525090565b602060405190810160405280600081525090565b815481835581811511613f0757818360005260206000209182019101613f069190613fee565b5b505050565b602060405190810160405280600081525090565b604080519081016040528060008152602001600081525090565b6060604051908101604052806000815260200160008152602001600081525090565b60c06040519081016040528060006004811115613f7557fe5b81526020016000815260200160001515815260200160008152602001600015158152602001600060ff1681525090565b60c06040519081016040528060006004811115613fbe57fe5b81526020016000815260200160001515815260200160008152602001600015158152602001600060ff1681525090565b61401091905b8082111561400c576000816000905550600101613ff4565b5090565b905600a165627a7a723058204d74fdd7f72c4e970b4d79d9a273998372209ca1f38f846680c44731ca76d6d20029",
  "source": "pragma solidity ^0.4.18;\nimport \"../installed_contracts/jsmnsol-lib/contracts/JsmnSolLib.sol\";\nimport \"../installed_contracts/bytesutils.sol\";\nimport \"../installed_contracts/tlsnutils.sol\";\n\ncontract Lending {\n\n  /***********************************/\n  /******* CONTRACT ATTRIBUTES *******/\n  /***********************************/\n\n  struct LendingContract {\n    uint lendingID;\n    address proposer;\n    address acceptor;\n    uint borrowedAmount;\n    uint startTime;\n    uint endTime;\n    uint lendingTimePeriod;\n    uint collateralAssetID;\n    bool filled;\n    bool deleted;\n    uint totalPremium;\n  }\n\n  struct AssetOwnership {\n    uint assetID;\n    address owner;\n    uint value;\n    bool borrowedAgainst;\n  }\n\n  address public master;\n\n  uint[] lendingIDs;\n  uint lendingContractCount;\n  mapping(uint => LendingContract) public allLendingContracts;\n\n  uint[] assetIDs;\n  uint assetCount;\n  mapping(uint => AssetOwnership) public allAssets;\n\n  /***********************************/\n  /************* MODIFIERS ***********/\n  /***********************************/\n\n  modifier isOwner() {\n    require(msg.sender == master);\n    _; // continue executing rest of method body\n  }\n\n  /***********************************/\n  /************** EVENTS *************/\n  /***********************************/\n\n  event AssetChange(uint assetID);\n  event LendingContractChange(uint lendingID);\n  event Premium(uint premiumAmount);\n\n  /***********************************/\n  /********* PUBLIC FUNCTIONS ********/\n  /***********************************/\n\n  /// @dev      Lending contract constructor sets initial lending contract count to 0\n  function Lending() public {\n    master = msg.sender;\n    lendingContractCount = 0;\n    assetCount = 0;\n  }\n\n  /// @dev                      Allows a user with an asset to request a loan\n  /// @param  _assetID          The json file passing the interest rate\n  /// @param  _borrowAmount     The amount wanted to be borrowed by the user\n  /// @param  _lending_period   The number of weeks the user wants to borrow the money for\n  /// @param  _hex_proof        The number of weeks the user wants to borrow the money for\n  function borrowFunds(uint _assetID, uint _borrowAmount, uint _lending_period, bytes memory _hex_proof) public payable {\n    require(!allAssets[_assetID].borrowedAgainst);\n    require(allAssets[_assetID].value >= _borrowAmount);\n    require(allAssets[_assetID].owner == msg.sender);\n\n    // Verify the TLS-N Proof\n    require(verifyProof(_hex_proof));\n\n    // Parse the response body of the TLS-N proof\n    string memory body = string(tlsnutils.getHTTPBody(_hex_proof));\n    JsmnSolLib.Token[] memory tokens;\n    uint returnValue;\n    uint actualNum;\n    (returnValue, tokens, actualNum) = JsmnSolLib.parse(body, 100);\n\n    // Get the interest rate\n    string memory interest_string = JsmnSolLib.getBytes(body, tokens[43].start, tokens[43].end);\n    int interest_int = JsmnSolLib.parseInt(interest_string);\n\n    // Check the user has passed in the right premium to match the interest rate\n    uint yearly_premium = ((msg.value * 100 * 52) / _lending_period)/_borrowAmount;\n    Premium(yearly_premium);\n    require(yearly_premium == uint(interest_int));\n\n    // Setup Contract\n    uint lendingID = (lendingContractCount++)+1000;\n    lendingIDs.push(lendingID);\n    allLendingContracts[lendingID] = LendingContract(lendingID, msg.sender, 0, _borrowAmount, 0, 0, _lending_period, _assetID, false, false, msg.value);\n    LendingContractChange(lendingID);\n  }\n\n  /// @dev                  Allows a user to lend funds to another user\n  /// @param  _lendingID    The ID of the lending contract to be fulfilled\n  function lendFunds(uint _lendingID) public payable {\n    require(msg.value == allLendingContracts[_lendingID].borrowedAmount);\n    require(!allLendingContracts[_lendingID].filled);\n    allLendingContracts[_lendingID].proposer.transfer(msg.value);\n    msg.sender.transfer(allLendingContracts[_lendingID].totalPremium);\n    allLendingContracts[_lendingID].filled = true;\n    allLendingContracts[_lendingID].acceptor = msg.sender;\n    allLendingContracts[_lendingID].startTime = now;\n    allLendingContracts[_lendingID].endTime = now + (allLendingContracts[_lendingID].lendingTimePeriod * 1 weeks);\n  }\n\n  /// @dev                  Allows the original user who borrowed funds to pay the money back\n  /// @param  _lendingID    The ID of the lending contract to be paid back\n  function payFundsBack(uint _lendingID) public payable {\n    require(allLendingContracts[_lendingID].proposer == msg.sender);\n    require(allLendingContracts[_lendingID].borrowedAmount == msg.value);\n    require(allLendingContracts[_lendingID].filled);\n    require(now < allLendingContracts[_lendingID].endTime);\n\n    allLendingContracts[_lendingID].acceptor.transfer(msg.value);\n    allLendingContracts[_lendingID].deleted = true;\n    allAssets[allLendingContracts[_lendingID].collateralAssetID].borrowedAgainst = false;\n    lendingContractCount--;\n  }\n\n  /// @dev                  Allows a lender to report a late payment\n  /// @param  _lendingID    The ID of the lending contract that has not been paid\n  function reportLatePayment(uint _lendingID) public payable {\n    uint time = now;\n    require(allLendingContracts[_lendingID].acceptor == msg.sender);\n    require(allLendingContracts[_lendingID].filled);\n    require(!allLendingContracts[_lendingID].deleted);\n    require(time > allLendingContracts[_lendingID].endTime);\n\n    allAssets[allLendingContracts[_lendingID].collateralAssetID].owner = msg.sender;\n    allAssets[allLendingContracts[_lendingID].collateralAssetID].borrowedAgainst = false;\n    allLendingContracts[_lendingID].deleted = true;\n  }\n\n  /// @dev                  Allows the owner of the contract to add assets\n  /// @param  _owner        The address of the owner of the asset\n  /// @param  _value        The value of the asset being added\n  function addAsset(address _owner, uint _value) public isOwner {\n    uint assetID = (assetCount++)+1000;\n    assetIDs.push(assetID);\n    allAssets[assetID] = AssetOwnership(assetID, _owner, _value, false);\n    AssetChange(assetID);\n  }\n\n  /// @dev                  Allows the owner of the contract or the owner of the asset to transfer ownership\n  /// @param  _recipient    The address of the recipient of the asset\n  /// @param  _assetID      The ID of the asset to be transferred\n  function transferOwnership(address _recipient, uint _assetID) public {\n    require(allAssets[_assetID].owner == msg.sender || msg.sender == master);\n    allAssets[_assetID].owner = _recipient;\n  }\n\n  /// @dev                  Allows the owner of the contract to change the value of an asset\n  /// @param  _assetID      The ID of the asset to be re-valued\n  /// @param  _new_value    The new value of the asset\n  function changeValue(uint _assetID, uint _new_value) public isOwner {\n    allAssets[_assetID].value = _new_value;\n  }\n\n  /// @dev       Allows requestor to return all lending IDs\n  /// @return    Returns the lending IDs of every outstanding lending contract\n  function getLendingIds() public constant returns (uint[]) {\n    return lendingIDs;\n  }\n\n  /// @dev       Allows requestor to return all asset IDs\n  /// @return    Returns the asset IDs of every asset in the contract\n  function getAssetIds() public constant returns (uint[]) {\n    return assetIDs;\n  }\n\n  /// @dev       Allows requestor to return the number of outstanding lending contracts\n  /// @return    Returns the number of lending contracts outstanding\n  function getLendingContractCount() public constant returns (uint) {\n    return lendingContractCount;\n  }\n\n  /// @dev       Allows requestor to return the number of assets\n  /// @return    Returns the number of assets in the contract\n  function getAssetCount() public constant returns (uint) {\n    return assetCount;\n  }\n\n  /***********************************/\n  /******** PRIVATE FUNCTIONS ********/\n  /***********************************/\n\n  function verifyProof(bytes memory proof) private returns (bool){\n    uint qx = 0xe0a5793d275a533d50421b201c2c9a909abb58b1a9c0f9eb9b7963e5c8bc2295;\n    uint qy = 0xf34d47cb92b6474562675127677d4e446418498884c101aeb38f3afb0cab997e;\n    if(tlsnutils.verifyProof(proof, qx, qy)){\n      return true;\n    }\n    return false;\n  }\n\n}\n",
  "sourcePath": "/home/vincent/Documents/imperial/group project/Lending-With-Smart-Contracts/contracts/Lending.sol",
  "compiler": {
    "name": "solc",
    "version": "0.4.19+commit.c4cbbb05.Emscripten.clang"
  },
  "schemaVersion": "1.0.1",
  "updatedAt": "2018-05-15T07:12:41.546Z"
}