{
  "contractName": "Lending",
  "abi": [
    {
      "constant": true,
      "inputs": [
        {
          "name": "",
          "type": "uint256"
        }
      ],
      "name": "allAssets",
      "outputs": [
        {
          "name": "assetID",
          "type": "uint256"
        },
        {
          "name": "owner",
          "type": "address"
        },
        {
          "name": "value",
          "type": "uint256"
        },
        {
          "name": "borrowedAgainst",
          "type": "bool"
        }
      ],
      "payable": false,
      "stateMutability": "view",
      "type": "function"
    },
    {
      "constant": true,
      "inputs": [
        {
          "name": "",
          "type": "uint256"
        }
      ],
      "name": "allLendingContracts",
      "outputs": [
        {
          "name": "lendingID",
          "type": "uint256"
        },
        {
          "name": "proposer",
          "type": "address"
        },
        {
          "name": "acceptor",
          "type": "address"
        },
        {
          "name": "borrowedAmount",
          "type": "uint256"
        },
        {
          "name": "interestRatePremium",
          "type": "uint256"
        },
        {
          "name": "startTime",
          "type": "uint256"
        },
        {
          "name": "endTime",
          "type": "uint256"
        },
        {
          "name": "lendingTimePeriod",
          "type": "uint256"
        },
        {
          "name": "collateralAssetID",
          "type": "uint256"
        },
        {
          "name": "filled",
          "type": "bool"
        },
        {
          "name": "deleted",
          "type": "bool"
        }
      ],
      "payable": false,
      "stateMutability": "view",
      "type": "function"
    },
    {
      "constant": true,
      "inputs": [],
      "name": "master",
      "outputs": [
        {
          "name": "",
          "type": "address"
        }
      ],
      "payable": false,
      "stateMutability": "view",
      "type": "function"
    },
    {
      "inputs": [],
      "payable": false,
      "stateMutability": "nonpayable",
      "type": "constructor"
    },
    {
      "anonymous": false,
      "inputs": [
        {
          "indexed": false,
          "name": "assetID",
          "type": "uint256"
        }
      ],
      "name": "AssetChange",
      "type": "event"
    },
    {
      "anonymous": false,
      "inputs": [
        {
          "indexed": false,
          "name": "lendingID",
          "type": "uint256"
        }
      ],
      "name": "LendingContractChange",
      "type": "event"
    },
    {
      "constant": false,
      "inputs": [
        {
          "name": "_assetID",
          "type": "uint256"
        },
        {
          "name": "borrowAmount",
          "type": "uint256"
        },
        {
          "name": "_premium",
          "type": "uint256"
        },
        {
          "name": "_lending_period",
          "type": "uint256"
        }
      ],
      "name": "borrowFunds",
      "outputs": [],
      "payable": true,
      "stateMutability": "payable",
      "type": "function"
    },
    {
      "constant": false,
      "inputs": [
        {
          "name": "_lendingID",
          "type": "uint256"
        }
      ],
      "name": "lendFunds",
      "outputs": [],
      "payable": true,
      "stateMutability": "payable",
      "type": "function"
    },
    {
      "constant": false,
      "inputs": [
        {
          "name": "_lendingID",
          "type": "uint256"
        }
      ],
      "name": "payFundsBack",
      "outputs": [],
      "payable": true,
      "stateMutability": "payable",
      "type": "function"
    },
    {
      "constant": false,
      "inputs": [
        {
          "name": "_lendingID",
          "type": "uint256"
        }
      ],
      "name": "reportLatePayment",
      "outputs": [],
      "payable": true,
      "stateMutability": "payable",
      "type": "function"
    },
    {
      "constant": false,
      "inputs": [
        {
          "name": "_owner",
          "type": "address"
        },
        {
          "name": "_value",
          "type": "uint256"
        }
      ],
      "name": "addAsset",
      "outputs": [],
      "payable": false,
      "stateMutability": "nonpayable",
      "type": "function"
    },
    {
      "constant": false,
      "inputs": [
        {
          "name": "_recipient",
          "type": "address"
        },
        {
          "name": "_assetID",
          "type": "uint256"
        }
      ],
      "name": "transferOwnership",
      "outputs": [],
      "payable": false,
      "stateMutability": "nonpayable",
      "type": "function"
    },
    {
      "constant": false,
      "inputs": [
        {
          "name": "_assetID",
          "type": "uint256"
        },
        {
          "name": "_new_value",
          "type": "uint256"
        }
      ],
      "name": "changeValue",
      "outputs": [],
      "payable": false,
      "stateMutability": "nonpayable",
      "type": "function"
    },
    {
      "constant": true,
      "inputs": [],
      "name": "getLendingIds",
      "outputs": [
        {
          "name": "",
          "type": "uint256[]"
        }
      ],
      "payable": false,
      "stateMutability": "view",
      "type": "function"
    },
    {
      "constant": true,
      "inputs": [],
      "name": "getAssetIds",
      "outputs": [
        {
          "name": "",
          "type": "uint256[]"
        }
      ],
      "payable": false,
      "stateMutability": "view",
      "type": "function"
    },
    {
      "constant": true,
      "inputs": [],
      "name": "getLendingContractCount",
      "outputs": [
        {
          "name": "",
          "type": "uint256"
        }
      ],
      "payable": false,
      "stateMutability": "view",
      "type": "function"
    },
    {
      "constant": true,
      "inputs": [],
      "name": "getAssetCount",
      "outputs": [
        {
          "name": "",
          "type": "uint256"
        }
      ],
      "payable": false,
      "stateMutability": "view",
      "type": "function"
    }
  ],
  "bytecode": "0x6060604052341561000f57600080fd5b336000806101000a81548173ffffffffffffffffffffffffffffffffffffffff021916908373ffffffffffffffffffffffffffffffffffffffff160217905550600060028190555060006005819055506112708061006e6000396000f3006060604052600436106100d0576000357c0100000000000000000000000000000000000000000000000000000000900463ffffffff1680630a276680146100d5578063179fd7631461011757806333a10c9f14610181578063578e5c221461019957806366a6a4bd146102155780636f29681b146102575780638709b2e71461028a578063a0aead4d146102b6578063aa2d5721146102df578063b0ffd240146102f7578063b3798b9414610320578063c172da6014610338578063e47e1c0b14610415578063ee97f7f31461047f575b600080fd5b34156100e057600080fd5b610115600480803573ffffffffffffffffffffffffffffffffffffffff169060200190919080359060200190919050506104d4565b005b341561012257600080fd5b61012a6105f4565b6040518080602001828103825283818151815260200191508051906020019060200280838360005b8381101561016d578082015181840152602081019050610152565b505050509050019250505060405180910390f35b6101976004808035906020019091905050610652565b005b34156101a457600080fd5b6101ba60048080359060200190919050506107ac565b604051808581526020018473ffffffffffffffffffffffffffffffffffffffff1673ffffffffffffffffffffffffffffffffffffffff1681526020018381526020018215151515815260200194505050505060405180910390f35b341561022057600080fd5b610255600480803573ffffffffffffffffffffffffffffffffffffffff16906020019091908035906020019091905050610809565b005b61028860048080359060200190919080359060200190919080359060200190919080359060200190919050506109ae565b005b341561029557600080fd5b6102b46004808035906020019091908035906020019091905050610ca2565b005b34156102c157600080fd5b6102c9610d1c565b6040518082815260200191505060405180910390f35b6102f56004808035906020019091905050610d26565b005b341561030257600080fd5b61030a610eca565b6040518082815260200191505060405180910390f35b6103366004808035906020019091905050610ed4565b005b341561034357600080fd5b61035960048080359060200190919050506110a8565b604051808c81526020018b73ffffffffffffffffffffffffffffffffffffffff1673ffffffffffffffffffffffffffffffffffffffff1681526020018a73ffffffffffffffffffffffffffffffffffffffff1673ffffffffffffffffffffffffffffffffffffffff16815260200189815260200188815260200187815260200186815260200185815260200184815260200183151515158152602001821515151581526020019b50505050505050505050505060405180910390f35b341561042057600080fd5b61042861115c565b6040518080602001828103825283818151815260200191508051906020019060200280838360005b8381101561046b578082015181840152602081019050610450565b505050509050019250505060405180910390f35b341561048a57600080fd5b6104926111ba565b604051808273ffffffffffffffffffffffffffffffffffffffff1673ffffffffffffffffffffffffffffffffffffffff16815260200191505060405180910390f35b3373ffffffffffffffffffffffffffffffffffffffff166006600083815260200190815260200160002060010160009054906101000a900473ffffffffffffffffffffffffffffffffffffffff1673ffffffffffffffffffffffffffffffffffffffff16148061059057506000809054906101000a900473ffffffffffffffffffffffffffffffffffffffff1673ffffffffffffffffffffffffffffffffffffffff163373ffffffffffffffffffffffffffffffffffffffff16145b151561059b57600080fd5b816006600083815260200190815260200160002060010160006101000a81548173ffffffffffffffffffffffffffffffffffffffff021916908373ffffffffffffffffffffffffffffffffffffffff1602179055505050565b6105fc6111df565b600180548060200260200160405190810160405280929190818152602001828054801561064857602002820191906000526020600020905b815481526020019060010190808311610634575b5050505050905090565b3373ffffffffffffffffffffffffffffffffffffffff166003600083815260200190815260200160002060020160009054906101000a900473ffffffffffffffffffffffffffffffffffffffff1673ffffffffffffffffffffffffffffffffffffffff161415156106c257600080fd5b6003600082815260200190815260200160002060090160009054906101000a900460ff1615156106f157600080fd5b60036000828152602001908152602001600020600601544211151561071557600080fd5b6107353360036000848152602001908152602001600020600801546104d4565b6000600660006003600085815260200190815260200160002060080154815260200190815260200160002060030160006101000a81548160ff02191690831515021790555060016003600083815260200190815260200160002060090160016101000a81548160ff02191690831515021790555050565b60066020528060005260406000206000915090508060000154908060010160009054906101000a900473ffffffffffffffffffffffffffffffffffffffff16908060020154908060030160009054906101000a900460ff16905084565b60008060009054906101000a900473ffffffffffffffffffffffffffffffffffffffff1673ffffffffffffffffffffffffffffffffffffffff163373ffffffffffffffffffffffffffffffffffffffff1614151561086657600080fd5b6103e860056000815480929190600101919050550190506004805480600101828161089191906111f3565b9160005260206000209001600083909190915055506080604051908101604052808281526020018473ffffffffffffffffffffffffffffffffffffffff16815260200183815260200160001515815250600660008381526020019081526020016000206000820151816000015560208201518160010160006101000a81548173ffffffffffffffffffffffffffffffffffffffff021916908373ffffffffffffffffffffffffffffffffffffffff1602179055506040820151816002015560608201518160030160006101000a81548160ff0219169083151502179055509050507ff24d0c253be88f9850e777d838abb7174903d76b1516519f6789aa2910489b9c816040518082815260200191505060405180910390a1505050565b60006006600086815260200190815260200160002060030160009054906101000a900460ff161515156109e057600080fd5b83600660008781526020019081526020016000206002015410151515610a0557600080fd5b3373ffffffffffffffffffffffffffffffffffffffff166006600087815260200190815260200160002060010160009054906101000a900473ffffffffffffffffffffffffffffffffffffffff1673ffffffffffffffffffffffffffffffffffffffff16141515610a7557600080fd5b6103e8600260008154809291906001019190505501905060018054806001018281610aa091906111f3565b916000526020600020900160008390919091505550610160604051908101604052808281526020013373ffffffffffffffffffffffffffffffffffffffff168152602001600073ffffffffffffffffffffffffffffffffffffffff168152602001858152602001848152602001600081526020016000815260200183815260200186815260200160001515815260200160001515815250600360008381526020019081526020016000206000820151816000015560208201518160010160006101000a81548173ffffffffffffffffffffffffffffffffffffffff021916908373ffffffffffffffffffffffffffffffffffffffff16021790555060408201518160020160006101000a81548173ffffffffffffffffffffffffffffffffffffffff021916908373ffffffffffffffffffffffffffffffffffffffff160217905550606082015181600301556080820151816004015560a0820151816005015560c0820151816006015560e0820151816007015561010082015181600801556101208201518160090160006101000a81548160ff0219169083151502179055506101408201518160090160016101000a81548160ff0219169083151502179055509050507f218e83f0def1a3bd30ad9959bf2f3aba63bdba681cf9c513544b04e2a7b9841b816040518082815260200191505060405180910390a15050505050565b6000809054906101000a900473ffffffffffffffffffffffffffffffffffffffff1673ffffffffffffffffffffffffffffffffffffffff163373ffffffffffffffffffffffffffffffffffffffff16141515610cfd57600080fd5b8060066000848152602001908152602001600020600201819055505050565b6000600554905090565b600360008281526020019081526020016000206003015434141515610d4a57600080fd5b6003600082815260200190815260200160002060090160009054906101000a900460ff16151515610d7a57600080fd5b6003600082815260200190815260200160002060010160009054906101000a900473ffffffffffffffffffffffffffffffffffffffff1673ffffffffffffffffffffffffffffffffffffffff166108fc349081150290604051600060405180830381858888f193505050501515610df057600080fd5b60016003600083815260200190815260200160002060090160006101000a81548160ff021916908315150217905550336003600083815260200190815260200160002060020160006101000a81548173ffffffffffffffffffffffffffffffffffffffff021916908373ffffffffffffffffffffffffffffffffffffffff16021790555042600360008381526020019081526020016000206005018190555062093a806003600083815260200190815260200160002060070154024201600360008381526020019081526020016000206006018190555050565b6000600254905090565b3373ffffffffffffffffffffffffffffffffffffffff166003600083815260200190815260200160002060010160009054906101000a900473ffffffffffffffffffffffffffffffffffffffff1673ffffffffffffffffffffffffffffffffffffffff16141515610f4457600080fd5b346003600083815260200190815260200160002060030154141515610f6857600080fd5b6003600082815260200190815260200160002060090160009054906101000a900460ff161515610f9757600080fd5b600360008281526020019081526020016000206006015442101515610fbb57600080fd5b6003600082815260200190815260200160002060020160009054906101000a900473ffffffffffffffffffffffffffffffffffffffff1673ffffffffffffffffffffffffffffffffffffffff166108fc349081150290604051600060405180830381858888f19350505050151561103157600080fd5b60016003600083815260200190815260200160002060090160016101000a81548160ff0219169083151502179055506000600660006003600085815260200190815260200160002060080154815260200190815260200160002060030160006101000a81548160ff02191690831515021790555050565b60036020528060005260406000206000915090508060000154908060010160009054906101000a900473ffffffffffffffffffffffffffffffffffffffff16908060020160009054906101000a900473ffffffffffffffffffffffffffffffffffffffff16908060030154908060040154908060050154908060060154908060070154908060080154908060090160009054906101000a900460ff16908060090160019054906101000a900460ff1690508b565b6111646111df565b60048054806020026020016040519081016040528092919081815260200182805480156111b057602002820191906000526020600020905b81548152602001906001019080831161119c575b5050505050905090565b6000809054906101000a900473ffffffffffffffffffffffffffffffffffffffff1681565b602060405190810160405280600081525090565b81548183558181151161121a57818360005260206000209182019101611219919061121f565b5b505050565b61124191905b8082111561123d576000816000905550600101611225565b5090565b905600a165627a7a723058206a64a0611f2785dbf3ac8c53c1519ad9ae9533dcd2843126e5509aae7437ec6f0029",
  "source": "pragma solidity ^0.4.18;\nimport \"../installed_contracts/jsmnsol-lib/contracts/JsmnSolLib.sol\";\nimport \"../installed_contracts/bytesutils.sol\";\nimport \"../installed_contracts/tlsnutils.sol\";\n\ncontract Lending {\n\n  /***********************************/\n  /******* CONTRACT ATTRIBUTES *******/\n  /***********************************/\n\n  struct LendingContract {\n    uint lendingID;\n    address proposer;\n    address acceptor;\n    uint borrowedAmount;\n    uint interestRatePremium; // measured in bps on top of Bank of England base rate\n    uint startTime;\n    uint endTime;\n    uint lendingTimePeriod; // in weeks\n    uint collateralAssetID;\n    bool filled;\n    bool deleted;\n  }\n\n  struct AssetOwnership {\n    uint assetID;\n    address owner;\n    uint value;\n    bool borrowedAgainst;\n  }\n\n  address public master;\n\n  uint[] lendingIDs;\n  uint lendingContractCount;\n  mapping(uint => LendingContract) public allLendingContracts;\n\n  uint[] assetIDs;\n  uint assetCount;\n  mapping(uint => AssetOwnership) public allAssets;\n\n  /***********************************/\n  /************* MODIFIERS ***********/\n  /***********************************/\n\n  modifier isOwner() {\n    require(msg.sender == master);\n    _; // continue executing rest of method body\n  }\n\n  /***********************************/\n  /************** EVENTS *************/\n  /***********************************/\n\n  event AssetChange(uint assetID);\n  event LendingContractChange(uint lendingID);\n\n  /***********************************/\n  /********* PUBLIC FUNCTIONS ********/\n  /***********************************/\n\n  /// @dev      Lending contract constructor sets initial lending contract count to 0\n  function Lending() public {\n    master = msg.sender;\n    lendingContractCount = 0;\n    assetCount = 0;\n  }\n\n  // Done\n  // /*bytes memory _hex_proof,*/\n  function borrowFunds(uint _assetID, uint borrowAmount, uint _premium, uint _lending_period) public payable {\n    require(!allAssets[_assetID].borrowedAgainst);\n    require(allAssets[_assetID].value >= borrowAmount);\n    require(allAssets[_assetID].owner == msg.sender);\n\n    // Work out the Bank of England Base Interest Rate from Hex Proof\n\n    // Check that the funds transferred into the contract are equl to the number of weeks money required and above base rate\n    // The individual will need to transfer enough funds in to cover the entire period, even if withdraw early\n\n    // Setup Contract\n    uint lendingID = (lendingContractCount++)+1000;\n    lendingIDs.push(lendingID);\n    allLendingContracts[lendingID] = LendingContract(lendingID, msg.sender, 0, borrowAmount, _premium, 0, 0, _lending_period, _assetID, false, false);\n    LendingContractChange(lendingID);\n  }\n\n  function lendFunds(uint _lendingID) public payable {\n    require(msg.value == allLendingContracts[_lendingID].borrowedAmount);\n    require(!allLendingContracts[_lendingID].filled);\n    allLendingContracts[_lendingID].proposer.transfer(msg.value);\n    allLendingContracts[_lendingID].filled = true;\n    allLendingContracts[_lendingID].acceptor = msg.sender;\n    allLendingContracts[_lendingID].startTime = now;\n    allLendingContracts[_lendingID].endTime = now + (allLendingContracts[_lendingID].lendingTimePeriod * 1 weeks);\n  }\n\n  function payFundsBack(uint _lendingID) public payable {\n    require(allLendingContracts[_lendingID].proposer == msg.sender);\n    require(allLendingContracts[_lendingID].borrowedAmount == msg.value);\n    require(allLendingContracts[_lendingID].filled);\n    require(now < allLendingContracts[_lendingID].endTime);\n\n    // Also need to pay back some of the premium that the individual paid in\n    // Proportional to how many days early they repaid\n\n    allLendingContracts[_lendingID].acceptor.transfer(msg.value);\n    allLendingContracts[_lendingID].deleted = true;\n    allAssets[allLendingContracts[_lendingID].collateralAssetID].borrowedAgainst = false;\n  }\n\n  function reportLatePayment(uint _lendingID) public payable {\n    require(allLendingContracts[_lendingID].acceptor == msg.sender);\n    require(allLendingContracts[_lendingID].filled);\n    require(now > allLendingContracts[_lendingID].endTime);\n\n    transferOwnership(msg.sender,allLendingContracts[_lendingID].collateralAssetID);\n    allAssets[allLendingContracts[_lendingID].collateralAssetID].borrowedAgainst = false;\n    allLendingContracts[_lendingID].deleted = true;\n  }\n\n  // Done\n  function addAsset(address _owner, uint _value) public isOwner {\n    uint assetID = (assetCount++)+1000;\n    assetIDs.push(assetID);\n    allAssets[assetID] = AssetOwnership(assetID, _owner, _value, false);\n    AssetChange(assetID);\n  }\n\n  // Done\n  function transferOwnership(address _recipient, uint _assetID) public {\n    require(allAssets[_assetID].owner == msg.sender || msg.sender == master);\n    allAssets[_assetID].owner = _recipient;\n  }\n\n  // Done\n  function changeValue(uint _assetID, uint _new_value) public isOwner {\n    allAssets[_assetID].value = _new_value;\n  }\n\n  // Done\n  function getLendingIds() public constant returns (uint[]) {\n    return lendingIDs;\n  }\n\n  // Done\n  function getAssetIds() public constant returns (uint[]) {\n    return assetIDs;\n  }\n\n  // Done\n  function getLendingContractCount() public constant returns (uint) {\n    return lendingContractCount;\n  }\n\n  // Done\n  function getAssetCount() public constant returns (uint) {\n    return assetCount;\n  }\n\n  /***********************************/\n  /******** PRIVATE FUNCTIONS ********/\n  /***********************************/\n\n}\n",
  "sourcePath": "/home/vincent/Documents/imperial/group project/Lending-With-Smart-Contracts/contracts/Lending.sol",
  "compiler": {
    "name": "solc",
    "version": "0.4.19+commit.c4cbbb05.Emscripten.clang"
  },
  "schemaVersion": "1.0.1",
  "updatedAt": "2018-05-13T23:52:05.660Z"
}