{
  "contractName": "Lending",
  "abi": [
    {
      "constant": true,
      "inputs": [
        {
          "name": "",
          "type": "uint256"
        }
      ],
      "name": "allAssets",
      "outputs": [
        {
          "name": "assetID",
          "type": "uint256"
        },
        {
          "name": "owner",
          "type": "address"
        },
        {
          "name": "value",
          "type": "uint256"
        },
        {
          "name": "borrowedAgainst",
          "type": "bool"
        }
      ],
      "payable": false,
      "stateMutability": "view",
      "type": "function"
    },
    {
      "constant": true,
      "inputs": [
        {
          "name": "",
          "type": "uint256"
        }
      ],
      "name": "allLendingContracts",
      "outputs": [
        {
          "name": "lendingID",
          "type": "uint256"
        },
        {
          "name": "proposer",
          "type": "address"
        },
        {
          "name": "acceptor",
          "type": "address"
        },
        {
          "name": "borrowedAmount",
          "type": "uint256"
        },
        {
          "name": "startTime",
          "type": "uint256"
        },
        {
          "name": "endTime",
          "type": "uint256"
        },
        {
          "name": "lendingTimePeriod",
          "type": "uint256"
        },
        {
          "name": "collateralAssetID",
          "type": "uint256"
        },
        {
          "name": "filled",
          "type": "bool"
        },
        {
          "name": "deleted",
          "type": "bool"
        },
        {
          "name": "totalPremium",
          "type": "uint256"
        }
      ],
      "payable": false,
      "stateMutability": "view",
      "type": "function"
    },
    {
      "constant": true,
      "inputs": [],
      "name": "master",
      "outputs": [
        {
          "name": "",
          "type": "address"
        }
      ],
      "payable": false,
      "stateMutability": "view",
      "type": "function"
    },
    {
      "inputs": [],
      "payable": false,
      "stateMutability": "nonpayable",
      "type": "constructor"
    },
    {
      "anonymous": false,
      "inputs": [
        {
          "indexed": false,
          "name": "assetID",
          "type": "uint256"
        }
      ],
      "name": "AssetChange",
      "type": "event"
    },
    {
      "anonymous": false,
      "inputs": [
        {
          "indexed": false,
          "name": "lendingID",
          "type": "uint256"
        }
      ],
      "name": "LendingContractChange",
      "type": "event"
    },
    {
      "anonymous": false,
      "inputs": [
        {
          "indexed": false,
          "name": "premiumAmount",
          "type": "uint256"
        }
      ],
      "name": "Premium",
      "type": "event"
    },
    {
      "constant": false,
      "inputs": [
        {
          "name": "_assetID",
          "type": "uint256"
        },
        {
          "name": "_borrowAmount",
          "type": "uint256"
        },
        {
          "name": "_lending_period",
          "type": "uint256"
        },
        {
          "name": "_hex_proof",
          "type": "bytes"
        }
      ],
      "name": "borrowFunds",
      "outputs": [],
      "payable": true,
      "stateMutability": "payable",
      "type": "function"
    },
    {
      "constant": false,
      "inputs": [
        {
          "name": "_lendingID",
          "type": "uint256"
        }
      ],
      "name": "lendFunds",
      "outputs": [],
      "payable": true,
      "stateMutability": "payable",
      "type": "function"
    },
    {
      "constant": false,
      "inputs": [
        {
          "name": "_lendingID",
          "type": "uint256"
        }
      ],
      "name": "payFundsBack",
      "outputs": [],
      "payable": true,
      "stateMutability": "payable",
      "type": "function"
    },
    {
      "constant": false,
      "inputs": [
        {
          "name": "_lendingID",
          "type": "uint256"
        }
      ],
      "name": "reportLatePayment",
      "outputs": [],
      "payable": true,
      "stateMutability": "payable",
      "type": "function"
    },
    {
      "constant": false,
      "inputs": [
        {
          "name": "_owner",
          "type": "address"
        },
        {
          "name": "_value",
          "type": "uint256"
        }
      ],
      "name": "addAsset",
      "outputs": [],
      "payable": false,
      "stateMutability": "nonpayable",
      "type": "function"
    },
    {
      "constant": false,
      "inputs": [
        {
          "name": "_recipient",
          "type": "address"
        },
        {
          "name": "_assetID",
          "type": "uint256"
        }
      ],
      "name": "transferOwnership",
      "outputs": [],
      "payable": false,
      "stateMutability": "nonpayable",
      "type": "function"
    },
    {
      "constant": false,
      "inputs": [
        {
          "name": "_assetID",
          "type": "uint256"
        },
        {
          "name": "_new_value",
          "type": "uint256"
        }
      ],
      "name": "changeValue",
      "outputs": [],
      "payable": false,
      "stateMutability": "nonpayable",
      "type": "function"
    },
    {
      "constant": true,
      "inputs": [],
      "name": "getLendingIds",
      "outputs": [
        {
          "name": "",
          "type": "uint256[]"
        }
      ],
      "payable": false,
      "stateMutability": "view",
      "type": "function"
    },
    {
      "constant": true,
      "inputs": [],
      "name": "getAssetIds",
      "outputs": [
        {
          "name": "",
          "type": "uint256[]"
        }
      ],
      "payable": false,
      "stateMutability": "view",
      "type": "function"
    },
    {
      "constant": true,
      "inputs": [],
      "name": "getLendingContractCount",
      "outputs": [
        {
          "name": "",
          "type": "uint256"
        }
      ],
      "payable": false,
      "stateMutability": "view",
      "type": "function"
    },
    {
      "constant": true,
      "inputs": [],
      "name": "getAssetCount",
      "outputs": [
        {
          "name": "",
          "type": "uint256"
        }
      ],
      "payable": false,
      "stateMutability": "view",
      "type": "function"
    }
  ],
  "bytecode": "0x6060604052341561000f57600080fd5b336000806101000a81548173ffffffffffffffffffffffffffffffffffffffff021916908373ffffffffffffffffffffffffffffffffffffffff16021790555060006002819055506000600581905550613eb58061006e6000396000f3006060604052600436106100d0576000357c0100000000000000000000000000000000000000000000000000000000900463ffffffff1680630a276680146100d5578063179fd7631461011757806333a10c9f1461018157806334b44db214610199578063578e5c221461020657806366a6a4bd146102825780638709b2e7146102c4578063a0aead4d146102f0578063aa2d572114610319578063b0ffd24014610331578063b3798b941461035a578063c172da6014610372578063e47e1c0b1461044f578063ee97f7f3146104b9575b600080fd5b34156100e057600080fd5b610115600480803573ffffffffffffffffffffffffffffffffffffffff1690602001909190803590602001909190505061050e565b005b341561012257600080fd5b61012a61062e565b6040518080602001828103825283818151815260200191508051906020019060200280838360005b8381101561016d578082015181840152602081019050610152565b505050509050019250505060405180910390f35b610197600480803590602001909190505061068c565b005b610204600480803590602001909190803590602001909190803590602001909190803590602001908201803590602001908080601f01602080910402602001604051908101604052809392919081815260200183838082843782019150505050505091905050610867565b005b341561021157600080fd5b6102276004808035906020019091905050610c48565b604051808581526020018473ffffffffffffffffffffffffffffffffffffffff1673ffffffffffffffffffffffffffffffffffffffff1681526020018381526020018215151515815260200194505050505060405180910390f35b341561028d57600080fd5b6102c2600480803573ffffffffffffffffffffffffffffffffffffffff16906020019091908035906020019091905050610ca5565b005b34156102cf57600080fd5b6102ee6004808035906020019091908035906020019091905050610e4a565b005b34156102fb57600080fd5b610303610ec4565b6040518082815260200191505060405180910390f35b61032f6004808035906020019091905050610ece565b005b341561033c57600080fd5b6103446110c8565b6040518082815260200191505060405180910390f35b61037060048080359060200190919050506110d2565b005b341561037d57600080fd5b61039360048080359060200190919050506112b9565b604051808c81526020018b73ffffffffffffffffffffffffffffffffffffffff1673ffffffffffffffffffffffffffffffffffffffff1681526020018a73ffffffffffffffffffffffffffffffffffffffff1673ffffffffffffffffffffffffffffffffffffffff16815260200189815260200188815260200187815260200186815260200185815260200184151515158152602001831515151581526020018281526020019b50505050505050505050505060405180910390f35b341561045a57600080fd5b61046261136d565b6040518080602001828103825283818151815260200191508051906020019060200280838360005b838110156104a557808201518184015260208101905061048a565b505050509050019250505060405180910390f35b34156104c457600080fd5b6104cc6113cb565b604051808273ffffffffffffffffffffffffffffffffffffffff1673ffffffffffffffffffffffffffffffffffffffff16815260200191505060405180910390f35b3373ffffffffffffffffffffffffffffffffffffffff166006600083815260200190815260200160002060010160009054906101000a900473ffffffffffffffffffffffffffffffffffffffff1673ffffffffffffffffffffffffffffffffffffffff1614806105ca57506000809054906101000a900473ffffffffffffffffffffffffffffffffffffffff1673ffffffffffffffffffffffffffffffffffffffff163373ffffffffffffffffffffffffffffffffffffffff16145b15156105d557600080fd5b816006600083815260200190815260200160002060010160006101000a81548173ffffffffffffffffffffffffffffffffffffffff021916908373ffffffffffffffffffffffffffffffffffffffff1602179055505050565b610636613d1a565b600180548060200260200160405190810160405280929190818152602001828054801561068257602002820191906000526020600020905b81548152602001906001019080831161066e575b5050505050905090565b60004290503373ffffffffffffffffffffffffffffffffffffffff166003600084815260200190815260200160002060020160009054906101000a900473ffffffffffffffffffffffffffffffffffffffff1673ffffffffffffffffffffffffffffffffffffffff1614151561070157600080fd5b6003600083815260200190815260200160002060080160009054906101000a900460ff16151561073057600080fd5b6003600083815260200190815260200160002060080160019054906101000a900460ff1615151561076057600080fd5b60036000838152602001908152602001600020600501548111151561078457600080fd5b33600660006003600086815260200190815260200160002060070154815260200190815260200160002060010160006101000a81548173ffffffffffffffffffffffffffffffffffffffff021916908373ffffffffffffffffffffffffffffffffffffffff1602179055506000600660006003600086815260200190815260200160002060070154815260200190815260200160002060030160006101000a81548160ff02191690831515021790555060016003600084815260200190815260200160002060080160016101000a81548160ff0219169083151502179055505050565b61086f613d2e565b610877613d42565b600080610882613d2e565b6000806000600660008d815260200190815260200160002060030160009054906101000a900460ff161515156108b757600080fd5b8a600660008e815260200190815260200160002060020154101515156108dc57600080fd5b3373ffffffffffffffffffffffffffffffffffffffff16600660008e815260200190815260200160002060010160009054906101000a900473ffffffffffffffffffffffffffffffffffffffff1673ffffffffffffffffffffffffffffffffffffffff1614151561094c57600080fd5b610955896113f0565b9750610962886064611516565b8097508199508298505050506109b18888602b81518110151561098157fe5b906020019060200201516020015189602b81518110151561099e57fe5b90602001906020020151606001516122ec565b93506109bc846123ef565b92508a8a603460643402028115156109d057fe5b048115156109da57fe5b0491507f9e91d029d367c9c2046fa6df2190768ce774eb09c9c64e16109731e29089a35f826040518082815260200191505060405180910390a16103e8600260008154809291906001019190505501905060018054806001018281610a3f9190613d56565b916000526020600020900160008390919091505550610160604051908101604052808281526020013373ffffffffffffffffffffffffffffffffffffffff168152602001600073ffffffffffffffffffffffffffffffffffffffff1681526020018c815260200160008152602001600081526020018b81526020018d815260200160001515815260200160001515815260200134815250600360008381526020019081526020016000206000820151816000015560208201518160010160006101000a81548173ffffffffffffffffffffffffffffffffffffffff021916908373ffffffffffffffffffffffffffffffffffffffff16021790555060408201518160020160006101000a81548173ffffffffffffffffffffffffffffffffffffffff021916908373ffffffffffffffffffffffffffffffffffffffff160217905550606082015181600301556080820151816004015560a0820151816005015560c0820151816006015560e082015181600701556101008201518160080160006101000a81548160ff0219169083151502179055506101208201518160080160016101000a81548160ff02191690831515021790555061014082015181600901559050507f218e83f0def1a3bd30ad9959bf2f3aba63bdba681cf9c513544b04e2a7b9841b816040518082815260200191505060405180910390a1505050505050505050505050565b60066020528060005260406000206000915090508060000154908060010160009054906101000a900473ffffffffffffffffffffffffffffffffffffffff16908060020154908060030160009054906101000a900460ff16905084565b60008060009054906101000a900473ffffffffffffffffffffffffffffffffffffffff1673ffffffffffffffffffffffffffffffffffffffff163373ffffffffffffffffffffffffffffffffffffffff16141515610d0257600080fd5b6103e8600560008154809291906001019190505501905060048054806001018281610d2d9190613d56565b9160005260206000209001600083909190915055506080604051908101604052808281526020018473ffffffffffffffffffffffffffffffffffffffff16815260200183815260200160001515815250600660008381526020019081526020016000206000820151816000015560208201518160010160006101000a81548173ffffffffffffffffffffffffffffffffffffffff021916908373ffffffffffffffffffffffffffffffffffffffff1602179055506040820151816002015560608201518160030160006101000a81548160ff0219169083151502179055509050507ff24d0c253be88f9850e777d838abb7174903d76b1516519f6789aa2910489b9c816040518082815260200191505060405180910390a1505050565b6000809054906101000a900473ffffffffffffffffffffffffffffffffffffffff1673ffffffffffffffffffffffffffffffffffffffff163373ffffffffffffffffffffffffffffffffffffffff16141515610ea557600080fd5b8060066000848152602001908152602001600020600201819055505050565b6000600554905090565b600360008281526020019081526020016000206003015434141515610ef257600080fd5b6003600082815260200190815260200160002060080160009054906101000a900460ff16151515610f2257600080fd5b6003600082815260200190815260200160002060010160009054906101000a900473ffffffffffffffffffffffffffffffffffffffff1673ffffffffffffffffffffffffffffffffffffffff166108fc349081150290604051600060405180830381858888f193505050501515610f9857600080fd5b3373ffffffffffffffffffffffffffffffffffffffff166108fc60036000848152602001908152602001600020600901549081150290604051600060405180830381858888f193505050501515610fee57600080fd5b60016003600083815260200190815260200160002060080160006101000a81548160ff021916908315150217905550336003600083815260200190815260200160002060020160006101000a81548173ffffffffffffffffffffffffffffffffffffffff021916908373ffffffffffffffffffffffffffffffffffffffff16021790555042600360008381526020019081526020016000206004018190555062093a806003600083815260200190815260200160002060060154024201600360008381526020019081526020016000206005018190555050565b6000600254905090565b3373ffffffffffffffffffffffffffffffffffffffff166003600083815260200190815260200160002060010160009054906101000a900473ffffffffffffffffffffffffffffffffffffffff1673ffffffffffffffffffffffffffffffffffffffff1614151561114257600080fd5b34600360008381526020019081526020016000206003015414151561116657600080fd5b6003600082815260200190815260200160002060080160009054906101000a900460ff16151561119557600080fd5b6003600082815260200190815260200160002060050154421015156111b957600080fd5b6003600082815260200190815260200160002060020160009054906101000a900473ffffffffffffffffffffffffffffffffffffffff1673ffffffffffffffffffffffffffffffffffffffff166108fc349081150290604051600060405180830381858888f19350505050151561122f57600080fd5b60016003600083815260200190815260200160002060080160016101000a81548160ff0219169083151502179055506000600660006003600085815260200190815260200160002060070154815260200190815260200160002060030160006101000a81548160ff0219169083151502179055506002600081548092919060019003919050555050565b60036020528060005260406000206000915090508060000154908060010160009054906101000a900473ffffffffffffffffffffffffffffffffffffffff16908060020160009054906101000a900473ffffffffffffffffffffffffffffffffffffffff16908060030154908060040154908060050154908060060154908060070154908060080160009054906101000a900460ff16908060080160019054906101000a900460ff1690806009015490508b565b611375613d1a565b60048054806020026020016040519081016040528092919081815260200182805480156113c157602002820191906000526020600020905b8154815260200190600101908083116113ad575b5050505050905090565b6000809054906101000a900473ffffffffffffffffffffffffffffffffffffffff1681565b6113f8613d82565b611400613d82565b611408613d96565b611410613d96565b61141985612403565b9250611437600f6114298561243f565b61246d90919063ffffffff16565b915061148961147a6040805190810160405280600f81526020017f485454502f312e3120323030204f4b000000000000000000000000000000000081525061243f565b8361249590919063ffffffff16565b151561149457600080fd5b6114ec6114d56040805190810160405280600481526020017f0d0a0d0a0000000000000000000000000000000000000000000000000000000081525061243f565b6114de8561243f565b6124ab90919063ffffffff16565b90506115026004826124fd90919063ffffffff16565b5061150c81612553565b9350505050919050565b6000611520613d42565b600061152a613d82565b611532613db0565b61153a613d42565b600080600080600061154a613dd2565b6000808f9a506115598f6125b1565b99509950896020015196505b8a518a6000015110156122cb578a8a6000015181518110151561158457fe5b9060200101517f010000000000000000000000000000000000000000000000000000000000000090047f0100000000000000000000000000000000000000000000000000000000000000029450607b7f010000000000000000000000000000000000000000000000000000000000000002857effffffffffffffffffffffffffffffffffffffffffffffffffffffffffffff191614806116685750605b7f010000000000000000000000000000000000000000000000000000000000000002857effffffffffffffffffffffffffffffffffffffffffffffffffffffffffffff1916145b156117a857868060010197505061167f8a8a612665565b9350935083151561169d5760038960008090509d509d509d506122da565b7fffffffffffffffffffffffffffffffffffffffffffffffffffffffffffffffff8a604001511415156116fc57888a604001518151811015156116dc57fe5b9060200190602002015160a001805180919060010160ff1660ff16815250505b607b7f010000000000000000000000000000000000000000000000000000000000000002857effffffffffffffffffffffffffffffffffffffffffffffffffffffffffffff19161461174f576002611752565b60015b8360000190600481111561176257fe5b9081600481111561176f57fe5b815250508960000151836020018181525050600183604001901515908115158152505060018a60200151038a60400181815250506122b6565b607d7f010000000000000000000000000000000000000000000000000000000000000002857effffffffffffffffffffffffffffffffffffffffffffffffffffffffffffff1916148061183f5750605d7f010000000000000000000000000000000000000000000000000000000000000002857effffffffffffffffffffffffffffffffffffffffffffffffffffffffffffff1916145b15611a7f57607d7f010000000000000000000000000000000000000000000000000000000000000002857effffffffffffffffffffffffffffffffffffffffffffffffffffffffffffff19161461189757600261189a565b60015b91506000905060018a602001510395505b6000861015156119ae5788868151811015156118c357fe5b906020019060200201519250826040015180156118e257508260800151155b156119a0578160048111156118f357fe5b8360000151600481111561190357fe5b14151561191d5760018960008090509d509d509d506122da565b7fffffffffffffffffffffffffffffffffffffffffffffffffffffffffffffffff8a604001818152505060018a6000015101898781518110151561195d57fe5b9060200190602002015160600181815250506001898781518110151561197f57fe5b906020019060200201516080019015159081151581525050600190506119ae565b8580600190039650506118ab565b8015156119c85760018960008090509d509d509d506122da565b5b6000861115611a215788868151811015156119e057fe5b906020019060200201519250826040015180156119ff57508260800151155b15611a1357858a6040018181525050611a21565b8580600190039650506119c9565b6000861415611a7a578886815181101515611a3857fe5b90602001906020020151925082604001518015611a5757508260800151155b15611a7957856fffffffffffffffffffffffffffffffff168a60400181815250505b5b6122b6565b7f2200000000000000000000000000000000000000000000000000000000000000857effffffffffffffffffffffffffffffffffffffffffffffffffffffffffffff19161415611b5e57611ad48a8a8d612737565b9750600088141515611af257878960008090509d509d509d506122da565b86806001019750507fffffffffffffffffffffffffffffffffffffffffffffffffffffffffffffffff8a60400151141515611b5957888a60400151815181101515611b3957fe5b9060200190602002015160a001805180919060010160ff1660ff16815250505b6122b6565b7f2000000000000000000000000000000000000000000000000000000000000000857effffffffffffffffffffffffffffffffffffffffffffffffffffffffffffff19161480611bf2575060117f010000000000000000000000000000000000000000000000000000000000000002857effffffffffffffffffffffffffffffffffffffffffffffffffffffffffffff1916145b80611c41575060127f010000000000000000000000000000000000000000000000000000000000000002857effffffffffffffffffffffffffffffffffffffffffffffffffffffffffffff1916145b80611c90575060147f010000000000000000000000000000000000000000000000000000000000000002857effffffffffffffffffffffffffffffffffffffffffffffffffffffffffffff1916145b15611c9a576122b6565b7f3a00000000000000000000000000000000000000000000000000000000000000857effffffffffffffffffffffffffffffffffffffffffffffffffffffffffffff19161415611cfa5760018a60200151038a60400181815250506122b6565b7f2c00000000000000000000000000000000000000000000000000000000000000857effffffffffffffffffffffffffffffffffffffffffffffffffffffffffffff19161415611eea577fffffffffffffffffffffffffffffffffffffffffffffffffffffffffffffffff8a6040015114158015611dae575060026004811115611d8057fe5b898b60400151815181101515611d9257fe5b90602001906020020151600001516004811115611dab57fe5b14155b8015611df0575060016004811115611dc257fe5b898b60400151815181101515611dd457fe5b90602001906020020151600001516004811115611ded57fe5b14155b15611ee55760018a602001510395505b600086101515611ee45760026004811115611e1757fe5b8987815181101515611e2557fe5b90602001906020020151600001516004811115611e3e57fe5b1480611e7b575060016004811115611e5257fe5b8987815181101515611e6057fe5b90602001906020020151600001516004811115611e7957fe5b145b15611ed6578886815181101515611e8e57fe5b90602001906020020151604001518015611ec157508886815181101515611eb157fe5b9060200190602002015160800151155b15611ed557858a6040018181525050611ee4565b5b858060019003965050611e00565b5b6122b6565b7f3000000000000000000000000000000000000000000000000000000000000000857effffffffffffffffffffffffffffffffffffffffffffffffffffffffffffff191610158015611f7e57507f3900000000000000000000000000000000000000000000000000000000000000857effffffffffffffffffffffffffffffffffffffffffffffffffffffffffffff191611155b80611fca57507f2d00000000000000000000000000000000000000000000000000000000000000857effffffffffffffffffffffffffffffffffffffffffffffffffffffffffffff1916145b8061201657507f6600000000000000000000000000000000000000000000000000000000000000857effffffffffffffffffffffffffffffffffffffffffffffffffffffffffffff1916145b8061206257507f7400000000000000000000000000000000000000000000000000000000000000857effffffffffffffffffffffffffffffffffffffffffffffffffffffffffffff1916145b806120ae57507f6e00000000000000000000000000000000000000000000000000000000000000857effffffffffffffffffffffffffffffffffffffffffffffffffffffffffffff1916145b15612203577fffffffffffffffffffffffffffffffffffffffffffffffffffffffffffffffff8a6040015114151561216e57888a604001518151811015156120f257fe5b9060200190602002015192506001600481111561210b57fe5b8360000151600481111561211b57fe5b148061215557506003600481111561212f57fe5b8360000151600481111561213f57fe5b148015612154575060008360a0015160ff1614155b5b1561216d5760018960008090509d509d509d506122da565b5b6121798a8a8d612e4e565b975060008814151561219757878960008090509d509d509d506122da565b86806001019750507fffffffffffffffffffffffffffffffffffffffffffffffffffffffffffffffff8a604001511415156121fe57888a604001518151811015156121de57fe5b9060200190602002015160a001805180919060010160ff1660ff16815250505b6122b6565b60207f010000000000000000000000000000000000000000000000000000000000000002857effffffffffffffffffffffffffffffffffffffffffffffffffffffffffffff19161015801561229d5750607e7f010000000000000000000000000000000000000000000000000000000000000002857effffffffffffffffffffffffffffffffffffffffffffffffffffffffffffff191611155b156122b55760018960008090509d509d509d506122da565b5b89600001805180919060010181525050611565565b6000898b602001519d509d509d505b50505050505050505050509250925092565b6122f4613d2e565b6122fc613d82565b612304613d82565b60008692508585036040518059106123195750595b9080825280601f01601f191660200182016040525091508590505b848110156123e257828181518110151561234a57fe5b9060200101517f010000000000000000000000000000000000000000000000000000000000000090047f010000000000000000000000000000000000000000000000000000000000000002828783038151811015156123a557fe5b9060200101907effffffffffffffffffffffffffffffffffffffffffffffffffffffffffffff1916908160001a9053508080600101915050612334565b8193505050509392505050565b60006123fc826000613230565b9050919050565b61240b613d82565b6124388260017f01000000000000000000000000000000000000000000000000000000000000000261360f565b9050919050565b612447613d96565b600060208301905060408051908101604052808451815260200182815250915050919050565b612475613d96565b818360000151111561248c57818360000181815250505b82905092915050565b6000806124a28484613a3c565b14905092915050565b6124b3613d96565b60006124d18460000151856020015185600001518660200151613af6565b905083602001518103846000018181510391508181525050808460200181815250508391505092915050565b612505613d96565b82600001518263ffffffff161115151561251e57600080fd5b8163ffffffff168360200181815101915081815250508163ffffffff1683600001818151039150818152505082905092915050565b61255b613d82565b612563613d82565b600083600001516040518059106125775750595b9080825280601f01601f191660200182016040525091506020820190506125a78185602001518660000151613bb2565b8192505050919050565b6125b9613db0565b6125c1613d42565b6125c9613db0565b6125d1613d42565b60606040519081016040528060008152602001600081526020017fffffffffffffffffffffffffffffffffffffffffffffffffffffffffffffffff81525091508460405180591061261f5750595b90808252806020026020018201604052801561265557816020015b612642613e1b565b81526020019060019003908161263a5790505b5090508181935093505050915091565b600061266f613dd2565b612677613dd2565b835185602001511015156126af57600084600186510381518110151561269957fe5b906020019060200201518090509250925061272f565b60c060405190810160405280600060048111156126c857fe5b81526020016000815260200160001515815260200160008152602001600015158152602001600060ff1681525090508084866020015181518110151561270a57fe5b9060200190602002018190525084602001805180919060010181525050600181925092505b509250929050565b600080600080612745613dd2565b87600001519350876000018051809190600101815250505b855188600001511015612e345785886000015181518110151561277c57fe5b9060200101517f010000000000000000000000000000000000000000000000000000000000000090047f01000000000000000000000000000000000000000000000000000000000000000292507f2200000000000000000000000000000000000000000000000000000000000000837effffffffffffffffffffffffffffffffffffffffffffffffffffffffffffff191614156128585761281d8888612665565b9150915081151561283b578388600001818152505060039450612e43565b61284f816003600187018b60000151613bfd565b60009450612e43565b605c7f010000000000000000000000000000000000000000000000000000000000000002837effffffffffffffffffffffffffffffffffffffffffffffffffffffffffffff19161480156128b3575085516001896000015101105b15612e1e57876000018051809190600101815250507f22000000000000000000000000000000000000000000000000000000000000008689600001518151811015156128fb57fe5b9060200101517f010000000000000000000000000000000000000000000000000000000000000090047f0100000000000000000000000000000000000000000000000000000000000000027effffffffffffffffffffffffffffffffffffffffffffffffffffffffffffff19161480612a1157507f2f000000000000000000000000000000000000000000000000000000000000008689600001518151811015156129a257fe5b9060200101517f010000000000000000000000000000000000000000000000000000000000000090047f0100000000000000000000000000000000000000000000000000000000000000027effffffffffffffffffffffffffffffffffffffffffffffffffffffffffffff1916145b80612ab957507f5c00000000000000000000000000000000000000000000000000000000000000868960000151815181101515612a4a57fe5b9060200101517f010000000000000000000000000000000000000000000000000000000000000090047f0100000000000000000000000000000000000000000000000000000000000000027effffffffffffffffffffffffffffffffffffffffffffffffffffffffffffff1916145b80612b6157507f6600000000000000000000000000000000000000000000000000000000000000868960000151815181101515612af257fe5b9060200101517f010000000000000000000000000000000000000000000000000000000000000090047f0100000000000000000000000000000000000000000000000000000000000000027effffffffffffffffffffffffffffffffffffffffffffffffffffffffffffff1916145b80612c0957507f7200000000000000000000000000000000000000000000000000000000000000868960000151815181101515612b9a57fe5b9060200101517f010000000000000000000000000000000000000000000000000000000000000090047f0100000000000000000000000000000000000000000000000000000000000000027effffffffffffffffffffffffffffffffffffffffffffffffffffffffffffff1916145b80612cb157507f6e00000000000000000000000000000000000000000000000000000000000000868960000151815181101515612c4257fe5b9060200101517f010000000000000000000000000000000000000000000000000000000000000090047f0100000000000000000000000000000000000000000000000000000000000000027effffffffffffffffffffffffffffffffffffffffffffffffffffffffffffff1916145b80612d5957507f6200000000000000000000000000000000000000000000000000000000000000868960000151815181101515612cea57fe5b9060200101517f010000000000000000000000000000000000000000000000000000000000000090047f0100000000000000000000000000000000000000000000000000000000000000027effffffffffffffffffffffffffffffffffffffffffffffffffffffffffffff1916145b80612e0157507f7400000000000000000000000000000000000000000000000000000000000000868960000151815181101515612d9257fe5b9060200101517f010000000000000000000000000000000000000000000000000000000000000090047f0100000000000000000000000000000000000000000000000000000000000000027effffffffffffffffffffffffffffffffffffffffffffffffffffffffffffff1916145b15612e0b57612e1f565b8388600001818152505060019450612e43565b5b8760000180518091906001018152505061275d565b83886000018181525050600294505b505050509392505050565b6000806000806000612e5e613dd2565b60009450886000015193505b8651896000015110156131bb57868960000151815181101515612e8957fe5b9060200101517f010000000000000000000000000000000000000000000000000000000000000090047f01000000000000000000000000000000000000000000000000000000000000000292507f2000000000000000000000000000000000000000000000000000000000000000837effffffffffffffffffffffffffffffffffffffffffffffffffffffffffffff19161480612f6757507f0900000000000000000000000000000000000000000000000000000000000000837effffffffffffffffffffffffffffffffffffffffffffffffffffffffffffff1916145b80612fb357507f0a00000000000000000000000000000000000000000000000000000000000000837effffffffffffffffffffffffffffffffffffffffffffffffffffffffffffff1916145b80612fff57507f0d00000000000000000000000000000000000000000000000000000000000000837effffffffffffffffffffffffffffffffffffffffffffffffffffffffffffff1916145b8061304b57507f2c00000000000000000000000000000000000000000000000000000000000000837effffffffffffffffffffffffffffffffffffffffffffffffffffffffffffff1916145b8061309a5750607d7f010000000000000000000000000000000000000000000000000000000000000002837effffffffffffffffffffffffffffffffffffffffffffffffffffffffffffff1916145b806130e95750605d7f010000000000000000000000000000000000000000000000000000000000000002837effffffffffffffffffffffffffffffffffffffffffffffffffffffffffffff1916145b156130f757600194506131bb565b60207f010000000000000000000000000000000000000000000000000000000000000002837effffffffffffffffffffffffffffffffffffffffffffffffffffffffffffff1916108061318e5750607f7f010000000000000000000000000000000000000000000000000000000000000002837effffffffffffffffffffffffffffffffffffffffffffffffffffffffffffff1916115b156131a6578389600001818152505060019550613224565b88600001805180919060010181525050612e6a565b8415156131d5578389600001818152505060029550613224565b6131df8989612665565b915091508115156131fd578389600001818152505060039550613224565b61320e816004868c60000151613bfd565b8860000180518091906001900381525050600095505b50505050509392505050565b600061323a613d82565b600080600080879450600093506000925060009150600090505b84518110156135c35760008114801561330657507f2d00000000000000000000000000000000000000000000000000000000000000858281518110151561329757fe5b9060200101517f010000000000000000000000000000000000000000000000000000000000000090047f0100000000000000000000000000000000000000000000000000000000000000027effffffffffffffffffffffffffffffffffffffffffffffffffffffffffffff1916145b1561331057600191505b60307f010000000000000000000000000000000000000000000000000000000000000002858281518110151561334257fe5b9060200101517f010000000000000000000000000000000000000000000000000000000000000090047f0100000000000000000000000000000000000000000000000000000000000000027effffffffffffffffffffffffffffffffffffffffffffffffffffffffffffff19161015801561345a575060397f01000000000000000000000000000000000000000000000000000000000000000285828151811015156133ea57fe5b9060200101517f010000000000000000000000000000000000000000000000000000000000000090047f0100000000000000000000000000000000000000000000000000000000000000027effffffffffffffffffffffffffffffffffffffffffffffffffffffffffffff191611155b1561350b57821561347d576000871415613473576135c3565b8680600190039750505b600a840293506030858281518110151561349357fe5b9060200101517f010000000000000000000000000000000000000000000000000000000000000090047f0100000000000000000000000000000000000000000000000000000000000000027f0100000000000000000000000000000000000000000000000000000000000000900403840193506135b6565b602e7f010000000000000000000000000000000000000000000000000000000000000002858281518110151561353d57fe5b9060200101517f010000000000000000000000000000000000000000000000000000000000000090047f0100000000000000000000000000000000000000000000000000000000000000027effffffffffffffffffffffffffffffffffffffffffffffffffffffffffffff191614156135b557600192505b5b8080600101915050613254565b60008711156135d55786600a0a840293505b8115613601577fffffffffffffffffffffffffffffffffffffffffffffffffffffffffffffffff840293505b839550505050505092915050565b613617613d82565b61361f613d82565b600080600080600061362f613d96565b602060405190810160405280600081525096506060955089601b81518110151561365557fe5b9060200101517f010000000000000000000000000000000000000000000000000000000000000090047f0100000000000000000000000000000000000000000000000000000000000000027f01000000000000000000000000000000000000000000000000000000000000009004610100028a601a8151811015156136d657fe5b9060200101517f010000000000000000000000000000000000000000000000000000000000000090047f0100000000000000000000000000000000000000000000000000000000000000027f010000000000000000000000000000000000000000000000000000000000000090040186019550600093505b89600781518110151561375d57fe5b9060200101517f010000000000000000000000000000000000000000000000000000000000000090047f0100000000000000000000000000000000000000000000000000000000000000027f01000000000000000000000000000000000000000000000000000000000000009004610100028a60068151811015156137de57fe5b9060200101517f010000000000000000000000000000000000000000000000000000000000000090047f0100000000000000000000000000000000000000000000000000000000000000027f010000000000000000000000000000000000000000000000000000000000000090040161ffff168461ffff161015613a2c57602186018a0151925082600160028110151561387457fe5b1a7f0100000000000000000000000000000000000000000000000000000000000000027f01000000000000000000000000000000000000000000000000000000000000009004610100028360006002811015156138cd57fe5b1a7f0100000000000000000000000000000000000000000000000000000000000000027f01000000000000000000000000000000000000000000000000000000000000009004019150896003870161ffff1681518110151561392b57fe5b9060200101517f010000000000000000000000000000000000000000000000000000000000000090047f0100000000000000000000000000000000000000000000000000000000000000029450600486019550887effffffffffffffffffffffffffffffffffffffffffffffffffffffffffffff1916857effffffffffffffffffffffffffffffffffffffffffffffffffffffffffffff19161415613a17576139f78261ffff166139e98861ffff168d613c6e90919063ffffffff16565b61246d90919063ffffffff16565b9050613a1481613a068961243f565b613c9c90919063ffffffff16565b96505b6010820186019550838060010194505061374e565b8697505050505050505092915050565b60008060008060008060008060008a6000015197508a600001518a600001511015613a6957896000015197505b8a60200151965089602001519550600094505b87851015613ada5786519350855192508284141515613ac357600185896020030160080260020a03199150818316828516039050600081141515613ac257809850613ae8565b5b602087019650602086019550602085019450613a7c565b89600001518b600001510398505b505050505050505092915050565b60008060008060008887111515613ba057602087111515613b575760018760200360080260020a031980875116888b038a018a96505b818388511614613b4c57600187019650806001880310613b2c578b8b0196505b505050839450613ba6565b8686209150879350600092505b86890383111515613b9f578684209050806000191682600019161415613b8c57839450613ba6565b6001840193508280600101935050613b64565b5b88880194505b50505050949350505050565b60005b602082101515613bda5782518452602084019350602083019250602082039150613bb5565b6001826020036101000a0390508019835116818551168181178652505050505050565b8284600001906004811115613c0e57fe5b90816004811115613c1b57fe5b8152505081846020018181525050600184604001901515908115158152505080846060018181525050600184608001901515908115158152505060008460a0019060ff16908160ff168152505050505050565b613c76613d96565b613c7e613d96565b613c878461243f565b9050613c9381846124fd565b91505092915050565b613ca4613d82565b613cac613d82565b60008360000151856000015101604051805910613cc65750595b9080825280601f01601f19166020018201604052509150602082019050613cf68186602001518760000151613bb2565b613d0f8560000151820185602001518660000151613bb2565b819250505092915050565b602060405190810160405280600081525090565b602060405190810160405280600081525090565b602060405190810160405280600081525090565b815481835581811511613d7d57818360005260206000209182019101613d7c9190613e64565b5b505050565b602060405190810160405280600081525090565b604080519081016040528060008152602001600081525090565b6060604051908101604052806000815260200160008152602001600081525090565b60c06040519081016040528060006004811115613deb57fe5b81526020016000815260200160001515815260200160008152602001600015158152602001600060ff1681525090565b60c06040519081016040528060006004811115613e3457fe5b81526020016000815260200160001515815260200160008152602001600015158152602001600060ff1681525090565b613e8691905b80821115613e82576000816000905550600101613e6a565b5090565b905600a165627a7a723058205b5baad1b15adcf1847135171cc0e6cce0ae80e74990c4c41d1c49e80aed4fba0029",
  "source": "pragma solidity ^0.4.18;\nimport \"../installed_contracts/jsmnsol-lib/contracts/JsmnSolLib.sol\";\nimport \"../installed_contracts/bytesutils.sol\";\nimport \"../installed_contracts/tlsnutils.sol\";\n\ncontract Lending {\n\n  /***********************************/\n  /******* CONTRACT ATTRIBUTES *******/\n  /***********************************/\n\n  struct LendingContract {\n    uint lendingID;\n    address proposer;\n    address acceptor;\n    uint borrowedAmount;\n    uint startTime;\n    uint endTime;\n    uint lendingTimePeriod;\n    uint collateralAssetID;\n    bool filled;\n    bool deleted;\n    uint totalPremium;\n  }\n\n  struct AssetOwnership {\n    uint assetID;\n    address owner;\n    uint value;\n    bool borrowedAgainst;\n  }\n\n  address public master;\n\n  uint[] lendingIDs;\n  uint lendingContractCount;\n  mapping(uint => LendingContract) public allLendingContracts;\n\n  uint[] assetIDs;\n  uint assetCount;\n  mapping(uint => AssetOwnership) public allAssets;\n\n  /***********************************/\n  /************* MODIFIERS ***********/\n  /***********************************/\n\n  modifier isOwner() {\n    require(msg.sender == master);\n    _; // continue executing rest of method body\n  }\n\n  /***********************************/\n  /************** EVENTS *************/\n  /***********************************/\n\n  event AssetChange(uint assetID);\n  event LendingContractChange(uint lendingID);\n  event Premium(uint premiumAmount);\n\n  /***********************************/\n  /********* PUBLIC FUNCTIONS ********/\n  /***********************************/\n\n  /// @dev      Lending contract constructor sets initial lending contract count to 0\n  function Lending() public {\n    master = msg.sender;\n    lendingContractCount = 0;\n    assetCount = 0;\n  }\n\n  /// @dev                      Allows a user with an asset to request a loan\n  /// @param  _assetID          The json file passing the interest rate\n  /// @param  _borrowAmount     The amount wanted to be borrowed by the user\n  /// @param  _lending_period   The number of weeks the user wants to borrow the money for\n  /// @param  _hex_proof        The number of weeks the user wants to borrow the money for\n  function borrowFunds(uint _assetID, uint _borrowAmount, uint _lending_period, bytes memory _hex_proof) public payable {\n    require(!allAssets[_assetID].borrowedAgainst);\n    require(allAssets[_assetID].value >= _borrowAmount);\n    require(allAssets[_assetID].owner == msg.sender);\n\n    // Verify the TLS-N Proof\n    //require(verifyProof(_hex_proof));\n\n    // Parse the response body of the TLS-N proof\n    string memory body = string(tlsnutils.getHTTPBody(_hex_proof));\n    JsmnSolLib.Token[] memory tokens;\n    uint returnValue;\n    uint actualNum;\n    (returnValue, tokens, actualNum) = JsmnSolLib.parse(body, 100);\n\n    // Get the interest rate\n    string memory interest_string = JsmnSolLib.getBytes(body, tokens[43].start, tokens[43].end);\n    int interest_int = JsmnSolLib.parseInt(interest_string);\n\n    // Check the user has passed in the right premium to match the interest rate\n    uint yearly_premium = ((msg.value * 100 * 52) / _lending_period)/_borrowAmount;\n    Premium(yearly_premium);\n    //require(yearly_premium == uint(interest_int));\n\n    // Setup Contract\n    uint lendingID = (lendingContractCount++)+1000;\n    lendingIDs.push(lendingID);\n    allLendingContracts[lendingID] = LendingContract(lendingID, msg.sender, 0, _borrowAmount, 0, 0, _lending_period, _assetID, false, false, msg.value);\n    LendingContractChange(lendingID);\n  }\n\n  /// @dev                  Allows a user to lend funds to another user\n  /// @param  _lendingID    The ID of the lending contract to be fulfilled\n  function lendFunds(uint _lendingID) public payable {\n    require(msg.value == allLendingContracts[_lendingID].borrowedAmount);\n    require(!allLendingContracts[_lendingID].filled);\n    allLendingContracts[_lendingID].proposer.transfer(msg.value);\n    msg.sender.transfer(allLendingContracts[_lendingID].totalPremium);\n    allLendingContracts[_lendingID].filled = true;\n    allLendingContracts[_lendingID].acceptor = msg.sender;\n    allLendingContracts[_lendingID].startTime = now;\n    allLendingContracts[_lendingID].endTime = now + (allLendingContracts[_lendingID].lendingTimePeriod * 1 weeks);\n  }\n\n  /// @dev                  Allows the original user who borrowed funds to pay the money back\n  /// @param  _lendingID    The ID of the lending contract to be paid back\n  function payFundsBack(uint _lendingID) public payable {\n    require(allLendingContracts[_lendingID].proposer == msg.sender);\n    require(allLendingContracts[_lendingID].borrowedAmount == msg.value);\n    require(allLendingContracts[_lendingID].filled);\n    require(now < allLendingContracts[_lendingID].endTime);\n\n    allLendingContracts[_lendingID].acceptor.transfer(msg.value);\n    allLendingContracts[_lendingID].deleted = true;\n    allAssets[allLendingContracts[_lendingID].collateralAssetID].borrowedAgainst = false;\n    lendingContractCount--;\n  }\n\n  /// @dev                  Allows a lender to report a late payment\n  /// @param  _lendingID    The ID of the lending contract that has not been paid\n  function reportLatePayment(uint _lendingID) public payable {\n    uint time = now;\n    require(allLendingContracts[_lendingID].acceptor == msg.sender);\n    require(allLendingContracts[_lendingID].filled);\n    require(!allLendingContracts[_lendingID].deleted);\n    require(time > allLendingContracts[_lendingID].endTime);\n\n    allAssets[allLendingContracts[_lendingID].collateralAssetID].owner = msg.sender;\n    allAssets[allLendingContracts[_lendingID].collateralAssetID].borrowedAgainst = false;\n    allLendingContracts[_lendingID].deleted = true;\n  }\n\n  /// @dev                  Allows the owner of the contract to add assets\n  /// @param  _owner        The address of the owner of the asset\n  /// @param  _value        The value of the asset being added\n  function addAsset(address _owner, uint _value) public isOwner {\n    uint assetID = (assetCount++)+1000;\n    assetIDs.push(assetID);\n    allAssets[assetID] = AssetOwnership(assetID, _owner, _value, false);\n    AssetChange(assetID);\n  }\n\n  /// @dev                  Allows the owner of the contract or the owner of the asset to transfer ownership\n  /// @param  _recipient    The address of the recipient of the asset\n  /// @param  _assetID      The ID of the asset to be transferred\n  function transferOwnership(address _recipient, uint _assetID) public {\n    require(allAssets[_assetID].owner == msg.sender || msg.sender == master);\n    allAssets[_assetID].owner = _recipient;\n  }\n\n  /// @dev                  Allows the owner of the contract to change the value of an asset\n  /// @param  _assetID      The ID of the asset to be re-valued\n  /// @param  _new_value    The new value of the asset\n  function changeValue(uint _assetID, uint _new_value) public isOwner {\n    allAssets[_assetID].value = _new_value;\n  }\n\n  /// @dev       Allows requestor to return all lending IDs\n  /// @return    Returns the lending IDs of every outstanding lending contract\n  function getLendingIds() public constant returns (uint[]) {\n    return lendingIDs;\n  }\n\n  /// @dev       Allows requestor to return all asset IDs\n  /// @return    Returns the asset IDs of every asset in the contract\n  function getAssetIds() public constant returns (uint[]) {\n    return assetIDs;\n  }\n\n  /// @dev       Allows requestor to return the number of outstanding lending contracts\n  /// @return    Returns the number of lending contracts outstanding\n  function getLendingContractCount() public constant returns (uint) {\n    return lendingContractCount;\n  }\n\n  /// @dev       Allows requestor to return the number of assets\n  /// @return    Returns the number of assets in the contract\n  function getAssetCount() public constant returns (uint) {\n    return assetCount;\n  }\n\n  /***********************************/\n  /******** PRIVATE FUNCTIONS ********/\n  /***********************************/\n\n  function verifyProof(bytes memory proof) private returns (bool){\n    uint qx = 0xe0a5793d275a533d50421b201c2c9a909abb58b1a9c0f9eb9b7963e5c8bc2295;\n    uint qy = 0xf34d47cb92b6474562675127677d4e446418498884c101aeb38f3afb0cab997e;\n    if(tlsnutils.verifyProof(proof, qx, qy)){\n      return true;\n    }\n    return false;\n  }\n\n}\n",
  "sourcePath": "/home/vincent/Documents/imperial/group project/Lending-With-Smart-Contracts/contracts/Lending.sol",
  "compiler": {
    "name": "solc",
    "version": "0.4.19+commit.c4cbbb05.Emscripten.clang"
  },
  "schemaVersion": "1.0.1",
  "updatedAt": "2018-05-15T14:35:51.167Z"
}