{
  "contractName": "Lending",
  "abi": [
    {
      "constant": false,
      "inputs": [
        {
          "name": "_recipient",
          "type": "address"
        },
        {
          "name": "_assetID",
          "type": "uint256"
        }
      ],
      "name": "transferOwnership",
      "outputs": [],
      "payable": false,
      "stateMutability": "nonpayable",
      "type": "function"
    },
    {
      "constant": true,
      "inputs": [],
      "name": "getLendingIds",
      "outputs": [
        {
          "name": "",
          "type": "uint256[]"
        }
      ],
      "payable": false,
      "stateMutability": "view",
      "type": "function"
    },
    {
      "constant": false,
      "inputs": [
        {
          "name": "_lendingID",
          "type": "uint256"
        }
      ],
      "name": "reportLatePayment",
      "outputs": [],
      "payable": true,
      "stateMutability": "payable",
      "type": "function"
    },
    {
      "constant": false,
      "inputs": [
        {
          "name": "_assetID",
          "type": "uint256"
        },
        {
          "name": "_borrowAmount",
          "type": "uint256"
        },
        {
          "name": "_lending_period",
          "type": "uint256"
        },
        {
          "name": "_hex_proof",
          "type": "bytes"
        }
      ],
      "name": "borrowFunds",
      "outputs": [],
      "payable": true,
      "stateMutability": "payable",
      "type": "function"
    },
    {
      "constant": true,
      "inputs": [
        {
          "name": "",
          "type": "uint256"
        }
      ],
      "name": "allAssets",
      "outputs": [
        {
          "name": "assetID",
          "type": "uint256"
        },
        {
          "name": "owner",
          "type": "address"
        },
        {
          "name": "value",
          "type": "uint256"
        },
        {
          "name": "borrowedAgainst",
          "type": "bool"
        }
      ],
      "payable": false,
      "stateMutability": "view",
      "type": "function"
    },
    {
      "constant": false,
      "inputs": [
        {
          "name": "_owner",
          "type": "address"
        },
        {
          "name": "_value",
          "type": "uint256"
        }
      ],
      "name": "addAsset",
      "outputs": [],
      "payable": false,
      "stateMutability": "nonpayable",
      "type": "function"
    },
    {
      "constant": false,
      "inputs": [
        {
          "name": "_assetID",
          "type": "uint256"
        },
        {
          "name": "_new_value",
          "type": "uint256"
        }
      ],
      "name": "changeValue",
      "outputs": [],
      "payable": false,
      "stateMutability": "nonpayable",
      "type": "function"
    },
    {
      "constant": true,
      "inputs": [],
      "name": "getAssetCount",
      "outputs": [
        {
          "name": "",
          "type": "uint256"
        }
      ],
      "payable": false,
      "stateMutability": "view",
      "type": "function"
    },
    {
      "constant": false,
      "inputs": [
        {
          "name": "_lendingID",
          "type": "uint256"
        }
      ],
      "name": "lendFunds",
      "outputs": [],
      "payable": true,
      "stateMutability": "payable",
      "type": "function"
    },
    {
      "constant": true,
      "inputs": [],
      "name": "getLendingContractCount",
      "outputs": [
        {
          "name": "",
          "type": "uint256"
        }
      ],
      "payable": false,
      "stateMutability": "view",
      "type": "function"
    },
    {
      "constant": false,
      "inputs": [
        {
          "name": "_lendingID",
          "type": "uint256"
        }
      ],
      "name": "payFundsBack",
      "outputs": [],
      "payable": true,
      "stateMutability": "payable",
      "type": "function"
    },
    {
      "constant": false,
      "inputs": [
        {
          "name": "_lendingID",
          "type": "uint256"
        }
      ],
      "name": "cancelLoan",
      "outputs": [],
      "payable": true,
      "stateMutability": "payable",
      "type": "function"
    },
    {
      "constant": true,
      "inputs": [
        {
          "name": "",
          "type": "uint256"
        }
      ],
      "name": "allLendingContracts",
      "outputs": [
        {
          "name": "lendingID",
          "type": "uint256"
        },
        {
          "name": "proposer",
          "type": "address"
        },
        {
          "name": "acceptor",
          "type": "address"
        },
        {
          "name": "borrowedAmount",
          "type": "uint256"
        },
        {
          "name": "startTime",
          "type": "uint256"
        },
        {
          "name": "endTime",
          "type": "uint256"
        },
        {
          "name": "lendingTimePeriod",
          "type": "uint256"
        },
        {
          "name": "collateralAssetID",
          "type": "uint256"
        },
        {
          "name": "filled",
          "type": "bool"
        },
        {
          "name": "deleted",
          "type": "bool"
        },
        {
          "name": "totalPremium",
          "type": "uint256"
        }
      ],
      "payable": false,
      "stateMutability": "view",
      "type": "function"
    },
    {
      "constant": true,
      "inputs": [],
      "name": "getAssetIds",
      "outputs": [
        {
          "name": "",
          "type": "uint256[]"
        }
      ],
      "payable": false,
      "stateMutability": "view",
      "type": "function"
    },
    {
      "constant": true,
      "inputs": [],
      "name": "master",
      "outputs": [
        {
          "name": "",
          "type": "address"
        }
      ],
      "payable": false,
      "stateMutability": "view",
      "type": "function"
    },
    {
      "inputs": [],
      "payable": false,
      "stateMutability": "nonpayable",
      "type": "constructor"
    },
    {
      "anonymous": false,
      "inputs": [
        {
          "indexed": false,
          "name": "assetID",
          "type": "uint256"
        }
      ],
      "name": "AssetChange",
      "type": "event"
    },
    {
      "anonymous": false,
      "inputs": [
        {
          "indexed": false,
          "name": "lendingID",
          "type": "uint256"
        }
      ],
      "name": "LendingContractChange",
      "type": "event"
    }
  ],
  "bytecode": "0x6060604052341561000f57600080fd5b336000806101000a81548173ffffffffffffffffffffffffffffffffffffffff021916908373ffffffffffffffffffffffffffffffffffffffff160217905550600060028190555060006005819055506142288061006e6000396000f3006060604052600436106100db576000357c0100000000000000000000000000000000000000000000000000000000900463ffffffff1680630a276680146100e0578063179fd7631461012257806333a10c9f1461018c57806334b44db2146101a4578063578e5c221461021157806366a6a4bd1461028d5780638709b2e7146102cf578063a0aead4d146102fb578063aa2d572114610324578063b0ffd2401461033c578063b3798b9414610365578063bdbfa3de1461037d578063c172da6014610395578063e47e1c0b14610472578063ee97f7f3146104dc575b600080fd5b34156100eb57600080fd5b610120600480803573ffffffffffffffffffffffffffffffffffffffff16906020019091908035906020019091905050610531565b005b341561012d57600080fd5b610135610651565b6040518080602001828103825283818151815260200191508051906020019060200280838360005b8381101561017857808201518184015260208101905061015d565b505050509050019250505060405180910390f35b6101a260048080359060200190919050506106af565b005b61020f600480803590602001909190803590602001909190803590602001909190803590602001908201803590602001908080601f016020809104026020016040519081016040528093929190818152602001838380828437820191505050505050919050506108c1565b005b341561021c57600080fd5b6102326004808035906020019091905050610ca1565b604051808581526020018473ffffffffffffffffffffffffffffffffffffffff1673ffffffffffffffffffffffffffffffffffffffff1681526020018381526020018215151515815260200194505050505060405180910390f35b341561029857600080fd5b6102cd600480803573ffffffffffffffffffffffffffffffffffffffff16906020019091908035906020019091905050610cfe565b005b34156102da57600080fd5b6102f96004808035906020019091908035906020019091905050610ea3565b005b341561030657600080fd5b61030e610f1d565b6040518082815260200191505060405180910390f35b61033a6004808035906020019091905050610f27565b005b341561034757600080fd5b61034f611121565b6040518082815260200191505060405180910390f35b61037b600480803590602001909190505061112b565b005b6103936004808035906020019091905050611349565b005b34156103a057600080fd5b6103b660048080359060200190919050506114d8565b604051808c81526020018b73ffffffffffffffffffffffffffffffffffffffff1673ffffffffffffffffffffffffffffffffffffffff1681526020018a73ffffffffffffffffffffffffffffffffffffffff1673ffffffffffffffffffffffffffffffffffffffff16815260200189815260200188815260200187815260200186815260200185815260200184151515158152602001831515151581526020018281526020019b50505050505050505050505060405180910390f35b341561047d57600080fd5b61048561158c565b6040518080602001828103825283818151815260200191508051906020019060200280838360005b838110156104c85780820151818401526020810190506104ad565b505050509050019250505060405180910390f35b34156104e757600080fd5b6104ef6115ea565b604051808273ffffffffffffffffffffffffffffffffffffffff1673ffffffffffffffffffffffffffffffffffffffff16815260200191505060405180910390f35b3373ffffffffffffffffffffffffffffffffffffffff166006600083815260200190815260200160002060010160009054906101000a900473ffffffffffffffffffffffffffffffffffffffff1673ffffffffffffffffffffffffffffffffffffffff1614806105ed57506000809054906101000a900473ffffffffffffffffffffffffffffffffffffffff1673ffffffffffffffffffffffffffffffffffffffff163373ffffffffffffffffffffffffffffffffffffffff16145b15156105f857600080fd5b816006600083815260200190815260200160002060010160006101000a81548173ffffffffffffffffffffffffffffffffffffffff021916908373ffffffffffffffffffffffffffffffffffffffff1602179055505050565b61065961408d565b60018054806020026020016040519081016040528092919081815260200182805480156106a557602002820191906000526020600020905b815481526020019060010190808311610691575b5050505050905090565b60004290503373ffffffffffffffffffffffffffffffffffffffff166003600084815260200190815260200160002060020160009054906101000a900473ffffffffffffffffffffffffffffffffffffffff1673ffffffffffffffffffffffffffffffffffffffff1614151561072457600080fd5b6003600083815260200190815260200160002060080160009054906101000a900460ff16151561075357600080fd5b6003600083815260200190815260200160002060080160019054906101000a900460ff1615151561078357600080fd5b6003600083815260200190815260200160002060050154811115156107a757600080fd5b33600660006003600086815260200190815260200160002060070154815260200190815260200160002060010160006101000a81548173ffffffffffffffffffffffffffffffffffffffff021916908373ffffffffffffffffffffffffffffffffffffffff1602179055506000600660006003600086815260200190815260200160002060070154815260200190815260200160002060030160006101000a81548160ff02191690831515021790555060016003600084815260200190815260200160002060080160016101000a81548160ff0219169083151502179055507f218e83f0def1a3bd30ad9959bf2f3aba63bdba681cf9c513544b04e2a7b9841b826040518082815260200191505060405180910390a15050565b6108c96140a1565b6108d16140b5565b6000806108dc6140a1565b6000806000600660008d815260200190815260200160002060030160009054906101000a900460ff1615151561091157600080fd5b8a600660008e8152602001908152602001600020600201541015151561093657600080fd5b3373ffffffffffffffffffffffffffffffffffffffff16600660008e815260200190815260200160002060010160009054906101000a900473ffffffffffffffffffffffffffffffffffffffff1673ffffffffffffffffffffffffffffffffffffffff161415156109a657600080fd5b60018a101515156109b657600080fd5b6109bf8961160f565b15156109ca57600080fd5b6109d389611777565b97506109e088606461189d565b809750819950829850505050610a2f8888602b8151811015156109ff57fe5b906020019060200201516020015189602b815181101515610a1c57fe5b9060200190602002015160600151612673565b9350610a3c846004612776565b92508a8a6034620186a0340202811515610a5257fe5b04811515610a5c57fe5b0491508282111515610a6d57600080fd5b6103e8600260008154809291906001019190505501905060018054806001018281610a9891906140c9565b916000526020600020900160008390919091505550610160604051908101604052808281526020013373ffffffffffffffffffffffffffffffffffffffff168152602001600073ffffffffffffffffffffffffffffffffffffffff1681526020018c815260200160008152602001600081526020018b81526020018d815260200160001515815260200160001515815260200134815250600360008381526020019081526020016000206000820151816000015560208201518160010160006101000a81548173ffffffffffffffffffffffffffffffffffffffff021916908373ffffffffffffffffffffffffffffffffffffffff16021790555060408201518160020160006101000a81548173ffffffffffffffffffffffffffffffffffffffff021916908373ffffffffffffffffffffffffffffffffffffffff160217905550606082015181600301556080820151816004015560a0820151816005015560c0820151816006015560e082015181600701556101008201518160080160006101000a81548160ff0219169083151502179055506101208201518160080160016101000a81548160ff02191690831515021790555061014082015181600901559050507f218e83f0def1a3bd30ad9959bf2f3aba63bdba681cf9c513544b04e2a7b9841b816040518082815260200191505060405180910390a1505050505050505050505050565b60066020528060005260406000206000915090508060000154908060010160009054906101000a900473ffffffffffffffffffffffffffffffffffffffff16908060020154908060030160009054906101000a900460ff16905084565b60008060009054906101000a900473ffffffffffffffffffffffffffffffffffffffff1673ffffffffffffffffffffffffffffffffffffffff163373ffffffffffffffffffffffffffffffffffffffff16141515610d5b57600080fd5b6103e8600560008154809291906001019190505501905060048054806001018281610d8691906140c9565b9160005260206000209001600083909190915055506080604051908101604052808281526020018473ffffffffffffffffffffffffffffffffffffffff16815260200183815260200160001515815250600660008381526020019081526020016000206000820151816000015560208201518160010160006101000a81548173ffffffffffffffffffffffffffffffffffffffff021916908373ffffffffffffffffffffffffffffffffffffffff1602179055506040820151816002015560608201518160030160006101000a81548160ff0219169083151502179055509050507ff24d0c253be88f9850e777d838abb7174903d76b1516519f6789aa2910489b9c816040518082815260200191505060405180910390a1505050565b6000809054906101000a900473ffffffffffffffffffffffffffffffffffffffff1673ffffffffffffffffffffffffffffffffffffffff163373ffffffffffffffffffffffffffffffffffffffff16141515610efe57600080fd5b8060066000848152602001908152602001600020600201819055505050565b6000600554905090565b600360008281526020019081526020016000206003015434141515610f4b57600080fd5b6003600082815260200190815260200160002060080160009054906101000a900460ff16151515610f7b57600080fd5b6003600082815260200190815260200160002060010160009054906101000a900473ffffffffffffffffffffffffffffffffffffffff1673ffffffffffffffffffffffffffffffffffffffff166108fc349081150290604051600060405180830381858888f193505050501515610ff157600080fd5b3373ffffffffffffffffffffffffffffffffffffffff166108fc60036000848152602001908152602001600020600901549081150290604051600060405180830381858888f19350505050151561104757600080fd5b60016003600083815260200190815260200160002060080160006101000a81548160ff021916908315150217905550336003600083815260200190815260200160002060020160006101000a81548173ffffffffffffffffffffffffffffffffffffffff021916908373ffffffffffffffffffffffffffffffffffffffff16021790555042600360008381526020019081526020016000206004018190555062093a806003600083815260200190815260200160002060060154024201600360008381526020019081526020016000206005018190555050565b6000600254905090565b3373ffffffffffffffffffffffffffffffffffffffff166003600083815260200190815260200160002060010160009054906101000a900473ffffffffffffffffffffffffffffffffffffffff1673ffffffffffffffffffffffffffffffffffffffff1614151561119b57600080fd5b3460036000838152602001908152602001600020600301541415156111bf57600080fd5b6003600082815260200190815260200160002060080160009054906101000a900460ff1615156111ee57600080fd5b60036000828152602001908152602001600020600501544210151561121257600080fd5b6003600082815260200190815260200160002060020160009054906101000a900473ffffffffffffffffffffffffffffffffffffffff1673ffffffffffffffffffffffffffffffffffffffff166108fc349081150290604051600060405180830381858888f19350505050151561128857600080fd5b60016003600083815260200190815260200160002060080160016101000a81548160ff0219169083151502179055506000600660006003600085815260200190815260200160002060070154815260200190815260200160002060030160006101000a81548160ff021916908315150217905550600260008154809291906001900391905055507f218e83f0def1a3bd30ad9959bf2f3aba63bdba681cf9c513544b04e2a7b9841b816040518082815260200191505060405180910390a150565b6003600082815260200190815260200160002060010160009054906101000a900473ffffffffffffffffffffffffffffffffffffffff1673ffffffffffffffffffffffffffffffffffffffff163373ffffffffffffffffffffffffffffffffffffffff161415156113b957600080fd5b6003600082815260200190815260200160002060080160009054906101000a900460ff161515156113e957600080fd5b6003600082815260200190815260200160002060080160019054906101000a900460ff1615151561141957600080fd5b60016003600083815260200190815260200160002060080160016101000a81548160ff0219169083151502179055507f218e83f0def1a3bd30ad9959bf2f3aba63bdba681cf9c513544b04e2a7b9841b816040518082815260200191505060405180910390a13373ffffffffffffffffffffffffffffffffffffffff166108fc60036000848152602001908152602001600020600901549081150290604051600060405180830381858888f1935050505015156114d557600080fd5b50565b60036020528060005260406000206000915090508060000154908060010160009054906101000a900473ffffffffffffffffffffffffffffffffffffffff16908060020160009054906101000a900473ffffffffffffffffffffffffffffffffffffffff16908060030154908060040154908060050154908060060154908060070154908060080160009054906101000a900460ff16908060080160019054906101000a900460ff1690806009015490508b565b61159461408d565b60048054806020026020016040519081016040528092919081815260200182805480156115e057602002820191906000526020600020905b8154815260200190600101908083116115cc575b5050505050905090565b6000809054906101000a900473ffffffffffffffffffffffffffffffffffffffff1681565b60008060007fe0a5793d275a533d50421b201c2c9a909abb58b1a9c0f9eb9b7963e5c8bc229591507ff34d47cb92b6474562675127677d4e446418498884c101aeb38f3afb0cab997e905073__tlsnutils_____________________________635569909f8584846000604051602001526040518463ffffffff167c01000000000000000000000000000000000000000000000000000000000281526004018080602001848152602001838152602001828103825285818151815260200191508051906020019080838360005b838110156116f75780820151818401526020810190506116dc565b50505050905090810190601f1680156117245780820380516001836020036101000a031916815260200191505b5094505050505060206040518083038186803b151561174257600080fd5b6102c65a03f4151561175357600080fd5b505050604051805190501561176b5760019250611770565b600092505b5050919050565b61177f6140f5565b6117876140f5565b61178f614109565b611797614109565b6117a085612b55565b92506117be600f6117b085612b91565b612bbf90919063ffffffff16565b91506118106118016040805190810160405280600f81526020017f485454502f312e3120323030204f4b0000000000000000000000000000000000815250612b91565b83612be790919063ffffffff16565b151561181b57600080fd5b61187361185c6040805190810160405280600481526020017f0d0a0d0a00000000000000000000000000000000000000000000000000000000815250612b91565b61186585612b91565b612bfd90919063ffffffff16565b9050611889600482612c4f90919063ffffffff16565b5061189381612ca5565b9350505050919050565b60006118a76140b5565b60006118b16140f5565b6118b9614123565b6118c16140b5565b60008060008060006118d1614145565b6000808f9a506118e08f612d03565b99509950896020015196505b8a518a600001511015612652578a8a6000015181518110151561190b57fe5b9060200101517f010000000000000000000000000000000000000000000000000000000000000090047f0100000000000000000000000000000000000000000000000000000000000000029450607b7f010000000000000000000000000000000000000000000000000000000000000002857effffffffffffffffffffffffffffffffffffffffffffffffffffffffffffff191614806119ef5750605b7f010000000000000000000000000000000000000000000000000000000000000002857effffffffffffffffffffffffffffffffffffffffffffffffffffffffffffff1916145b15611b2f578680600101975050611a068a8a612db7565b93509350831515611a245760038960008090509d509d509d50612661565b7fffffffffffffffffffffffffffffffffffffffffffffffffffffffffffffffff8a60400151141515611a8357888a60400151815181101515611a6357fe5b9060200190602002015160a001805180919060010160ff1660ff16815250505b607b7f010000000000000000000000000000000000000000000000000000000000000002857effffffffffffffffffffffffffffffffffffffffffffffffffffffffffffff191614611ad6576002611ad9565b60015b83600001906004811115611ae957fe5b90816004811115611af657fe5b815250508960000151836020018181525050600183604001901515908115158152505060018a60200151038a604001818152505061263d565b607d7f010000000000000000000000000000000000000000000000000000000000000002857effffffffffffffffffffffffffffffffffffffffffffffffffffffffffffff19161480611bc65750605d7f010000000000000000000000000000000000000000000000000000000000000002857effffffffffffffffffffffffffffffffffffffffffffffffffffffffffffff1916145b15611e0657607d7f010000000000000000000000000000000000000000000000000000000000000002857effffffffffffffffffffffffffffffffffffffffffffffffffffffffffffff191614611c1e576002611c21565b60015b91506000905060018a602001510395505b600086101515611d35578886815181101515611c4a57fe5b90602001906020020151925082604001518015611c6957508260800151155b15611d2757816004811115611c7a57fe5b83600001516004811115611c8a57fe5b141515611ca45760018960008090509d509d509d50612661565b7fffffffffffffffffffffffffffffffffffffffffffffffffffffffffffffffff8a604001818152505060018a60000151018987815181101515611ce457fe5b90602001906020020151606001818152505060018987815181101515611d0657fe5b90602001906020020151608001901515908115158152505060019050611d35565b858060019003965050611c32565b801515611d4f5760018960008090509d509d509d50612661565b5b6000861115611da8578886815181101515611d6757fe5b90602001906020020151925082604001518015611d8657508260800151155b15611d9a57858a6040018181525050611da8565b858060019003965050611d50565b6000861415611e01578886815181101515611dbf57fe5b90602001906020020151925082604001518015611dde57508260800151155b15611e0057856fffffffffffffffffffffffffffffffff168a60400181815250505b5b61263d565b7f2200000000000000000000000000000000000000000000000000000000000000857effffffffffffffffffffffffffffffffffffffffffffffffffffffffffffff19161415611ee557611e5b8a8a8d612e89565b9750600088141515611e7957878960008090509d509d509d50612661565b86806001019750507fffffffffffffffffffffffffffffffffffffffffffffffffffffffffffffffff8a60400151141515611ee057888a60400151815181101515611ec057fe5b9060200190602002015160a001805180919060010160ff1660ff16815250505b61263d565b7f2000000000000000000000000000000000000000000000000000000000000000857effffffffffffffffffffffffffffffffffffffffffffffffffffffffffffff19161480611f79575060117f010000000000000000000000000000000000000000000000000000000000000002857effffffffffffffffffffffffffffffffffffffffffffffffffffffffffffff1916145b80611fc8575060127f010000000000000000000000000000000000000000000000000000000000000002857effffffffffffffffffffffffffffffffffffffffffffffffffffffffffffff1916145b80612017575060147f010000000000000000000000000000000000000000000000000000000000000002857effffffffffffffffffffffffffffffffffffffffffffffffffffffffffffff1916145b156120215761263d565b7f3a00000000000000000000000000000000000000000000000000000000000000857effffffffffffffffffffffffffffffffffffffffffffffffffffffffffffff191614156120815760018a60200151038a604001818152505061263d565b7f2c00000000000000000000000000000000000000000000000000000000000000857effffffffffffffffffffffffffffffffffffffffffffffffffffffffffffff19161415612271577fffffffffffffffffffffffffffffffffffffffffffffffffffffffffffffffff8a604001511415801561213557506002600481111561210757fe5b898b6040015181518110151561211957fe5b9060200190602002015160000151600481111561213257fe5b14155b801561217757506001600481111561214957fe5b898b6040015181518110151561215b57fe5b9060200190602002015160000151600481111561217457fe5b14155b1561226c5760018a602001510395505b60008610151561226b576002600481111561219e57fe5b89878151811015156121ac57fe5b906020019060200201516000015160048111156121c557fe5b14806122025750600160048111156121d957fe5b89878151811015156121e757fe5b9060200190602002015160000151600481111561220057fe5b145b1561225d57888681518110151561221557fe5b906020019060200201516040015180156122485750888681518110151561223857fe5b9060200190602002015160800151155b1561225c57858a604001818152505061226b565b5b858060019003965050612187565b5b61263d565b7f3000000000000000000000000000000000000000000000000000000000000000857effffffffffffffffffffffffffffffffffffffffffffffffffffffffffffff19161015801561230557507f3900000000000000000000000000000000000000000000000000000000000000857effffffffffffffffffffffffffffffffffffffffffffffffffffffffffffff191611155b8061235157507f2d00000000000000000000000000000000000000000000000000000000000000857effffffffffffffffffffffffffffffffffffffffffffffffffffffffffffff1916145b8061239d57507f6600000000000000000000000000000000000000000000000000000000000000857effffffffffffffffffffffffffffffffffffffffffffffffffffffffffffff1916145b806123e957507f7400000000000000000000000000000000000000000000000000000000000000857effffffffffffffffffffffffffffffffffffffffffffffffffffffffffffff1916145b8061243557507f6e00000000000000000000000000000000000000000000000000000000000000857effffffffffffffffffffffffffffffffffffffffffffffffffffffffffffff1916145b1561258a577fffffffffffffffffffffffffffffffffffffffffffffffffffffffffffffffff8a604001511415156124f557888a6040015181518110151561247957fe5b9060200190602002015192506001600481111561249257fe5b836000015160048111156124a257fe5b14806124dc5750600360048111156124b657fe5b836000015160048111156124c657fe5b1480156124db575060008360a0015160ff1614155b5b156124f45760018960008090509d509d509d50612661565b5b6125008a8a8d6135a0565b975060008814151561251e57878960008090509d509d509d50612661565b86806001019750507fffffffffffffffffffffffffffffffffffffffffffffffffffffffffffffffff8a6040015114151561258557888a6040015181518110151561256557fe5b9060200190602002015160a001805180919060010160ff1660ff16815250505b61263d565b60207f010000000000000000000000000000000000000000000000000000000000000002857effffffffffffffffffffffffffffffffffffffffffffffffffffffffffffff1916101580156126245750607e7f010000000000000000000000000000000000000000000000000000000000000002857effffffffffffffffffffffffffffffffffffffffffffffffffffffffffffff191611155b1561263c5760018960008090509d509d509d50612661565b5b896000018051809190600101815250506118ec565b6000898b602001519d509d509d505b50505050505050505050509250925092565b61267b6140a1565b6126836140f5565b61268b6140f5565b60008692508585036040518059106126a05750595b9080825280601f01601f191660200182016040525091508590505b848110156127695782818151811015156126d157fe5b9060200101517f010000000000000000000000000000000000000000000000000000000000000090047f0100000000000000000000000000000000000000000000000000000000000000028287830381518110151561272c57fe5b9060200101907effffffffffffffffffffffffffffffffffffffffffffffffffffffffffffff1916908160001a90535080806001019150506126bb565b8193505050509392505050565b60006127806140f5565b600080600080879450600093506000925060009150600090505b8451811015612b095760008114801561284c57507f2d0000000000000000000000000000000000000000000000000000000000000085828151811015156127dd57fe5b9060200101517f010000000000000000000000000000000000000000000000000000000000000090047f0100000000000000000000000000000000000000000000000000000000000000027effffffffffffffffffffffffffffffffffffffffffffffffffffffffffffff1916145b1561285657600191505b60307f010000000000000000000000000000000000000000000000000000000000000002858281518110151561288857fe5b9060200101517f010000000000000000000000000000000000000000000000000000000000000090047f0100000000000000000000000000000000000000000000000000000000000000027effffffffffffffffffffffffffffffffffffffffffffffffffffffffffffff1916101580156129a0575060397f010000000000000000000000000000000000000000000000000000000000000002858281518110151561293057fe5b9060200101517f010000000000000000000000000000000000000000000000000000000000000090047f0100000000000000000000000000000000000000000000000000000000000000027effffffffffffffffffffffffffffffffffffffffffffffffffffffffffffff191611155b15612a515782156129c35760008714156129b957612b09565b8680600190039750505b600a84029350603085828151811015156129d957fe5b9060200101517f010000000000000000000000000000000000000000000000000000000000000090047f0100000000000000000000000000000000000000000000000000000000000000027f010000000000000000000000000000000000000000000000000000000000000090040384019350612afc565b602e7f0100000000000000000000000000000000000000000000000000000000000000028582815181101515612a8357fe5b9060200101517f010000000000000000000000000000000000000000000000000000000000000090047f0100000000000000000000000000000000000000000000000000000000000000027effffffffffffffffffffffffffffffffffffffffffffffffffffffffffffff19161415612afb57600192505b5b808060010191505061279a565b6000871115612b1b5786600a0a840293505b8115612b47577fffffffffffffffffffffffffffffffffffffffffffffffffffffffffffffffff840293505b839550505050505092915050565b612b5d6140f5565b612b8a8260017f010000000000000000000000000000000000000000000000000000000000000002613982565b9050919050565b612b99614109565b600060208301905060408051908101604052808451815260200182815250915050919050565b612bc7614109565b8183600001511115612bde57818360000181815250505b82905092915050565b600080612bf48484613daf565b14905092915050565b612c05614109565b6000612c238460000151856020015185600001518660200151613e69565b905083602001518103846000018181510391508181525050808460200181815250508391505092915050565b612c57614109565b82600001518263ffffffff1611151515612c7057600080fd5b8163ffffffff168360200181815101915081815250508163ffffffff1683600001818151039150818152505082905092915050565b612cad6140f5565b612cb56140f5565b60008360000151604051805910612cc95750595b9080825280601f01601f19166020018201604052509150602082019050612cf98185602001518660000151613f25565b8192505050919050565b612d0b614123565b612d136140b5565b612d1b614123565b612d236140b5565b60606040519081016040528060008152602001600081526020017fffffffffffffffffffffffffffffffffffffffffffffffffffffffffffffffff815250915084604051805910612d715750595b908082528060200260200182016040528015612da757816020015b612d9461418e565b815260200190600190039081612d8c5790505b5090508181935093505050915091565b6000612dc1614145565b612dc9614145565b83518560200151101515612e01576000846001865103815181101515612deb57fe5b9060200190602002015180905092509250612e81565b60c06040519081016040528060006004811115612e1a57fe5b81526020016000815260200160001515815260200160008152602001600015158152602001600060ff16815250905080848660200151815181101515612e5c57fe5b9060200190602002018190525084602001805180919060010181525050600181925092505b509250929050565b600080600080612e97614145565b87600001519350876000018051809190600101815250505b85518860000151101561358657858860000151815181101515612ece57fe5b9060200101517f010000000000000000000000000000000000000000000000000000000000000090047f01000000000000000000000000000000000000000000000000000000000000000292507f2200000000000000000000000000000000000000000000000000000000000000837effffffffffffffffffffffffffffffffffffffffffffffffffffffffffffff19161415612faa57612f6f8888612db7565b91509150811515612f8d578388600001818152505060039450613595565b612fa1816003600187018b60000151613f70565b60009450613595565b605c7f010000000000000000000000000000000000000000000000000000000000000002837effffffffffffffffffffffffffffffffffffffffffffffffffffffffffffff1916148015613005575085516001896000015101105b1561357057876000018051809190600101815250507f220000000000000000000000000000000000000000000000000000000000000086896000015181518110151561304d57fe5b9060200101517f010000000000000000000000000000000000000000000000000000000000000090047f0100000000000000000000000000000000000000000000000000000000000000027effffffffffffffffffffffffffffffffffffffffffffffffffffffffffffff1916148061316357507f2f000000000000000000000000000000000000000000000000000000000000008689600001518151811015156130f457fe5b9060200101517f010000000000000000000000000000000000000000000000000000000000000090047f0100000000000000000000000000000000000000000000000000000000000000027effffffffffffffffffffffffffffffffffffffffffffffffffffffffffffff1916145b8061320b57507f5c0000000000000000000000000000000000000000000000000000000000000086896000015181518110151561319c57fe5b9060200101517f010000000000000000000000000000000000000000000000000000000000000090047f0100000000000000000000000000000000000000000000000000000000000000027effffffffffffffffffffffffffffffffffffffffffffffffffffffffffffff1916145b806132b357507f660000000000000000000000000000000000000000000000000000000000000086896000015181518110151561324457fe5b9060200101517f010000000000000000000000000000000000000000000000000000000000000090047f0100000000000000000000000000000000000000000000000000000000000000027effffffffffffffffffffffffffffffffffffffffffffffffffffffffffffff1916145b8061335b57507f72000000000000000000000000000000000000000000000000000000000000008689600001518151811015156132ec57fe5b9060200101517f010000000000000000000000000000000000000000000000000000000000000090047f0100000000000000000000000000000000000000000000000000000000000000027effffffffffffffffffffffffffffffffffffffffffffffffffffffffffffff1916145b8061340357507f6e0000000000000000000000000000000000000000000000000000000000000086896000015181518110151561339457fe5b9060200101517f010000000000000000000000000000000000000000000000000000000000000090047f0100000000000000000000000000000000000000000000000000000000000000027effffffffffffffffffffffffffffffffffffffffffffffffffffffffffffff1916145b806134ab57507f620000000000000000000000000000000000000000000000000000000000000086896000015181518110151561343c57fe5b9060200101517f010000000000000000000000000000000000000000000000000000000000000090047f0100000000000000000000000000000000000000000000000000000000000000027effffffffffffffffffffffffffffffffffffffffffffffffffffffffffffff1916145b8061355357507f74000000000000000000000000000000000000000000000000000000000000008689600001518151811015156134e457fe5b9060200101517f010000000000000000000000000000000000000000000000000000000000000090047f0100000000000000000000000000000000000000000000000000000000000000027effffffffffffffffffffffffffffffffffffffffffffffffffffffffffffff1916145b1561355d57613571565b8388600001818152505060019450613595565b5b87600001805180919060010181525050612eaf565b83886000018181525050600294505b505050509392505050565b60008060008060006135b0614145565b60009450886000015193505b86518960000151101561390d578689600001518151811015156135db57fe5b9060200101517f010000000000000000000000000000000000000000000000000000000000000090047f01000000000000000000000000000000000000000000000000000000000000000292507f2000000000000000000000000000000000000000000000000000000000000000837effffffffffffffffffffffffffffffffffffffffffffffffffffffffffffff191614806136b957507f0900000000000000000000000000000000000000000000000000000000000000837effffffffffffffffffffffffffffffffffffffffffffffffffffffffffffff1916145b8061370557507f0a00000000000000000000000000000000000000000000000000000000000000837effffffffffffffffffffffffffffffffffffffffffffffffffffffffffffff1916145b8061375157507f0d00000000000000000000000000000000000000000000000000000000000000837effffffffffffffffffffffffffffffffffffffffffffffffffffffffffffff1916145b8061379d57507f2c00000000000000000000000000000000000000000000000000000000000000837effffffffffffffffffffffffffffffffffffffffffffffffffffffffffffff1916145b806137ec5750607d7f010000000000000000000000000000000000000000000000000000000000000002837effffffffffffffffffffffffffffffffffffffffffffffffffffffffffffff1916145b8061383b5750605d7f010000000000000000000000000000000000000000000000000000000000000002837effffffffffffffffffffffffffffffffffffffffffffffffffffffffffffff1916145b15613849576001945061390d565b60207f010000000000000000000000000000000000000000000000000000000000000002837effffffffffffffffffffffffffffffffffffffffffffffffffffffffffffff191610806138e05750607f7f010000000000000000000000000000000000000000000000000000000000000002837effffffffffffffffffffffffffffffffffffffffffffffffffffffffffffff1916115b156138f8578389600001818152505060019550613976565b886000018051809190600101815250506135bc565b841515613927578389600001818152505060029550613976565b6139318989612db7565b9150915081151561394f578389600001818152505060039550613976565b613960816004868c60000151613f70565b8860000180518091906001900381525050600095505b50505050509392505050565b61398a6140f5565b6139926140f5565b60008060008060006139a2614109565b602060405190810160405280600081525096506060955089601b8151811015156139c857fe5b9060200101517f010000000000000000000000000000000000000000000000000000000000000090047f0100000000000000000000000000000000000000000000000000000000000000027f01000000000000000000000000000000000000000000000000000000000000009004610100028a601a815181101515613a4957fe5b9060200101517f010000000000000000000000000000000000000000000000000000000000000090047f0100000000000000000000000000000000000000000000000000000000000000027f010000000000000000000000000000000000000000000000000000000000000090040186019550600093505b896007815181101515613ad057fe5b9060200101517f010000000000000000000000000000000000000000000000000000000000000090047f0100000000000000000000000000000000000000000000000000000000000000027f01000000000000000000000000000000000000000000000000000000000000009004610100028a6006815181101515613b5157fe5b9060200101517f010000000000000000000000000000000000000000000000000000000000000090047f0100000000000000000000000000000000000000000000000000000000000000027f010000000000000000000000000000000000000000000000000000000000000090040161ffff168461ffff161015613d9f57602186018a01519250826001600281101515613be757fe5b1a7f0100000000000000000000000000000000000000000000000000000000000000027f0100000000000000000000000000000000000000000000000000000000000000900461010002836000600281101515613c4057fe5b1a7f0100000000000000000000000000000000000000000000000000000000000000027f01000000000000000000000000000000000000000000000000000000000000009004019150896003870161ffff16815181101515613c9e57fe5b9060200101517f010000000000000000000000000000000000000000000000000000000000000090047f0100000000000000000000000000000000000000000000000000000000000000029450600486019550887effffffffffffffffffffffffffffffffffffffffffffffffffffffffffffff1916857effffffffffffffffffffffffffffffffffffffffffffffffffffffffffffff19161415613d8a57613d6a8261ffff16613d5c8861ffff168d613fe190919063ffffffff16565b612bbf90919063ffffffff16565b9050613d8781613d7989612b91565b61400f90919063ffffffff16565b96505b60108201860195508380600101945050613ac1565b8697505050505050505092915050565b60008060008060008060008060008a6000015197508a600001518a600001511015613ddc57896000015197505b8a60200151965089602001519550600094505b87851015613e4d5786519350855192508284141515613e3657600185896020030160080260020a03199150818316828516039050600081141515613e3557809850613e5b565b5b602087019650602086019550602085019450613def565b89600001518b600001510398505b505050505050505092915050565b60008060008060008887111515613f1357602087111515613eca5760018760200360080260020a031980875116888b038a018a96505b818388511614613ebf57600187019650806001880310613e9f578b8b0196505b505050839450613f19565b8686209150879350600092505b86890383111515613f12578684209050806000191682600019161415613eff57839450613f19565b6001840193508280600101935050613ed7565b5b88880194505b50505050949350505050565b60005b602082101515613f4d5782518452602084019350602083019250602082039150613f28565b6001826020036101000a0390508019835116818551168181178652505050505050565b8284600001906004811115613f8157fe5b90816004811115613f8e57fe5b8152505081846020018181525050600184604001901515908115158152505080846060018181525050600184608001901515908115158152505060008460a0019060ff16908160ff168152505050505050565b613fe9614109565b613ff1614109565b613ffa84612b91565b90506140068184612c4f565b91505092915050565b6140176140f5565b61401f6140f5565b600083600001518560000151016040518059106140395750595b9080825280601f01601f191660200182016040525091506020820190506140698186602001518760000151613f25565b6140828560000151820185602001518660000151613f25565b819250505092915050565b602060405190810160405280600081525090565b602060405190810160405280600081525090565b602060405190810160405280600081525090565b8154818355818115116140f0578183600052602060002091820191016140ef91906141d7565b5b505050565b602060405190810160405280600081525090565b604080519081016040528060008152602001600081525090565b6060604051908101604052806000815260200160008152602001600081525090565b60c0604051908101604052806000600481111561415e57fe5b81526020016000815260200160001515815260200160008152602001600015158152602001600060ff1681525090565b60c060405190810160405280600060048111156141a757fe5b81526020016000815260200160001515815260200160008152602001600015158152602001600060ff1681525090565b6141f991905b808211156141f55760008160009055506001016141dd565b5090565b905600a165627a7a72305820f2be974e3a4fce98878d804da56210077cef13c5f96f3cbbb80ddec5bc0bfc2e0029",
  "source": "pragma solidity ^0.4.18;\nimport \"../installed_contracts/jsmnsol-lib/contracts/JsmnSolLib.sol\";\nimport \"../installed_contracts/bytesutils.sol\";\nimport \"../installed_contracts/tlsnutils.sol\";\n\ncontract Lending {\n\n  /***********************************/\n  /******* CONTRACT ATTRIBUTES *******/\n  /***********************************/\n\n  struct LendingContract {\n    uint lendingID;\n    address proposer;\n    address acceptor;\n    uint borrowedAmount;\n    uint startTime;\n    uint endTime;\n    uint lendingTimePeriod;\n    uint collateralAssetID;\n    bool filled;\n    bool deleted;\n    uint totalPremium;\n  }\n\n  struct AssetOwnership {\n    uint assetID;\n    address owner;\n    uint value;\n    bool borrowedAgainst;\n  }\n\n  address public master;\n\n  uint[] lendingIDs;\n  uint lendingContractCount;\n  mapping(uint => LendingContract) public allLendingContracts;\n\n  uint[] assetIDs;\n  uint assetCount;\n  mapping(uint => AssetOwnership) public allAssets;\n\n  /***********************************/\n  /************* MODIFIERS ***********/\n  /***********************************/\n\n  modifier isOwner() {\n    require(msg.sender == master);\n    _; // continue executing rest of method body\n  }\n\n  /***********************************/\n  /************** EVENTS *************/\n  /***********************************/\n\n  event AssetChange(uint assetID);\n  event LendingContractChange(uint lendingID);\n\n  /***********************************/\n  /********* PUBLIC FUNCTIONS ********/\n  /***********************************/\n\n  /// @dev      Lending contract constructor sets initial lending contract count to 0\n  function Lending() public {\n    master = msg.sender;\n    lendingContractCount = 0;\n    assetCount = 0;\n  }\n\n  /// @dev                      Allows a user with an asset to request a loan\n  /// @param  _assetID          The json file passing the interest rate\n  /// @param  _borrowAmount     The amount wanted to be borrowed by the user\n  /// @param  _lending_period   The number of weeks the user wants to borrow the money for\n  /// @param  _hex_proof        The number of weeks the user wants to borrow the money for\n  function borrowFunds(uint _assetID, uint _borrowAmount, uint _lending_period, bytes memory _hex_proof) public payable {\n    require(!allAssets[_assetID].borrowedAgainst);\n    require(allAssets[_assetID].value >= _borrowAmount);\n    require(allAssets[_assetID].owner == msg.sender);\n    require(_lending_period >= 1);\n\n    // Verify the TLS-N Proof\n    require(verifyProof(_hex_proof));\n\n    // Parse the response body of the TLS-N proof\n    string memory body = string(tlsnutils.getHTTPBody(_hex_proof));\n    JsmnSolLib.Token[] memory tokens;\n    uint returnValue;\n    uint actualNum;\n    (returnValue, tokens, actualNum) = JsmnSolLib.parse(body, 100);\n\n    // Get the interest rate\n    string memory interest_string = JsmnSolLib.getBytes(body, tokens[43].start, tokens[43].end);\n    int interest_int = JsmnSolLib.parseInt(interest_string,4);\n\n    // Check the user has passed in the right premium to match the interest rate\n    uint yearly_premium = ((msg.value * 100000 * 52) / _lending_period)/_borrowAmount;\n    require(yearly_premium > uint(interest_int));\n\n    // Setup Contract\n    uint lendingID = (lendingContractCount++)+1000;\n    lendingIDs.push(lendingID);\n    allLendingContracts[lendingID] = LendingContract(lendingID, msg.sender, 0, _borrowAmount, 0, 0, _lending_period, _assetID, false, false, msg.value);\n    LendingContractChange(lendingID);\n  }\n\n  /// @dev                  Allows a user to lend funds to another user\n  /// @param  _lendingID    The ID of the lending contract to be fulfilled\n  function lendFunds(uint _lendingID) public payable {\n    require(msg.value == allLendingContracts[_lendingID].borrowedAmount);\n    require(!allLendingContracts[_lendingID].filled);\n    allLendingContracts[_lendingID].proposer.transfer(msg.value);\n    msg.sender.transfer(allLendingContracts[_lendingID].totalPremium);\n    allLendingContracts[_lendingID].filled = true;\n    allLendingContracts[_lendingID].acceptor = msg.sender;\n    allLendingContracts[_lendingID].startTime = now;\n    allLendingContracts[_lendingID].endTime = now + (allLendingContracts[_lendingID].lendingTimePeriod * 1 weeks);\n  }\n\n  /// @dev                  Allows a user to cancel a loan if it has not been funded\n  /// @param  _lendingID    The ID of the lending contract to be cancelled\n  function cancelLoan(uint _lendingID) public payable {\n    require(msg.sender == allLendingContracts[_lendingID].proposer);\n    require(!allLendingContracts[_lendingID].filled);\n    require(!allLendingContracts[_lendingID].deleted);\n\n    allLendingContracts[_lendingID].deleted = true;\n    LendingContractChange(_lendingID);\n    msg.sender.transfer(allLendingContracts[_lendingID].totalPremium);\n  }\n\n  /// @dev                  Allows the original user who borrowed funds to pay the money back\n  /// @param  _lendingID    The ID of the lending contract to be paid back\n  function payFundsBack(uint _lendingID) public payable {\n    require(allLendingContracts[_lendingID].proposer == msg.sender);\n    require(allLendingContracts[_lendingID].borrowedAmount == msg.value);\n    require(allLendingContracts[_lendingID].filled);\n    require(now < allLendingContracts[_lendingID].endTime);\n\n    allLendingContracts[_lendingID].acceptor.transfer(msg.value);\n    allLendingContracts[_lendingID].deleted = true;\n    allAssets[allLendingContracts[_lendingID].collateralAssetID].borrowedAgainst = false;\n    lendingContractCount--;\n    LendingContractChange(_lendingID);\n  }\n\n  /// @dev                  Allows a lender to report a late payment\n  /// @param  _lendingID    The ID of the lending contract that has not been paid\n  function reportLatePayment(uint _lendingID) public payable {\n    uint time = now;\n    require(allLendingContracts[_lendingID].acceptor == msg.sender);\n    require(allLendingContracts[_lendingID].filled);\n    require(!allLendingContracts[_lendingID].deleted);\n    require(time > allLendingContracts[_lendingID].endTime);\n\n    allAssets[allLendingContracts[_lendingID].collateralAssetID].owner = msg.sender;\n    allAssets[allLendingContracts[_lendingID].collateralAssetID].borrowedAgainst = false;\n    allLendingContracts[_lendingID].deleted = true;\n    LendingContractChange(_lendingID);\n  }\n\n  /// @dev                  Allows the owner of the contract to add assets\n  /// @param  _owner        The address of the owner of the asset\n  /// @param  _value        The value of the asset being added\n  function addAsset(address _owner, uint _value) public isOwner {\n    uint assetID = (assetCount++)+1000;\n    assetIDs.push(assetID);\n    allAssets[assetID] = AssetOwnership(assetID, _owner, _value, false);\n    AssetChange(assetID);\n  }\n\n  /// @dev                  Allows the owner of the contract or the owner of the asset to transfer ownership\n  /// @param  _recipient    The address of the recipient of the asset\n  /// @param  _assetID      The ID of the asset to be transferred\n  function transferOwnership(address _recipient, uint _assetID) public {\n    require(allAssets[_assetID].owner == msg.sender || msg.sender == master);\n    allAssets[_assetID].owner = _recipient;\n  }\n\n  /// @dev                  Allows the owner of the contract to change the value of an asset\n  /// @param  _assetID      The ID of the asset to be re-valued\n  /// @param  _new_value    The new value of the asset\n  function changeValue(uint _assetID, uint _new_value) public isOwner {\n    allAssets[_assetID].value = _new_value;\n  }\n\n  /// @dev       Allows requestor to return all lending IDs\n  /// @return    Returns the lending IDs of every outstanding lending contract\n  function getLendingIds() public constant returns (uint[]) {\n    return lendingIDs;\n  }\n\n  /// @dev       Allows requestor to return all asset IDs\n  /// @return    Returns the asset IDs of every asset in the contract\n  function getAssetIds() public constant returns (uint[]) {\n    return assetIDs;\n  }\n\n  /// @dev       Allows requestor to return the number of outstanding lending contracts\n  /// @return    Returns the number of lending contracts outstanding\n  function getLendingContractCount() public constant returns (uint) {\n    return lendingContractCount;\n  }\n\n  /// @dev       Allows requestor to return the number of assets\n  /// @return    Returns the number of assets in the contract\n  function getAssetCount() public constant returns (uint) {\n    return assetCount;\n  }\n\n  /***********************************/\n  /******** PRIVATE FUNCTIONS ********/\n  /***********************************/\n\n  /// @dev       Allows requestor to return whether a proof verifies or not\n  /// @return    Returns a boolean value if the proof passes or not\n  function verifyProof(bytes memory proof) private returns (bool){\n    uint qx = 0xe0a5793d275a533d50421b201c2c9a909abb58b1a9c0f9eb9b7963e5c8bc2295;\n    uint qy = 0xf34d47cb92b6474562675127677d4e446418498884c101aeb38f3afb0cab997e;\n    if(tlsnutils.verifyProof(proof, qx, qy)){\n      return true;\n    }\n    return false;\n  }\n}\n",
  "sourcePath": "/home/mohammed/dev/imperial/Lending-With-Smart-Contracts/contracts/Lending.sol",
  "compiler": {
    "name": "solc",
    "version": "0.4.18+commit.9cf6e910.Emscripten.clang"
  },
  "schemaVersion": "1.0.1",
  "updatedAt": "2018-05-15T22:43:04.357Z"
}