{
  "contractName": "Lending",
  "abi": [
    {
      "constant": true,
      "inputs": [
        {
          "name": "",
          "type": "uint256"
        }
      ],
      "name": "allAssets",
      "outputs": [
        {
          "name": "assetID",
          "type": "uint256"
        },
        {
          "name": "owner",
          "type": "address"
        },
        {
          "name": "value",
          "type": "uint256"
        },
        {
          "name": "borrowedAgainst",
          "type": "bool"
        }
      ],
      "payable": false,
      "stateMutability": "view",
      "type": "function"
    },
    {
      "constant": true,
      "inputs": [
        {
          "name": "",
          "type": "uint256"
        }
      ],
      "name": "allLendingContracts",
      "outputs": [
        {
          "name": "lendingID",
          "type": "uint256"
        },
        {
          "name": "proposer",
          "type": "address"
        },
        {
          "name": "acceptor",
          "type": "address"
        },
        {
          "name": "borrowedAmount",
          "type": "uint256"
        },
        {
          "name": "interestRatePremium",
          "type": "uint256"
        },
        {
          "name": "startTime",
          "type": "uint256"
        },
        {
          "name": "endTime",
          "type": "uint256"
        },
        {
          "name": "lendingTimePeriod",
          "type": "uint256"
        },
        {
          "name": "collateralAssetID",
          "type": "uint256"
        },
        {
          "name": "filled",
          "type": "bool"
        },
        {
          "name": "deleted",
          "type": "bool"
        }
      ],
      "payable": false,
      "stateMutability": "view",
      "type": "function"
    },
    {
      "constant": true,
      "inputs": [],
      "name": "master",
      "outputs": [
        {
          "name": "",
          "type": "address"
        }
      ],
      "payable": false,
      "stateMutability": "view",
      "type": "function"
    },
    {
      "inputs": [],
      "payable": false,
      "stateMutability": "nonpayable",
      "type": "constructor"
    },
    {
      "anonymous": false,
      "inputs": [
        {
          "indexed": false,
          "name": "assetID",
          "type": "uint256"
        }
      ],
      "name": "AssetChange",
      "type": "event"
    },
    {
      "anonymous": false,
      "inputs": [
        {
          "indexed": false,
          "name": "lendingID",
          "type": "uint256"
        }
      ],
      "name": "LendingContractChange",
      "type": "event"
    },
    {
      "constant": false,
      "inputs": [
        {
          "name": "_assetID",
          "type": "uint256"
        },
        {
          "name": "borrowAmount",
          "type": "uint256"
        },
        {
          "name": "_premium",
          "type": "uint256"
        },
        {
          "name": "_lending_period",
          "type": "uint256"
        }
      ],
      "name": "borrowFunds",
      "outputs": [],
      "payable": true,
      "stateMutability": "payable",
      "type": "function"
    },
    {
      "constant": false,
      "inputs": [
        {
          "name": "_lendingID",
          "type": "uint256"
        }
      ],
      "name": "lendFunds",
      "outputs": [],
      "payable": true,
      "stateMutability": "payable",
      "type": "function"
    },
    {
      "constant": false,
      "inputs": [
        {
          "name": "_lendingID",
          "type": "uint256"
        }
      ],
      "name": "payFundsBack",
      "outputs": [],
      "payable": true,
      "stateMutability": "payable",
      "type": "function"
    },
    {
      "constant": false,
      "inputs": [
        {
          "name": "_lendingID",
          "type": "uint256"
        }
      ],
      "name": "reportLatePayment",
      "outputs": [],
      "payable": true,
      "stateMutability": "payable",
      "type": "function"
    },
    {
      "constant": false,
      "inputs": [
        {
          "name": "_owner",
          "type": "address"
        },
        {
          "name": "_value",
          "type": "uint256"
        }
      ],
      "name": "addAsset",
      "outputs": [],
      "payable": false,
      "stateMutability": "nonpayable",
      "type": "function"
    },
    {
      "constant": false,
      "inputs": [
        {
          "name": "_assetID",
          "type": "uint256"
        }
      ],
      "name": "removeOwnership",
      "outputs": [],
      "payable": false,
      "stateMutability": "nonpayable",
      "type": "function"
    },
    {
      "constant": false,
      "inputs": [
        {
          "name": "_recipient",
          "type": "address"
        },
        {
          "name": "_assetID",
          "type": "uint256"
        }
      ],
      "name": "transferOwnership",
      "outputs": [],
      "payable": false,
      "stateMutability": "nonpayable",
      "type": "function"
    },
    {
      "constant": false,
      "inputs": [
        {
          "name": "_assetID",
          "type": "uint256"
        },
        {
          "name": "_new_value",
          "type": "uint256"
        }
      ],
      "name": "changeValue",
      "outputs": [],
      "payable": false,
      "stateMutability": "nonpayable",
      "type": "function"
    }
  ],
  "bytecode": "0x6060604052341561000f57600080fd5b336000806101000a81548173ffffffffffffffffffffffffffffffffffffffff021916908373ffffffffffffffffffffffffffffffffffffffff160217905550600060028190555060006005819055506110ec8061006e6000396000f3006060604052600436106100af576000357c0100000000000000000000000000000000000000000000000000000000900463ffffffff1680630a276680146100b457806333a10c9f146100f6578063578e5c221461010e57806366a6a4bd1461018a5780636f29681b146101cc5780638709b2e7146101ff578063aa2d57211461022b578063b3798b9414610243578063c172da601461025b578063d617e0d314610338578063ee97f7f31461035b575b600080fd5b34156100bf57600080fd5b6100f4600480803573ffffffffffffffffffffffffffffffffffffffff169060200190919080359060200190919050506103b0565b005b61010c60048080359060200190919050506104d0565b005b341561011957600080fd5b61012f600480803590602001909190505061062a565b604051808581526020018473ffffffffffffffffffffffffffffffffffffffff1673ffffffffffffffffffffffffffffffffffffffff1681526020018381526020018215151515815260200194505050505060405180910390f35b341561019557600080fd5b6101ca600480803573ffffffffffffffffffffffffffffffffffffffff16906020019091908035906020019091905050610687565b005b6101fd600480803590602001909190803590602001909190803590602001909190803590602001909190505061082c565b005b341561020a57600080fd5b6102296004808035906020019091908035906020019091905050610b20565b005b6102416004808035906020019091905050610b9a565b005b6102596004808035906020019091905050610d0e565b005b341561026657600080fd5b61027c6004808035906020019091905050610ee2565b604051808c81526020018b73ffffffffffffffffffffffffffffffffffffffff1673ffffffffffffffffffffffffffffffffffffffff1681526020018a73ffffffffffffffffffffffffffffffffffffffff1673ffffffffffffffffffffffffffffffffffffffff16815260200189815260200188815260200187815260200186815260200185815260200184815260200183151515158152602001821515151581526020019b50505050505050505050505060405180910390f35b341561034357600080fd5b6103596004808035906020019091905050610f96565b005b341561036657600080fd5b61036e61104a565b604051808273ffffffffffffffffffffffffffffffffffffffff1673ffffffffffffffffffffffffffffffffffffffff16815260200191505060405180910390f35b3373ffffffffffffffffffffffffffffffffffffffff166006600083815260200190815260200160002060010160009054906101000a900473ffffffffffffffffffffffffffffffffffffffff1673ffffffffffffffffffffffffffffffffffffffff16148061046c57506000809054906101000a900473ffffffffffffffffffffffffffffffffffffffff1673ffffffffffffffffffffffffffffffffffffffff163373ffffffffffffffffffffffffffffffffffffffff16145b151561047757600080fd5b816006600083815260200190815260200160002060010160006101000a81548173ffffffffffffffffffffffffffffffffffffffff021916908373ffffffffffffffffffffffffffffffffffffffff1602179055505050565b3373ffffffffffffffffffffffffffffffffffffffff166003600083815260200190815260200160002060020160009054906101000a900473ffffffffffffffffffffffffffffffffffffffff1673ffffffffffffffffffffffffffffffffffffffff1614151561054057600080fd5b6003600082815260200190815260200160002060090160009054906101000a900460ff16151561056f57600080fd5b60036000828152602001908152602001600020600601544211151561059357600080fd5b6105b33360036000848152602001908152602001600020600801546103b0565b6000600660006003600085815260200190815260200160002060080154815260200190815260200160002060030160006101000a81548160ff02191690831515021790555060016003600083815260200190815260200160002060090160016101000a81548160ff02191690831515021790555050565b60066020528060005260406000206000915090508060000154908060010160009054906101000a900473ffffffffffffffffffffffffffffffffffffffff16908060020154908060030160009054906101000a900460ff16905084565b60008060009054906101000a900473ffffffffffffffffffffffffffffffffffffffff1673ffffffffffffffffffffffffffffffffffffffff163373ffffffffffffffffffffffffffffffffffffffff161415156106e457600080fd5b6103e860056000815480929190600101919050550190506004805480600101828161070f919061106f565b9160005260206000209001600083909190915055506080604051908101604052808281526020018473ffffffffffffffffffffffffffffffffffffffff16815260200183815260200160001515815250600660008381526020019081526020016000206000820151816000015560208201518160010160006101000a81548173ffffffffffffffffffffffffffffffffffffffff021916908373ffffffffffffffffffffffffffffffffffffffff1602179055506040820151816002015560608201518160030160006101000a81548160ff0219169083151502179055509050507ff24d0c253be88f9850e777d838abb7174903d76b1516519f6789aa2910489b9c816040518082815260200191505060405180910390a1505050565b60006006600086815260200190815260200160002060030160009054906101000a900460ff1615151561085e57600080fd5b8360066000878152602001908152602001600020600201541015151561088357600080fd5b3373ffffffffffffffffffffffffffffffffffffffff166006600087815260200190815260200160002060010160009054906101000a900473ffffffffffffffffffffffffffffffffffffffff1673ffffffffffffffffffffffffffffffffffffffff161415156108f357600080fd5b6103e860026000815480929190600101919050550190506001805480600101828161091e919061106f565b916000526020600020900160008390919091505550610160604051908101604052808281526020013373ffffffffffffffffffffffffffffffffffffffff168152602001600073ffffffffffffffffffffffffffffffffffffffff168152602001858152602001848152602001600081526020016000815260200183815260200186815260200160001515815260200160001515815250600360008381526020019081526020016000206000820151816000015560208201518160010160006101000a81548173ffffffffffffffffffffffffffffffffffffffff021916908373ffffffffffffffffffffffffffffffffffffffff16021790555060408201518160020160006101000a81548173ffffffffffffffffffffffffffffffffffffffff021916908373ffffffffffffffffffffffffffffffffffffffff160217905550606082015181600301556080820151816004015560a0820151816005015560c0820151816006015560e0820151816007015561010082015181600801556101208201518160090160006101000a81548160ff0219169083151502179055506101408201518160090160016101000a81548160ff0219169083151502179055509050507f218e83f0def1a3bd30ad9959bf2f3aba63bdba681cf9c513544b04e2a7b9841b816040518082815260200191505060405180910390a15050505050565b6000809054906101000a900473ffffffffffffffffffffffffffffffffffffffff1673ffffffffffffffffffffffffffffffffffffffff163373ffffffffffffffffffffffffffffffffffffffff16141515610b7b57600080fd5b8060066000848152602001908152602001600020600201819055505050565b600360008281526020019081526020016000206003015434141515610bbe57600080fd5b6003600082815260200190815260200160002060010160009054906101000a900473ffffffffffffffffffffffffffffffffffffffff1673ffffffffffffffffffffffffffffffffffffffff166108fc349081150290604051600060405180830381858888f193505050501515610c3457600080fd5b60016003600083815260200190815260200160002060090160006101000a81548160ff021916908315150217905550336003600083815260200190815260200160002060020160006101000a81548173ffffffffffffffffffffffffffffffffffffffff021916908373ffffffffffffffffffffffffffffffffffffffff16021790555042600360008381526020019081526020016000206005018190555062093a806003600083815260200190815260200160002060070154024201600360008381526020019081526020016000206006018190555050565b3373ffffffffffffffffffffffffffffffffffffffff166003600083815260200190815260200160002060010160009054906101000a900473ffffffffffffffffffffffffffffffffffffffff1673ffffffffffffffffffffffffffffffffffffffff16141515610d7e57600080fd5b346003600083815260200190815260200160002060030154141515610da257600080fd5b6003600082815260200190815260200160002060090160009054906101000a900460ff161515610dd157600080fd5b600360008281526020019081526020016000206006015442101515610df557600080fd5b6003600082815260200190815260200160002060020160009054906101000a900473ffffffffffffffffffffffffffffffffffffffff1673ffffffffffffffffffffffffffffffffffffffff166108fc349081150290604051600060405180830381858888f193505050501515610e6b57600080fd5b60016003600083815260200190815260200160002060090160016101000a81548160ff0219169083151502179055506000600660006003600085815260200190815260200160002060080154815260200190815260200160002060030160006101000a81548160ff02191690831515021790555050565b60036020528060005260406000206000915090508060000154908060010160009054906101000a900473ffffffffffffffffffffffffffffffffffffffff16908060020160009054906101000a900473ffffffffffffffffffffffffffffffffffffffff16908060030154908060040154908060050154908060060154908060070154908060080154908060090160009054906101000a900460ff16908060090160019054906101000a900460ff1690508b565b6000809054906101000a900473ffffffffffffffffffffffffffffffffffffffff1673ffffffffffffffffffffffffffffffffffffffff163373ffffffffffffffffffffffffffffffffffffffff16141515610ff157600080fd5b60006006600083815260200190815260200160002060010160006101000a81548173ffffffffffffffffffffffffffffffffffffffff021916908373ffffffffffffffffffffffffffffffffffffffff16021790555050565b6000809054906101000a900473ffffffffffffffffffffffffffffffffffffffff1681565b81548183558181151161109657818360005260206000209182019101611095919061109b565b5b505050565b6110bd91905b808211156110b95760008160009055506001016110a1565b5090565b905600a165627a7a72305820be245b5a44b8849b31134ffbed1887db7a2652d33f9c9a39ecfe45e8dfaff0b10029",
  "source": "pragma solidity ^0.4.18;\n/* import \"../installed_contracts/jsmnsol-lib/contracts/JsmnSolLib.sol\";\nimport \"../installed_contracts/bytesutils.sol\";\nimport \"../installed_contracts/tlsnutils.sol\"; */\n\ncontract Lending {\n\n  /***********************************/\n  /******* CONTRACT ATTRIBUTES *******/\n  /***********************************/\n\n  struct LendingContract {\n    uint lendingID;\n    address proposer;\n    address acceptor;\n    uint borrowedAmount;\n    uint interestRatePremium; // measured in bps on top of Bank of England base rate\n    uint startTime;\n    uint endTime;\n    uint lendingTimePeriod; // in weeks\n    uint collateralAssetID;\n    bool filled;\n    bool deleted;\n  }\n\n  struct AssetOwnership {\n    uint assetID;\n    address owner;\n    uint value;\n    bool borrowedAgainst;\n  }\n\n  address public master;\n\n  uint[] lendingIDs;\n  uint lendingContractCount;\n  mapping(uint => LendingContract) public allLendingContracts;\n\n  uint[] assetIDs;\n  uint assetCount;\n  mapping(uint => AssetOwnership) public allAssets;\n\n  /***********************************/\n  /************* MODIFIERS ***********/\n  /***********************************/\n\n  modifier isOwner() {\n    require(msg.sender == master);\n    _; // continue executing rest of method body\n  }\n\n  /***********************************/\n  /************** EVENTS *************/\n  /***********************************/\n\n  event AssetChange(uint assetID);\n  event LendingContractChange(uint lendingID);\n\n  /***********************************/\n  /********* PUBLIC FUNCTIONS ********/\n  /***********************************/\n\n  /// @dev      Lending contract constructor sets initial lending contract count to 0\n  function Lending() public {\n    master = msg.sender;\n    lendingContractCount = 0;\n    assetCount = 0;\n  }\n\n  function borrowFunds(uint _assetID, uint borrowAmount, /*bytes memory _hex_proof,*/ uint _premium, uint _lending_period) public payable {\n    require(!allAssets[_assetID].borrowedAgainst);\n    require(allAssets[_assetID].value >= borrowAmount);\n    require(allAssets[_assetID].owner == msg.sender);\n\n    // Work out the Bank of England Base Interest Rate from Hex Proof\n\n    // Check that the funds transferred into the contract are equl to the number of weeks money required and above base rate\n    // The individual will need to transfer enough funds in to cover the entire period, even if withdraw early\n\n    // Setup Contract\n    uint lendingID = (lendingContractCount++)+1000;\n    lendingIDs.push(lendingID);\n    allLendingContracts[lendingID] = LendingContract(lendingID, msg.sender, 0, borrowAmount, _premium, 0, 0, _lending_period, _assetID, false, false);\n    LendingContractChange(lendingID);\n  }\n\n  function lendFunds(uint _lendingID) public payable {\n    require(msg.value == allLendingContracts[_lendingID].borrowedAmount);\n    allLendingContracts[_lendingID].proposer.transfer(msg.value);\n    allLendingContracts[_lendingID].filled = true;\n    allLendingContracts[_lendingID].acceptor = msg.sender;\n    allLendingContracts[_lendingID].startTime = now;\n    allLendingContracts[_lendingID].endTime = now + (allLendingContracts[_lendingID].lendingTimePeriod * 1 weeks);\n  }\n\n  function payFundsBack(uint _lendingID) public payable {\n    require(allLendingContracts[_lendingID].proposer == msg.sender);\n    require(allLendingContracts[_lendingID].borrowedAmount == msg.value);\n    require(allLendingContracts[_lendingID].filled);\n    require(now < allLendingContracts[_lendingID].endTime);\n\n    // Also need to pay back some of the premium that the individual paid in\n    // Proportional to how many days early they repaid\n\n    allLendingContracts[_lendingID].acceptor.transfer(msg.value);\n    allLendingContracts[_lendingID].deleted = true;\n    allAssets[allLendingContracts[_lendingID].collateralAssetID].borrowedAgainst = false;\n  }\n\n  function reportLatePayment(uint _lendingID) public payable {\n    require(allLendingContracts[_lendingID].acceptor == msg.sender);\n    require(allLendingContracts[_lendingID].filled);\n    require(now > allLendingContracts[_lendingID].endTime);\n\n    transferOwnership(msg.sender,allLendingContracts[_lendingID].collateralAssetID);\n    allAssets[allLendingContracts[_lendingID].collateralAssetID].borrowedAgainst = false;\n    allLendingContracts[_lendingID].deleted = true;\n  }\n\n  function addAsset(address _owner, uint _value) public isOwner {\n    uint assetID = (assetCount++)+1000;\n    assetIDs.push(assetID);\n    allAssets[assetID] = AssetOwnership(assetID, _owner, _value, false);\n    AssetChange(assetID);\n  }\n\n  function removeOwnership(uint _assetID) public isOwner {\n    allAssets[_assetID].owner = 0;\n  }\n\n  function transferOwnership(address _recipient, uint _assetID) public {\n    require(allAssets[_assetID].owner == msg.sender || msg.sender == master);\n    allAssets[_assetID].owner = _recipient;\n  }\n\n  function changeValue(uint _assetID, uint _new_value) public isOwner {\n    allAssets[_assetID].value = _new_value;\n  }\n\n  /***********************************/\n  /******** PRIVATE FUNCTIONS ********/\n  /***********************************/\n\n}\n",
  "sourcePath": "/home/vincent/Documents/imperial/group project/Lending-With-Smart-Contracts/contracts/Lending.sol",
  "compiler": {
    "name": "solc",
    "version": "0.4.19+commit.c4cbbb05.Emscripten.clang"
  },
  "schemaVersion": "1.0.1",
  "updatedAt": "2018-04-16T09:55:47.229Z"
}