{
  "contractName": "tlsnutils",
  "abi": [
    {
      "constant": false,
      "inputs": [
        {
          "name": "proof",
          "type": "bytes"
        },
        {
          "name": "qx",
          "type": "uint256"
        },
        {
          "name": "qy",
          "type": "uint256"
        }
      ],
      "name": "verifyProof",
      "outputs": [
        {
          "name": "",
          "type": "bool"
        }
      ],
      "payable": false,
      "stateMutability": "nonpayable",
      "type": "function"
    },
    {
      "constant": false,
      "inputs": [
        {
          "name": "proof",
          "type": "bytes"
        }
      ],
      "name": "verifyProof",
      "outputs": [
        {
          "name": "",
          "type": "bool"
        }
      ],
      "payable": false,
      "stateMutability": "nonpayable",
      "type": "function"
    },
    {
      "constant": false,
      "inputs": [
        {
          "name": "proof",
          "type": "bytes"
        }
      ],
      "name": "parseProof",
      "outputs": [
        {
          "name": "sig_r",
          "type": "uint256"
        },
        {
          "name": "sig_s",
          "type": "uint256"
        },
        {
          "name": "hashchain",
          "type": "bytes32"
        }
      ],
      "payable": false,
      "stateMutability": "nonpayable",
      "type": "function"
    }
  ],
  "bytecode": "0x6060604052341561000f57600080fd5b610a7b8061001e6000396000f300606060405260043610610057576000357c0100000000000000000000000000000000000000000000000000000000900463ffffffff1680635569909f1461005c57806355c265fe146100d8578063793deea314610142575b600080fd5b6100be600480803590602001908201803590602001908080601f016020809104026020016040519081016040528093929190818152602001838380828437820191505050505050919080359060200190919080359060200190919050506101be565b604051808215151515815260200191505060405180910390f35b610128600480803590602001908201803590602001908080601f0160208091040260200160405190810160405280939291908181526020018383808284378201915050505050509190505061029d565b604051808215151515815260200191505060405180910390f35b610192600480803590602001908201803590602001908080601f016020809104026020016040519081016040528093929190818152602001838380828437820191505050505050919050506102fc565b604051808481526020018381526020018260001916600019168152602001935050505060405180910390f35b60008060008060006101cf886102fc565b8096508193508294505050508360019004925073__ECMath________________________________63d2689abc88888686866000604051602001526040518663ffffffff167c0100000000000000000000000000000000000000000000000000000000028152600401808681526020018581526020018481526020018381526020018281526020019550505050505060206040518083038186803b151561027557600080fd5b6102c65a03f4151561028657600080fd5b505050604051805190509450505050509392505050565b60008060007f0de2583dc1b70c4d17936f6ca4d2a07aa2aba06b76a97e60e62af286adc1cc0991507f68ba8822c94e79903406a002f4bc6a982d1b473f109debb2aa020c66f642144a90506102f38483836101be565b92505050919050565b600080600080600080600061030f610a3b565b600080600080600080995060288e0151985060208a01995060408e01519c5060608e01519b5060408a0199508d601b81518110151561034a57fe5b9060200101517f010000000000000000000000000000000000000000000000000000000000000090047f0100000000000000000000000000000000000000000000000000000000000000027f01000000000000000000000000000000000000000000000000000000000000009004610100028e601a8151811015156103cb57fe5b9060200101517f010000000000000000000000000000000000000000000000000000000000000090047f0100000000000000000000000000000000000000000000000000000000000000027f01000000000000000000000000000000000000000000000000000000000000009004018a019950600093505b8d600781518110151561045257fe5b9060200101517f010000000000000000000000000000000000000000000000000000000000000090047f0100000000000000000000000000000000000000000000000000000000000000027f01000000000000000000000000000000000000000000000000000000000000009004610100028e60068151811015156104d357fe5b9060200101517f010000000000000000000000000000000000000000000000000000000000000090047f0100000000000000000000000000000000000000000000000000000000000000027f010000000000000000000000000000000000000000000000000000000000000090040161ffff168461ffff1610156109355760218a018e0151975087600160028110151561056957fe5b1a7f0100000000000000000000000000000000000000000000000000000000000000027f01000000000000000000000000000000000000000000000000000000000000009004610100028860006002811015156105c257fe5b1a7f0100000000000000000000000000000000000000000000000000000000000000027f010000000000000000000000000000000000000000000000000000000000000090040192508d60038b0161ffff1681518110151561062057fe5b9060200101517f010000000000000000000000000000000000000000000000000000000000000090047f010000000000000000000000000000000000000000000000000000000000000002965060048a019950898e019550828652602083018a018e015194506002858760008b8b60006040516020015260405180866fffffffffffffffffffffffffffffffff19166fffffffffffffffffffffffffffffffff1916815260100185805190602001908083835b6020831015156106f857805182526020820191506020810190506020830392506106d3565b6001836020036101000a0380198251168184511680821785525050505050509050018460ff1660ff167f0100000000000000000000000000000000000000000000000000000000000000028152600101837dffffffffffffffffffffffffffffffffffffffffffffffffffffffffffff19167dffffffffffffffffffffffffffffffffffffffffffffffffffffffffffff19168152600201827effffffffffffffffffffffffffffffffffffffffffffffffffffffffffffff19167effffffffffffffffffffffffffffffffffffffffffffffffffffffffffffff191681526001019550505050505060206040518083038160008661646e5a03f115156107fe57600080fd5b505060405180519050915060008461ffff161415610895576002600183600060405160200152604051808360ff1660ff167f010000000000000000000000000000000000000000000000000000000000000002815260010182600019166000191681526020019250505060206040518083038160008661646e5a03f1151561088557600080fd5b5050604051805190509a50610920565b600260018c84600060405160200152604051808460ff1660ff167f010000000000000000000000000000000000000000000000000000000000000002815260010183600019166000191681526020018260001916600019168152602001935050505060206040518083038160008661646e5a03f1151561091457600080fd5b5050604051805190509a505b601083018a0199508380600101945050610443565b60228e0151905060028b8a836304000000600060405160200152604051808560001916600019168152602001846fffffffffffffffffffffffffffffffff19166fffffffffffffffffffffffffffffffff19168152601001837bffffffffffffffffffffffffffffffffffffffffffffffffffffffff19167bffffffffffffffffffffffffffffffffffffffffffffffffffffffff191681526004018263ffffffff167c010000000000000000000000000000000000000000000000000000000002815260040194505050505060206040518083038160008661646e5a03f11515610a1f57600080fd5b5050604051805190509a50505050505050505050509193909250565b6020604051908101604052806000815250905600a165627a7a723058204461d62befa39573c8359e7ce77f3f71ac4333e0b5ff041823c61a3bc0587c0f0029",
  "source": "pragma solidity ^0.4.11;\nimport \"./bytesutils.sol\";\nimport \"./ECMath.sol\";\n\nlibrary tlsnutils{\n\n  using bytesutils for *;\n\n  /*\n   * @dev Returns the complete conversation part of one peer (all generator records).\n   * @param proof The proof.\n   * @param conversation_part 0 = Requester(Client), 1 = Generator(Server).\n   * @return The response as a bytestring.\n  */\n  function getConversationPart(bytes memory proof, bytes1 conversation_part) private returns(bytes){\n      bytes memory response = \"\";\n      uint16 readPos = 96;\n      // Skipping the certificate chain\n      readPos += uint16(proof[26])+256*uint16(proof[27]);\n      bytes1 generator_originated;\n      // Parse one record after another ( i < num_proof_nodes )\n      for(uint16 i = 0; i < uint16(proof[6])+256*uint16(proof[7]); i++){\n\n          // Assume the request is in the first record\n          bytes2 len_record; // Length of the record\n          assembly { len_record := mload(add(proof,add(readPos,33))) }\n\n          uint16 tmplen = uint16(len_record[0])+256*uint16(len_record[1]);\n\n          generator_originated = proof[readPos+3];\n\n          // Skip node, type, content len and generator info\n          readPos += 4;\n\n          if(generator_originated == conversation_part){\n              var chunk = proof.toSlice(readPos).truncate(tmplen);\n              response = response.toSlice().concat(chunk);\n          }\n          readPos += tmplen + 16;\n      }\n      return response;\n  }\n\n\n\n  /*\n   * @dev Returns the complete request (all requester records).\n   * @param proof The proof.\n   * @return The request as a bytestring.\n  */\n  function getRequest(bytes memory proof) internal returns(bytes){\n      return getConversationPart(proof, 0);\n  }\n\n\n  /*\n   * @dev Returns the complete response (all generator records).\n   * @param proof The proof.\n   * @return The response as a bytestring.\n  */\n  function getResponse(bytes memory proof) internal returns(bytes){\n      return getConversationPart(proof, 1);\n  }\n\n\n\n  /*\n   * @dev Returns the HTTP body.\n   * @param proof The proof.\n   * @return The HTTP body in case the request was valid. (200 OK)\n  */\n  function getHTTPBody(bytes memory proof) internal returns(bytes){\n      bytes memory response = getResponse(proof);\n      bytesutils.slice memory code = response.toSlice().truncate(15);\n      require(code.equals(\"HTTP/1.1 200 OK\".toSlice()));\n      bytesutils.slice memory body = response.toSlice().find(\"\\r\\n\\r\\n\".toSlice());\n      body.addOffset(4);\n      return body.toBytes();\n  }\n\n\n  /*\n   * @dev Returns HTTP Host inside the request\n   * @param proof The proof.\n   * @return The Host as a bytestring.\n  */\n  function getHost(bytes memory proof) internal returns(bytes){\n      bytesutils.slice memory request = getRequest(proof).toSlice();\n      // Search in Headers\n      request = request.split(\"\\r\\n\\r\\n\".toSlice());\n      // Find host header\n      request.find(\"Host:\".toSlice());\n      request.addOffset(5);\n      // Until newline\n      request = request.split(\"\\r\\n\".toSlice());\n      while(request.startsWith(\" \".toSlice())){\n          request.addOffset(1);\n      }\n\trequire(request.len() > 0);\n      return request.toBytes();\n  }\n\n  /*\n   * @dev Returns the requested URL for HTTP\n   * @param proof The proof.\n   * @return The request as a bytestring. Empty string on error.\n  */\n  function getHTTPRequestURL(bytes memory proof) internal returns(bytes){\n      bytes memory request = getRequest(proof);\n      bytesutils.slice memory slice = request.toSlice();\n      bytesutils.slice memory delim = \" \".toSlice();\n      // Check the method is GET\n      bytesutils.slice memory method = slice.split(delim);\n      require(method.equals(\"GET\".toSlice()));\n      // Return the URL\n      return slice.split(delim).toBytes();\n  }\n\n  /*\n   * @dev Verify a proof signed by tls-n.org.\n   * @param proof The proof.\n   * @return True iff valid.\n  */\n  function verifyProof(bytes memory proof) returns(bool) {\n  \tuint256 qx = 0x0de2583dc1b70c4d17936f6ca4d2a07aa2aba06b76a97e60e62af286adc1cc09; //public key x-coordinate signer\n  \tuint256 qy = 0x68ba8822c94e79903406a002f4bc6a982d1b473f109debb2aa020c66f642144a; //public key y-coordinate signer\n  \treturn verifyProof(proof, qx, qy);\n  }\n\n  /*\n   * @dev Verify a proof signed by the specified key.\n   * @param proof The proof.\n   * @return True iff valid.\n  */\n  function verifyProof(bytes memory proof, uint256 qx, uint256 qy) returns(bool) {\n  \tbytes32 m; // Evidence Hash in bytes32\n  \tuint256 e; // Evidence Hash in uint256\n  \tuint256 sig_r; //signature parameter\n  \tuint256 sig_s; //signature parameter\n\n  \t// Returns ECC signature parts and the evidence hash\n  \t(sig_r, sig_s, m) = parseProof(proof);\n\n  \t// Convert evidence hash to uint\n  \te = uint256(m);\n\n  \t// Verify signature\n  \treturn ECMath.ecdsaverify(qx, qy, e, sig_r, sig_s);\n\n  }\n\n  /*\n   * @dev Parses the provided proof and returns the signature parts and the evidence hash.\n   * For 64-byte ECC proofs with SHA256.\n   * @param proof The proof.\n   * @return sig_r, sig_s: signature parts and hashchain: the final evidence hash.\n  */\n  function parseProof(bytes memory proof) returns(uint256 sig_r, uint256 sig_s, bytes32 hashchain) {\n\n      uint16 readPos = 0; // Initialize index in proof bytes array\n      bytes16 times; // Contains Timestamps for signature validation\n    bytes2 len_record; // Length of the record\n    bytes1 generator_originated; // Boolean whether originated by generator\n    bytes memory chunk; // One chunk for hashing\n    bytes16 saltsecret; // Salt secret from proof\n\n      // Parse times\n      assembly {\n        times := mload(add(proof, 40))\n      }\n      readPos += 32; //update readPos, skip parameters\n\n    assembly {\n        sig_r := mload(add(proof,64))\n        sig_s := mload(add(proof,96))\n      readPos := add(readPos, 64)\n    }\n\n      // Skipping the certificate chain\n      readPos += uint16(proof[26])+256*uint16(proof[27]);\n\n      // Parse one record after another ( i < num_proof_nodes )\n    for(uint16 i = 0; i < uint16(proof[6])+256*uint16(proof[7]); i++){\n  \t\t// Get the Record length as a byte array\n  \t\tassembly { len_record := mload(add(proof,add(readPos,33))) }\n  \t\t// Convert the record length into a number\n  \t\tuint16 tmplen = uint16(len_record[0])+256*uint16(len_record[1]);\n  \t\t// Parse generator information\n  \t\tgenerator_originated = proof[readPos+3];\n  \t\t// Update readPos\n  \t\treadPos += 4;\n  \t\t// Set chunk pointer\n  \t\tassembly { chunk := add(proof,readPos) }\n  \t\t// Set length of chunks\n  \t\tassembly { mstore(chunk, tmplen) }\n  \t\t// Load saltsecret\n  \t\tassembly { saltsecret := mload(add(proof,add(readPos,add(tmplen,32)))) }\n  \t\t// Root hash\n  \t\tbytes32 hash = sha256(saltsecret,chunk,uint8(0),len_record,generator_originated);\n  \t\t// Hash chain\n  \t\tif(i == 0){\n  \t\t\thashchain = sha256(uint8(1),hash);\n  \t\t}else{\n  \t\t\thashchain = sha256(uint8(1),hashchain,hash);\n  \t\t}\n  \t\t// Jump over record and salt secret\n  \t\treadPos += tmplen + 16;\n  \t}\n  \t// Compute Evidence Hash\n  \t// Load chunk size and salt size\n  \tbytes4 test; // Temporarily contains salt size and chunk size\n  \tassembly { test := mload(add(proof,34)) }\n  \t// Compute final hash chain\n  \thashchain = sha256(hashchain, times, test, 0x04000000);\n    }\n  }\n",
  "sourcePath": "/home/vincent/Documents/imperial/group project/Lending-With-Smart-Contracts/installed_contracts/tlsnutils.sol",
  "compiler": {
    "name": "solc",
    "version": "0.4.19+commit.c4cbbb05.Emscripten.clang"
  },
  "schemaVersion": "1.0.1",
  "updatedAt": "2018-05-15T07:12:41.642Z"
}